{"contracts/PortfolioRebalancer.sol":{"PortfolioRebalancer":{"abi":[{"inputs":[{"internalType":"address","name":"_feeRecipient","type":"address"}],"stateMutability":"nonpayable","type":"constructor"},{"inputs":[{"internalType":"address","name":"owner","type":"address"}],"name":"OwnableInvalidOwner","type":"error"},{"inputs":[{"internalType":"address","name":"account","type":"address"}],"name":"OwnableUnauthorizedAccount","type":"error"},{"inputs":[],"name":"ReentrancyGuardReentrantCall","type":"error"},{"anonymous":false,"inputs":[{"indexed":true,"internalType":"address","name":"user","type":"address"},{"indexed":true,"internalType":"address","name":"token","type":"address"},{"indexed":false,"internalType":"uint256","name":"oldAllocation","type":"uint256"},{"indexed":false,"internalType":"uint256","name":"newAllocation","type":"uint256"},{"indexed":false,"internalType":"uint256","name":"timestamp","type":"uint256"}],"name":"AllocationUpdated","type":"event"},{"anonymous":false,"inputs":[{"indexed":true,"internalType":"address","name":"previousOwner","type":"address"},{"indexed":true,"internalType":"address","name":"newOwner","type":"address"}],"name":"OwnershipTransferred","type":"event"},{"anonymous":false,"inputs":[{"indexed":true,"internalType":"address","name":"user","type":"address"},{"indexed":false,"internalType":"uint256","name":"totalValue","type":"uint256"},{"indexed":false,"internalType":"uint256","name":"rebalanceAmount","type":"uint256"},{"indexed":false,"internalType":"uint256","name":"gasCost","type":"uint256"},{"indexed":false,"internalType":"uint256","name":"timestamp","type":"uint256"}],"name":"PortfolioRebalanced","type":"event"},{"anonymous":false,"inputs":[{"indexed":true,"internalType":"address","name":"user","type":"address"},{"indexed":false,"internalType":"string","name":"reason","type":"string"},{"indexed":false,"internalType":"uint256","name":"deviation","type":"uint256"},{"indexed":false,"internalType":"uint256","name":"threshold","type":"uint256"},{"indexed":false,"internalType":"uint256","name":"timestamp","type":"uint256"}],"name":"RebalanceTriggered","type":"event"},{"anonymous":false,"inputs":[{"indexed":true,"internalType":"address","name":"user","type":"address"},{"indexed":false,"internalType":"string","name":"strategyName","type":"string"},{"indexed":false,"internalType":"uint256","name":"strategyId","type":"uint256"},{"indexed":false,"internalType":"uint256","name":"timestamp","type":"uint256"}],"name":"StrategyCreated","type":"event"},{"inputs":[{"internalType":"uint256","name":"","type":"uint256"}],"name":"availableStrategies","outputs":[{"internalType":"string","name":"","type":"string"}],"stateMutability":"view","type":"function"},{"inputs":[{"internalType":"address","name":"user","type":"address"},{"internalType":"string","name":"strategyName","type":"string"},{"components":[{"internalType":"address","name":"token","type":"address"},{"internalType":"uint256","name":"targetPercentage","type":"uint256"},{"internalType":"uint256","name":"currentPercentage","type":"uint256"},{"internalType":"uint256","name":"currentValue","type":"uint256"},{"internalType":"uint256","name":"deviation","type":"uint256"}],"internalType":"struct PortfolioRebalancer.Allocation[]","name":"allocations","type":"tuple[]"},{"internalType":"uint256","name":"rebalanceThreshold","type":"uint256"},{"internalType":"bool","name":"autoRebalance","type":"bool"}],"name":"createStrategy","outputs":[{"internalType":"uint256","name":"strategyId","type":"uint256"}],"stateMutability":"nonpayable","type":"function"},{"inputs":[],"name":"defaultRebalanceThreshold","outputs":[{"internalType":"uint256","name":"","type":"uint256"}],"stateMutability":"view","type":"function"},{"inputs":[],"name":"feeRecipient","outputs":[{"internalType":"address","name":"","type":"address"}],"stateMutability":"view","type":"function"},{"inputs":[],"name":"getAvailableStrategies","outputs":[{"internalType":"string[]","name":"","type":"string[]"}],"stateMutability":"view","type":"function"},{"inputs":[],"name":"getStats","outputs":[{"internalType":"uint256","name":"_totalRebalances","type":"uint256"},{"internalType":"uint256","name":"_totalValueRebalanced","type":"uint256"},{"internalType":"uint256","name":"_activeStrategies","type":"uint256"},{"internalType":"uint256","name":"_totalUsers","type":"uint256"}],"stateMutability":"view","type":"function"},{"inputs":[{"internalType":"uint256","name":"strategyId","type":"uint256"}],"name":"getStrategy","outputs":[{"components":[{"internalType":"string","name":"name","type":"string"},{"internalType":"uint256","name":"rebalanceThreshold","type":"uint256"},{"internalType":"uint256","name":"minRebalanceAmount","type":"uint256"},{"internalType":"bool","name":"autoRebalance","type":"bool"},{"internalType":"uint256","name":"lastRebalance","type":"uint256"},{"internalType":"bool","name":"active","type":"bool"}],"internalType":"struct PortfolioRebalancer.RebalanceStrategy","name":"","type":"tuple"}],"stateMutability":"view","type":"function"},{"inputs":[{"internalType":"address","name":"user","type":"address"}],"name":"getUserPortfolio","outputs":[{"components":[{"internalType":"address","name":"token","type":"address"},{"internalType":"uint256","name":"targetPercentage","type":"uint256"},{"internalType":"uint256","name":"currentPercentage","type":"uint256"},{"internalType":"uint256","name":"currentValue","type":"uint256"},{"internalType":"uint256","name":"deviation","type":"uint256"}],"internalType":"struct PortfolioRebalancer.Allocation[]","name":"allocations","type":"tuple[]"},{"internalType":"uint256","name":"totalValue","type":"uint256"},{"internalType":"uint256","name":"strategyId","type":"uint256"},{"internalType":"uint256","name":"lastRebalance","type":"uint256"},{"internalType":"uint256","name":"rebalanceCount","type":"uint256"}],"stateMutability":"view","type":"function"},{"inputs":[],"name":"minRebalanceAmount","outputs":[{"internalType":"uint256","name":"","type":"uint256"}],"stateMutability":"view","type":"function"},{"inputs":[],"name":"nextStrategyId","outputs":[{"internalType":"uint256","name":"","type":"uint256"}],"stateMutability":"view","type":"function"},{"inputs":[],"name":"owner","outputs":[{"internalType":"address","name":"","type":"address"}],"stateMutability":"view","type":"function"},{"inputs":[{"internalType":"address","name":"","type":"address"},{"internalType":"uint256","name":"","type":"uint256"}],"name":"pendingRebalances","outputs":[{"internalType":"address","name":"tokenFrom","type":"address"},{"internalType":"address","name":"tokenTo","type":"address"},{"internalType":"uint256","name":"amount","type":"uint256"},{"internalType":"string","name":"action","type":"string"}],"stateMutability":"view","type":"function"},{"inputs":[],"name":"performanceFee","outputs":[{"internalType":"uint256","name":"","type":"uint256"}],"stateMutability":"view","type":"function"},{"inputs":[{"internalType":"address","name":"user","type":"address"}],"name":"rebalancePortfolio","outputs":[{"internalType":"bool","name":"rebalanced","type":"bool"},{"internalType":"uint256","name":"totalValue","type":"uint256"}],"stateMutability":"nonpayable","type":"function"},{"inputs":[],"name":"renounceOwnership","outputs":[],"stateMutability":"nonpayable","type":"function"},{"inputs":[{"internalType":"uint256","name":"","type":"uint256"}],"name":"strategies","outputs":[{"internalType":"string","name":"name","type":"string"},{"internalType":"uint256","name":"rebalanceThreshold","type":"uint256"},{"internalType":"uint256","name":"minRebalanceAmount","type":"uint256"},{"internalType":"bool","name":"autoRebalance","type":"bool"},{"internalType":"uint256","name":"lastRebalance","type":"uint256"},{"internalType":"bool","name":"active","type":"bool"}],"stateMutability":"view","type":"function"},{"inputs":[],"name":"totalRebalances","outputs":[{"internalType":"uint256","name":"","type":"uint256"}],"stateMutability":"view","type":"function"},{"inputs":[],"name":"totalValueRebalanced","outputs":[{"internalType":"uint256","name":"","type":"uint256"}],"stateMutability":"view","type":"function"},{"inputs":[{"internalType":"address","name":"newOwner","type":"address"}],"name":"transferOwnership","outputs":[],"stateMutability":"nonpayable","type":"function"},{"inputs":[{"internalType":"address","name":"user","type":"address"},{"internalType":"address","name":"token","type":"address"},{"internalType":"uint256","name":"newTargetPercentage","type":"uint256"}],"name":"updateAllocation","outputs":[],"stateMutability":"nonpayable","type":"function"},{"inputs":[{"internalType":"uint256","name":"_threshold","type":"uint256"}],"name":"updateDefaultThreshold","outputs":[],"stateMutability":"nonpayable","type":"function"},{"inputs":[{"internalType":"uint256","name":"_fee","type":"uint256"}],"name":"updatePerformanceFee","outputs":[],"stateMutability":"nonpayable","type":"function"},{"inputs":[{"internalType":"address","name":"","type":"address"}],"name":"userPortfolios","outputs":[{"internalType":"uint256","name":"totalValue","type":"uint256"},{"internalType":"uint256","name":"strategyId","type":"uint256"},{"internalType":"uint256","name":"lastRebalance","type":"uint256"},{"internalType":"uint256","name":"rebalanceCount","type":"uint256"}],"stateMutability":"view","type":"function"},{"inputs":[{"internalType":"address","name":"","type":"address"}],"name":"userStrategies","outputs":[{"internalType":"string","name":"name","type":"string"},{"internalType":"uint256","name":"rebalanceThreshold","type":"uint256"},{"internalType":"uint256","name":"minRebalanceAmount","type":"uint256"},{"internalType":"bool","name":"autoRebalance","type":"bool"},{"internalType":"uint256","name":"lastRebalance","type":"uint256"},{"internalType":"bool","name":"active","type":"bool"}],"stateMutability":"view","type":"function"}],"evm":{"bytecode":{"linkReferences":{},"object":"60016006556101f4600955662386f26fc10000600a908155604b600b55600c6101209081526b436f6e73657276617469766560a01b61014052608090815260086101609081526710985b185b98d95960c21b6101805260a0526101a0828152694167677265737369766560b01b6101c05260c0526101e0918252694465466920466f63757360b01b6102005260e09190915261026060405260106102209081526f537461626c65636f696e20486561767960801b6102405261010052620000cb90600d9060056200046a565b50348015620000d957600080fd5b50604051620028d6380380620028d6833981016040819052620000fc9162000541565b33806200012357604051631e4fbdf760e01b81526000600482015260240160405180910390fd5b6200012e816200015f565b5060018055600c80546001600160a01b0319166001600160a01b03831617905562000158620001af565b50620006e4565b600080546001600160a01b038381166001600160a01b0319831681178455604051919092169283917f8be0079c531659141344cd1fd0a4f28419497f9722a3daafe3b4186f6b6457e09190a35050565b6040805161010081018252600c60c082019081526b436f6e73657276617469766560a01b60e083015281526103e860208083019190915267016345785d8a00009282019290925260016060820181905260006080830181905260a0830182905252600490915280517fabd6e7cb50984ff9c2f3e18a2660c3353dadf4e3291deeb275dae2cd1e44fe0590819062000247908262000618565b5060208281015160018084019190915560408085015160028086019190915560608087015160038701805491151560ff199283161790556080808901516004808a019190915560a0998a0151600590990180549915159990931698909817909155835161010081018552600860c082019081526710985b185b98d95960c21b60e083015281526101f48188015266b1a2bc2ec500009481019490945290830184905260009083018190529582019290925293525280517f91da3fd0782e51c6b3986e9e672fd566868e71f3dbc2d6c2cd6fbb3e361af2a79081906200032d908262000618565b5060208281015160018084019190915560408085015160028501556060808601516003808701805492151560ff199384161790556080808901516004808a019190915560a0998a0151600590990180549915159990941698909817909255835161010081018552600a60c08201908152694167677265737369766560b01b60e0830152815260fa81880152662386f26fc100009481019490945291830184905260009083018190529582019290925293525280517f2e174c10e159ea99b867ce3205125c24a42d128804e4070ed6fcc8cc98166aa090819062000411908262000618565b506020820151600182015560408201516002820155606082015160038201805491151560ff19928316179055608083015160048084019190915560a0909301516005909201805492151592909116919091179055600655565b828054828255906000526020600020908101928215620004b5579160200282015b82811115620004b55782518290620004a4908262000618565b50916020019190600101906200048b565b50620004c3929150620004c7565b5090565b80821115620004c3576000620004de8282620004e8565b50600101620004c7565b508054620004f69062000589565b6000825580601f1062000507575050565b601f0160209004906000526020600020908101906200052791906200052a565b50565b5b80821115620004c357600081556001016200052b565b6000602082840312156200055457600080fd5b81516001600160a01b03811681146200056c57600080fd5b9392505050565b634e487b7160e01b600052604160045260246000fd5b600181811c908216806200059e57607f821691505b602082108103620005bf57634e487b7160e01b600052602260045260246000fd5b50919050565b601f8211156200061357600081815260208120601f850160051c81016020861015620005ee5750805b601f850160051c820191505b818110156200060f57828155600101620005fa565b5050505b505050565b81516001600160401b0381111562000634576200063462000573565b6200064c8162000645845462000589565b84620005c5565b602080601f8311600181146200068457600084156200066b5750858301515b600019600386901b1c1916600185901b1785556200060f565b600085815260208120601f198616915b82811015620006b55788860151825594840194600190910190840162000694565b5085821015620006d45787850151600019600388901b60f8161c191681555b5050505050600190811b01905550565b6121e280620006f46000396000f3fe608060405234801561001057600080fd5b50600436106101585760003560e01c806387788782116100c3578063cfc0cc341161007c578063cfc0cc3414610346578063d574ea3d14610366578063e84354c514610379578063e898133014610382578063ed9fe48a14610395578063f2fde38b1461039e57600080fd5b806387788782146102985780638da5cb5b146102a157806399d8e033146102b2578063b61920c1146102bb578063b63f19bb14610314578063c59d48471461033757600080fd5b80634d20061c116101155780634d20061c1461022c5780634db25ff51461023f57806356a21da5146102525780636134f0981461025b578063715018a61461027b5780637697f9c91461028357600080fd5b8063185f84471461015d5780631a3075cc146101795780631edb27e9146101a35780632d4056e6146101c757806346904840146101dc578063487bb96514610207575b600080fd5b61016660065481565b6040519081526020015b60405180910390f35b61018c610187366004611a5e565b6103b1565b604080519215158352602083019190915201610170565b6101b66101b1366004611a5e565b6105c3565b604051610170959493929190611a80565b6101da6101d5366004611b12565b6106ae565b005b600c546101ef906001600160a01b031681565b6040516001600160a01b039091168152602001610170565b61021a610215366004611a5e565b610702565b60405161017096959493929190611b71565b61016661023a366004611cf8565b6107c5565b6101da61024d366004611dda565b610b33565b61016660075481565b61026e610269366004611b12565b610c69565b6040516101709190611e16565b6101da610d15565b61028b610d29565b6040516101709190611e29565b610166600b5481565b6000546001600160a01b03166101ef565b61016660085481565b6102f46102c9366004611a5e565b6002602081905260009182526040909120600181015491810154600382015460049092015490919084565b604080519485526020850193909352918301526060820152608001610170565b610327610322366004611e8b565b610e02565b6040516101709493929190611eb5565b600754600854600360006102f4565b610359610354366004611b12565b610ee1565b6040516101709190611ef2565b61021a610374366004611b12565b61100d565b610166600a5481565b6101da610390366004611b12565b611028565b61016660095481565b6101da6103ac366004611a5e565b61107f565b6000806103bc6110bd565b6001600160a01b03831661040e5760405162461bcd60e51b8152602060048201526014602482015273496e76616c69642075736572206164647265737360601b60448201526064015b60405180910390fd5b6001600160a01b038316600090815260026020526040902080546104695760405162461bcd60e51b8152602060048201526012602482015271139bc81c1bdc9d199bdb1a5bc8199bdd5b9960721b6044820152606401610405565b610472846110e7565b6000806000610480876112af565b9250925092508261049d57505050600101546000925090506105b5565b60006104a8886114cd565b905060006104b689836117f7565b42600388015560048701805491925060006104d083611f66565b9091555050600780549060006104e583611f66565b919050555080600860008282546104fc9190611f7f565b92505081905550886001600160a01b03167f3110b03ef03bd708aeb360c1f0ecb53e226f0b3a3cc368472818e0930bd63caa8486600954426040516105449493929190611f92565b60405180910390a2600186015460408051918252602082018390526000908201524260608201526001600160a01b038a16907fe5ffca7635c15018a8f1c00b9bcff53757466bee397b8f646266d6e001d8faec9060800160405180910390a260018660010154975097505050505050505b6105be60018055565b915091565b6060600080600080600060026000886001600160a01b03166001600160a01b03168152602001908152602001600020905080600001816001015482600201548360030154846004015484805480602002602001604051908101604052809291908181526020016000905b828210156106945760008481526020908190206040805160a0810182526005860290920180546001600160a01b031683526001808201548486015260028201549284019290925260038101546060840152600401546080830152908352909201910161062d565b505050509450955095509550955095505091939590929450565b6106b66118f3565b6113888111156106fd5760405162461bcd60e51b81526020600482015260126024820152710a8d0e4cae6d0ded8c840e8dede40d0d2ced60731b6044820152606401610405565b600955565b60036020526000908152604090208054819061071d90611fc1565b80601f016020809104026020016040519081016040528092919081815260200182805461074990611fc1565b80156107965780601f1061076b57610100808354040283529160200191610796565b820191906000526020600020905b81548152906001019060200180831161077957829003601f168201915b50505060018401546002850154600386015460048701546005909701549596929591945060ff90811693501686565b60006001600160a01b0386166108145760405162461bcd60e51b8152602060048201526014602482015273496e76616c69642075736572206164647265737360601b6044820152606401610405565b60008451116108655760405162461bcd60e51b815260206004820152601760248201527f4e6f20616c6c6f636174696f6e732070726f76696465640000000000000000006044820152606401610405565b6113888311156108ac5760405162461bcd60e51b81526020600482015260126024820152710a8d0e4cae6d0ded8c840e8dede40d0d2ced60731b6044820152606401610405565b6000805b85518110156108f6578581815181106108cb576108cb611ffb565b602002602001015160200151826108e29190611f7f565b9150806108ee81611f66565b9150506108b0565b5080612710146109485760405162461bcd60e51b815260206004820152601c60248201527f416c6c6f636174696f6e73206d7573742073756d20746f2031303025000000006044820152606401610405565b6006805490600061095883611f66565b909155506040805160c0810182528881526020808201889052600a54828401528615156060830152600060808301819052600160a08401528481526004909152919091208151929450909181906109af908261205f565b50602082810151600183015560408084015160028085019190915560608501516003808601805492151560ff19938416179055608087015160048088019190915560a09097015160059096018054961515969092169590951790556001600160a01b038c16600090815292819052908220908101869055429281019290925591810182905590610a409082906119e7565b60005b8651811015610ae25781600001878281518110610a6257610a62611ffb565b602090810291909101810151825460018082018555600094855293839020825160059092020180546001600160a01b0319166001600160a01b039092169190911781559181015192820192909255604082015160028201556060820151600382015560809091015160049091015580610ada81611f66565b915050610a43565b50876001600160a01b03167f5c8602a0e23955009355e7ec887c1e553c8bedcce7af464b25db093b376ca880888542604051610b209392919061211f565b60405180910390a2505095945050505050565b6001600160a01b0383166000908152600260205260408120905b8154811015610c6257836001600160a01b0316826000018281548110610b7557610b75611ffb565b60009182526020909120600590910201546001600160a01b031603610c50576000826000018281548110610bab57610bab611ffb565b906000526020600020906005020160010154905083836000018381548110610bd557610bd5611ffb565b906000526020600020906005020160010181905550846001600160a01b0316866001600160a01b03167f0b8f9caf334715abc50b6d762f8c52640b8dfeaa8698fdf15bd65f7026cc50f2838742604051610c42939291909283526020830191909152604082015260600190565b60405180910390a350610c62565b80610c5a81611f66565b915050610b4d565b5050505050565b600d8181548110610c7957600080fd5b906000526020600020016000915090508054610c9490611fc1565b80601f0160208091040260200160405190810160405280929190818152602001828054610cc090611fc1565b8015610d0d5780601f10610ce257610100808354040283529160200191610d0d565b820191906000526020600020905b815481529060010190602001808311610cf057829003601f168201915b505050505081565b610d1d6118f3565b610d276000611920565b565b6060600d805480602002602001604051908101604052809291908181526020016000905b82821015610df9578382906000526020600020018054610d6c90611fc1565b80601f0160208091040260200160405190810160405280929190818152602001828054610d9890611fc1565b8015610de55780601f10610dba57610100808354040283529160200191610de5565b820191906000526020600020905b815481529060010190602001808311610dc857829003601f168201915b505050505081526020019060010190610d4d565b50505050905090565b60056020528160005260406000208181548110610e1e57600080fd5b600091825260209091206004909102018054600182015460028301546003840180546001600160a01b0394851697509390921694509291610e5e90611fc1565b80601f0160208091040260200160405190810160405280929190818152602001828054610e8a90611fc1565b8015610ed75780601f10610eac57610100808354040283529160200191610ed7565b820191906000526020600020905b815481529060010190602001808311610eba57829003601f168201915b5050505050905084565b610f1e6040518060c00160405280606081526020016000815260200160008152602001600015158152602001600081526020016000151581525090565b60008281526004602052604090819020815160c08101909252805482908290610f4690611fc1565b80601f0160208091040260200160405190810160405280929190818152602001828054610f7290611fc1565b8015610fbf5780601f10610f9457610100808354040283529160200191610fbf565b820191906000526020600020905b815481529060010190602001808311610fa257829003601f168201915b50505091835250506001820154602082015260028201546040820152600382015460ff9081161515606083015260048301546080830152600590920154909116151560a09091015292915050565b60046020526000908152604090208054819061071d90611fc1565b6110306118f3565b6103e881111561107a5760405162461bcd60e51b81526020600482015260156024820152744665652063616e6e6f74206578636565642031302560581b6044820152606401610405565b600b55565b6110876118f3565b6001600160a01b0381166110b157604051631e4fbdf760e01b815260006004820152602401610405565b6110ba81611920565b50565b6002600154036110e057604051633ee5aeb560e01b815260040160405180910390fd5b6002600155565b6001600160a01b038116600090815260026020526040812090805b825481101561119057600061114484600001838154811061112557611125611ffb565b60009182526020909120600590910201546001600160a01b0316611970565b90508084600001838154811061115c5761115c611ffb565b600091825260209091206003600590920201015561117a8184611f7f565b925050808061118890611f66565b915050611102565b506001820181905580156112aa5760005b82548110156112a8576000828460000183815481106111c2576111c2611ffb565b9060005260206000209060050201600301546127106111e19190612144565b6111eb9190612171565b90508084600001838154811061120357611203611ffb565b906000526020600020906005020160020181905550600084600001838154811061122f5761122f611ffb565b9060005260206000209060050201600101549050600081831161125b576112568383612185565b611265565b6112658284612185565b90508086600001858154811061127d5761127d611ffb565b90600052602060002090600502016004018190555050505080806112a090611f66565b9150506111a1565b505b505050565b6001600160a01b03811660009081526002602081815260408084209283015484526004909152822060058101548392606092909160ff166113245760008060405180604001604052806011815260200170537472617465677920696e61637469766560781b81525094509450945050506114c6565b62278d008260030154426113389190612185565b11156113795760016000604051806040016040528060118152602001704d6f6e74686c7920726562616c616e636560781b81525094509450945050506114c6565b6000935060005b82548110156113f3578483600001828154811061139f5761139f611ffb565b90600052602060002090600502016004015411156113e1578260000181815481106113cc576113cc611ffb565b90600052602060002090600502016004015494505b806113eb81611f66565b915050611380565b508060010154841061144057505060408051808201909152601c81527f446576696174696f6e207468726573686f6c642065786365656465640000000060208201526001935090506114c6565b80600201548260010154101561149157505060408051808201909152601e81527f42656c6f77206d696e696d756d20726562616c616e636520616d6f756e74000060208201526000935090506114c6565b5050604080518082019091526015815274139bc81c9958985b185b98da5b99c81b9959591959605a1b60208201526000935090505b9193909250565b6001600160a01b03811660009081526002602081905260408220805460609391926114f89190612144565b67ffffffffffffffff81111561151057611510611baf565b60405190808252806020026020018201604052801561156157816020015b604080516080810182526000808252602080830182905292820152606080820152825260001990920191018161152e5790505b5090506000805b835481101561172857600084600001828154811061158857611588611ffb565b906000526020600020906005020190508060010154816002015411156116595760006127108660010154836001015484600201546115c69190612185565b6115d09190612144565b6115da9190612171565b6040805160808101825284546001600160a01b0316815260006020808301919091528183018490528251808401909352600483526314d1531360e21b90830152606081019190915286519192509086908690811061163a5761163a611ffb565b6020026020010181905250838061165090611f66565b94505050611715565b8060010154816002015410156117155760006127108660010154836002015484600101546116879190612185565b6116919190612144565b61169b9190612171565b604080516080810182526000815284546001600160a01b03166020808301919091528183018490528251808401909352600383526242555960e81b9083015260608101919091528651919250908690869081106116fa576116fa611ffb565b6020026020010181905250838061171090611f66565b945050505b508061172081611f66565b915050611568565b5060008167ffffffffffffffff81111561174457611744611baf565b60405190808252806020026020018201604052801561179557816020015b60408051608081018252600080825260208083018290529282015260608082015282526000199092019101816117625790505b50905060005b828110156117ed578381815181106117b5576117b5611ffb565b60200260200101518282815181106117cf576117cf611ffb565b602002602001018190525080806117e590611f66565b91505061179b565b5095945050505050565b6000805b82518110156118eb5782818151811061181657611816611ffb565b6020026020010151604001518261182d9190611f7f565b6001600160a01b038516600090815260056020526040902084519193509084908390811061185d5761185d611ffb565b602090810291909101810151825460018181018555600094855293839020825160049092020180546001600160a01b039283166001600160a01b031991821617825593830151948101805495909216949093169390931790925560408201516002820155606082015160038201906118d5908261205f565b50505080806118e390611f66565b9150506117fb565b505b92915050565b6000546001600160a01b03163314610d275760405163118cdaa760e01b8152336004820152602401610405565b600080546001600160a01b038381166001600160a01b0319831681178455604051919092169283917f8be0079c531659141344cd1fd0a4f28419497f9722a3daafe3b4186f6b6457e09190a35050565b6040516bffffffffffffffffffffffff19606083901b166020820152426034820152600090683635c9adc5dea00000908290680ad78ebc5ac6200000906054016040516020818303038152906040528051906020012060001c6119d39190612198565b90506119df8183611f7f565b949350505050565b50805460008255600502906000526020600020908101906110ba91905b80821115611a3e5780546001600160a01b031916815560006001820181905560028201819055600382018190556004820155600501611a04565b5090565b80356001600160a01b0381168114611a5957600080fd5b919050565b600060208284031215611a7057600080fd5b611a7982611a42565b9392505050565b60a080825286518282018190526000919060209060c0850190828b01855b82811015611aeb57815180516001600160a01b0316855285810151868601526040808201519086015260608082015190860152608090810151908501529285019290840190600101611a9e565b50505090840197909752505060408101939093526060830191909152608090910152919050565b600060208284031215611b2457600080fd5b5035919050565b6000815180845260005b81811015611b5157602081850181015186830182015201611b35565b506000602082860101526020601f19601f83011685010191505092915050565b60c081526000611b8460c0830189611b2b565b602083019790975250604081019490945291151560608401526080830152151560a090910152919050565b634e487b7160e01b600052604160045260246000fd5b60405160a0810167ffffffffffffffff81118282101715611be857611be8611baf565b60405290565b604051601f8201601f1916810167ffffffffffffffff81118282101715611c1757611c17611baf565b604052919050565b600082601f830112611c3057600080fd5b8135602067ffffffffffffffff821115611c4c57611c4c611baf565b611c5a818360051b01611bee565b82815260a09283028501820192828201919087851115611c7957600080fd5b8387015b85811015611cdb5781818a031215611c955760008081fd5b611c9d611bc5565b611ca682611a42565b815281860135868201526040808301359082015260608083013590820152608080830135908201528452928401928101611c7d565b5090979650505050505050565b80358015158114611a5957600080fd5b600080600080600060a08688031215611d1057600080fd5b611d1986611a42565b945060208087013567ffffffffffffffff80821115611d3757600080fd5b818901915089601f830112611d4b57600080fd5b813581811115611d5d57611d5d611baf565b611d6f601f8201601f19168501611bee565b8181528b85838601011115611d8357600080fd5b818585018683013760009181019094015291955060408801359180831115611daa57600080fd5b5050611db888828901611c1f565b93505060608601359150611dce60808701611ce8565b90509295509295909350565b600080600060608486031215611def57600080fd5b611df884611a42565b9250611e0660208501611a42565b9150604084013590509250925092565b602081526000611a796020830184611b2b565b6000602080830181845280855180835260408601915060408160051b870101925083870160005b82811015611e7e57603f19888603018452611e6c858351611b2b565b94509285019290850190600101611e50565b5092979650505050505050565b60008060408385031215611e9e57600080fd5b611ea783611a42565b946020939093013593505050565b6001600160a01b0385811682528416602082015260408101839052608060608201819052600090611ee890830184611b2b565b9695505050505050565b602081526000825160c06020840152611f0e60e0840182611b2b565b90506020840151604084015260408401516060840152606084015115156080840152608084015160a084015260a0840151151560c08401528091505092915050565b634e487b7160e01b600052601160045260246000fd5b600060018201611f7857611f78611f50565b5060010190565b808201808211156118ed576118ed611f50565b608081526000611fa56080830187611b2b565b6020830195909552506040810192909252606090910152919050565b600181811c90821680611fd557607f821691505b602082108103611ff557634e487b7160e01b600052602260045260246000fd5b50919050565b634e487b7160e01b600052603260045260246000fd5b601f8211156112aa57600081815260208120601f850160051c810160208610156120385750805b601f850160051c820191505b8181101561205757828155600101612044565b505050505050565b815167ffffffffffffffff81111561207957612079611baf565b61208d816120878454611fc1565b84612011565b602080601f8311600181146120c257600084156120aa5750858301515b600019600386901b1c1916600185901b178555612057565b600085815260208120601f198616915b828110156120f1578886015182559484019460019091019084016120d2565b508582101561210f5787850151600019600388901b60f8161c191681555b5050505050600190811b01905550565b6060815260006121326060830186611b2b565b60208301949094525060400152919050565b80820281158282048414176118ed576118ed611f50565b634e487b7160e01b600052601260045260246000fd5b6000826121805761218061215b565b500490565b818103818111156118ed576118ed611f50565b6000826121a7576121a761215b565b50069056fea2646970667358221220d4f9c20a0dde37f4ab179e3c20750d61932590ba7492b3ea10147a3c5dad65ba64736f6c63430008140033","opcodes":"PUSH1 0x1 PUSH1 0x6 SSTORE PUSH2 0x1F4 PUSH1 0x9 SSTORE PUSH7 0x2386F26FC10000 PUSH1 0xA SWAP1 DUP2 SSTORE PUSH1 0x4B PUSH1 0xB SSTORE PUSH1 0xC PUSH2 0x120 SWAP1 DUP2 MSTORE PUSH12 0x436F6E736572766174697665 PUSH1 0xA0 SHL PUSH2 0x140 MSTORE PUSH1 0x80 SWAP1 DUP2 MSTORE PUSH1 0x8 PUSH2 0x160 SWAP1 DUP2 MSTORE PUSH8 0x10985B185B98D959 PUSH1 0xC2 SHL PUSH2 0x180 MSTORE PUSH1 0xA0 MSTORE PUSH2 0x1A0 DUP3 DUP2 MSTORE PUSH10 0x41676772657373697665 PUSH1 0xB0 SHL PUSH2 0x1C0 MSTORE PUSH1 0xC0 MSTORE PUSH2 0x1E0 SWAP2 DUP3 MSTORE PUSH10 0x4465466920466F637573 PUSH1 0xB0 SHL PUSH2 0x200 MSTORE PUSH1 0xE0 SWAP2 SWAP1 SWAP2 MSTORE PUSH2 0x260 PUSH1 0x40 MSTORE PUSH1 0x10 PUSH2 0x220 SWAP1 DUP2 MSTORE PUSH16 0x537461626C65636F696E204865617679 PUSH1 0x80 SHL PUSH2 0x240 MSTORE PUSH2 0x100 MSTORE PUSH3 0xCB SWAP1 PUSH1 0xD SWAP1 PUSH1 0x5 PUSH3 0x46A JUMP JUMPDEST POP CALLVALUE DUP1 ISZERO PUSH3 0xD9 JUMPI PUSH1 0x0 DUP1 REVERT JUMPDEST POP PUSH1 0x40 MLOAD PUSH3 0x28D6 CODESIZE SUB DUP1 PUSH3 0x28D6 DUP4 CODECOPY DUP2 ADD PUSH1 0x40 DUP2 SWAP1 MSTORE PUSH3 0xFC SWAP2 PUSH3 0x541 JUMP JUMPDEST CALLER DUP1 PUSH3 0x123 JUMPI PUSH1 0x40 MLOAD PUSH4 0x1E4FBDF7 PUSH1 0xE0 SHL DUP2 MSTORE PUSH1 0x0 PUSH1 0x4 DUP3 ADD MSTORE PUSH1 0x24 ADD PUSH1 0x40 MLOAD DUP1 SWAP2 SUB SWAP1 REVERT JUMPDEST PUSH3 0x12E DUP2 PUSH3 0x15F JUMP JUMPDEST POP PUSH1 0x1 DUP1 SSTORE PUSH1 0xC DUP1 SLOAD PUSH1 0x1 PUSH1 0x1 PUSH1 0xA0 SHL SUB NOT AND PUSH1 0x1 PUSH1 0x1 PUSH1 0xA0 SHL SUB DUP4 AND OR SWAP1 SSTORE PUSH3 0x158 PUSH3 0x1AF JUMP JUMPDEST POP PUSH3 0x6E4 JUMP JUMPDEST PUSH1 0x0 DUP1 SLOAD PUSH1 0x1 PUSH1 0x1 PUSH1 0xA0 SHL SUB DUP4 DUP2 AND PUSH1 0x1 PUSH1 0x1 PUSH1 0xA0 SHL SUB NOT DUP4 AND DUP2 OR DUP5 SSTORE PUSH1 0x40 MLOAD SWAP2 SWAP1 SWAP3 AND SWAP3 DUP4 SWAP2 PUSH32 0x8BE0079C531659141344CD1FD0A4F28419497F9722A3DAAFE3B4186F6B6457E0 SWAP2 SWAP1 LOG3 POP POP JUMP JUMPDEST PUSH1 0x40 DUP1 MLOAD PUSH2 0x100 DUP2 ADD DUP3 MSTORE PUSH1 0xC PUSH1 0xC0 DUP3 ADD SWAP1 DUP2 MSTORE PUSH12 0x436F6E736572766174697665 PUSH1 0xA0 SHL PUSH1 0xE0 DUP4 ADD MSTORE DUP2 MSTORE PUSH2 0x3E8 PUSH1 0x20 DUP1 DUP4 ADD SWAP2 SWAP1 SWAP2 MSTORE PUSH8 0x16345785D8A0000 SWAP3 DUP3 ADD SWAP3 SWAP1 SWAP3 MSTORE PUSH1 0x1 PUSH1 0x60 DUP3 ADD DUP2 SWAP1 MSTORE PUSH1 0x0 PUSH1 0x80 DUP4 ADD DUP2 SWAP1 MSTORE PUSH1 0xA0 DUP4 ADD DUP3 SWAP1 MSTORE MSTORE PUSH1 0x4 SWAP1 SWAP2 MSTORE DUP1 MLOAD PUSH32 0xABD6E7CB50984FF9C2F3E18A2660C3353DADF4E3291DEEB275DAE2CD1E44FE05 SWAP1 DUP2 SWAP1 PUSH3 0x247 SWAP1 DUP3 PUSH3 0x618 JUMP JUMPDEST POP PUSH1 0x20 DUP3 DUP2 ADD MLOAD PUSH1 0x1 DUP1 DUP5 ADD SWAP2 SWAP1 SWAP2 SSTORE PUSH1 0x40 DUP1 DUP6 ADD MLOAD PUSH1 0x2 DUP1 DUP7 ADD SWAP2 SWAP1 SWAP2 SSTORE PUSH1 0x60 DUP1 DUP8 ADD MLOAD PUSH1 0x3 DUP8 ADD DUP1 SLOAD SWAP2 ISZERO ISZERO PUSH1 0xFF NOT SWAP3 DUP4 AND OR SWAP1 SSTORE PUSH1 0x80 DUP1 DUP10 ADD MLOAD PUSH1 0x4 DUP1 DUP11 ADD SWAP2 SWAP1 SWAP2 SSTORE PUSH1 0xA0 SWAP10 DUP11 ADD MLOAD PUSH1 0x5 SWAP1 SWAP10 ADD DUP1 SLOAD SWAP10 ISZERO ISZERO SWAP10 SWAP1 SWAP4 AND SWAP9 SWAP1 SWAP9 OR SWAP1 SWAP2 SSTORE DUP4 MLOAD PUSH2 0x100 DUP2 ADD DUP6 MSTORE PUSH1 0x8 PUSH1 0xC0 DUP3 ADD SWAP1 DUP2 MSTORE PUSH8 0x10985B185B98D959 PUSH1 0xC2 SHL PUSH1 0xE0 DUP4 ADD MSTORE DUP2 MSTORE PUSH2 0x1F4 DUP2 DUP9 ADD MSTORE PUSH7 0xB1A2BC2EC50000 SWAP5 DUP2 ADD SWAP5 SWAP1 SWAP5 MSTORE SWAP1 DUP4 ADD DUP5 SWAP1 MSTORE PUSH1 0x0 SWAP1 DUP4 ADD DUP2 SWAP1 MSTORE SWAP6 DUP3 ADD SWAP3 SWAP1 SWAP3 MSTORE SWAP4 MSTORE MSTORE DUP1 MLOAD PUSH32 0x91DA3FD0782E51C6B3986E9E672FD566868E71F3DBC2D6C2CD6FBB3E361AF2A7 SWAP1 DUP2 SWAP1 PUSH3 0x32D SWAP1 DUP3 PUSH3 0x618 JUMP JUMPDEST POP PUSH1 0x20 DUP3 DUP2 ADD MLOAD PUSH1 0x1 DUP1 DUP5 ADD SWAP2 SWAP1 SWAP2 SSTORE PUSH1 0x40 DUP1 DUP6 ADD MLOAD PUSH1 0x2 DUP6 ADD SSTORE PUSH1 0x60 DUP1 DUP7 ADD MLOAD PUSH1 0x3 DUP1 DUP8 ADD DUP1 SLOAD SWAP3 ISZERO ISZERO PUSH1 0xFF NOT SWAP4 DUP5 AND OR SWAP1 SSTORE PUSH1 0x80 DUP1 DUP10 ADD MLOAD PUSH1 0x4 DUP1 DUP11 ADD SWAP2 SWAP1 SWAP2 SSTORE PUSH1 0xA0 SWAP10 DUP11 ADD MLOAD PUSH1 0x5 SWAP1 SWAP10 ADD DUP1 SLOAD SWAP10 ISZERO ISZERO SWAP10 SWAP1 SWAP5 AND SWAP9 SWAP1 SWAP9 OR SWAP1 SWAP3 SSTORE DUP4 MLOAD PUSH2 0x100 DUP2 ADD DUP6 MSTORE PUSH1 0xA PUSH1 0xC0 DUP3 ADD SWAP1 DUP2 MSTORE PUSH10 0x41676772657373697665 PUSH1 0xB0 SHL PUSH1 0xE0 DUP4 ADD MSTORE DUP2 MSTORE PUSH1 0xFA DUP2 DUP9 ADD MSTORE PUSH7 0x2386F26FC10000 SWAP5 DUP2 ADD SWAP5 SWAP1 SWAP5 MSTORE SWAP2 DUP4 ADD DUP5 SWAP1 MSTORE PUSH1 0x0 SWAP1 DUP4 ADD DUP2 SWAP1 MSTORE SWAP6 DUP3 ADD SWAP3 SWAP1 SWAP3 MSTORE SWAP4 MSTORE MSTORE DUP1 MLOAD PUSH32 0x2E174C10E159EA99B867CE3205125C24A42D128804E4070ED6FCC8CC98166AA0 SWAP1 DUP2 SWAP1 PUSH3 0x411 SWAP1 DUP3 PUSH3 0x618 JUMP JUMPDEST POP PUSH1 0x20 DUP3 ADD MLOAD PUSH1 0x1 DUP3 ADD SSTORE PUSH1 0x40 DUP3 ADD MLOAD PUSH1 0x2 DUP3 ADD SSTORE PUSH1 0x60 DUP3 ADD MLOAD PUSH1 0x3 DUP3 ADD DUP1 SLOAD SWAP2 ISZERO ISZERO PUSH1 0xFF NOT SWAP3 DUP4 AND OR SWAP1 SSTORE PUSH1 0x80 DUP4 ADD MLOAD PUSH1 0x4 DUP1 DUP5 ADD SWAP2 SWAP1 SWAP2 SSTORE PUSH1 0xA0 SWAP1 SWAP4 ADD MLOAD PUSH1 0x5 SWAP1 SWAP3 ADD DUP1 SLOAD SWAP3 ISZERO ISZERO SWAP3 SWAP1 SWAP2 AND SWAP2 SWAP1 SWAP2 OR SWAP1 SSTORE PUSH1 0x6 SSTORE JUMP JUMPDEST DUP3 DUP1 SLOAD DUP3 DUP3 SSTORE SWAP1 PUSH1 0x0 MSTORE PUSH1 0x20 PUSH1 0x0 KECCAK256 SWAP1 DUP2 ADD SWAP3 DUP3 ISZERO PUSH3 0x4B5 JUMPI SWAP2 PUSH1 0x20 MUL DUP3 ADD JUMPDEST DUP3 DUP2 GT ISZERO PUSH3 0x4B5 JUMPI DUP3 MLOAD DUP3 SWAP1 PUSH3 0x4A4 SWAP1 DUP3 PUSH3 0x618 JUMP JUMPDEST POP SWAP2 PUSH1 0x20 ADD SWAP2 SWAP1 PUSH1 0x1 ADD SWAP1 PUSH3 0x48B JUMP JUMPDEST POP PUSH3 0x4C3 SWAP3 SWAP2 POP PUSH3 0x4C7 JUMP JUMPDEST POP SWAP1 JUMP JUMPDEST DUP1 DUP3 GT ISZERO PUSH3 0x4C3 JUMPI PUSH1 0x0 PUSH3 0x4DE DUP3 DUP3 PUSH3 0x4E8 JUMP JUMPDEST POP PUSH1 0x1 ADD PUSH3 0x4C7 JUMP JUMPDEST POP DUP1 SLOAD PUSH3 0x4F6 SWAP1 PUSH3 0x589 JUMP JUMPDEST PUSH1 0x0 DUP3 SSTORE DUP1 PUSH1 0x1F LT PUSH3 0x507 JUMPI POP POP JUMP JUMPDEST PUSH1 0x1F ADD PUSH1 0x20 SWAP1 DIV SWAP1 PUSH1 0x0 MSTORE PUSH1 0x20 PUSH1 0x0 KECCAK256 SWAP1 DUP2 ADD SWAP1 PUSH3 0x527 SWAP2 SWAP1 PUSH3 0x52A JUMP JUMPDEST POP JUMP JUMPDEST JUMPDEST DUP1 DUP3 GT ISZERO PUSH3 0x4C3 JUMPI PUSH1 0x0 DUP2 SSTORE PUSH1 0x1 ADD PUSH3 0x52B JUMP JUMPDEST PUSH1 0x0 PUSH1 0x20 DUP3 DUP5 SUB SLT ISZERO PUSH3 0x554 JUMPI PUSH1 0x0 DUP1 REVERT JUMPDEST DUP2 MLOAD PUSH1 0x1 PUSH1 0x1 PUSH1 0xA0 SHL SUB DUP2 AND DUP2 EQ PUSH3 0x56C JUMPI PUSH1 0x0 DUP1 REVERT JUMPDEST SWAP4 SWAP3 POP POP POP JUMP JUMPDEST PUSH4 0x4E487B71 PUSH1 0xE0 SHL PUSH1 0x0 MSTORE PUSH1 0x41 PUSH1 0x4 MSTORE PUSH1 0x24 PUSH1 0x0 REVERT JUMPDEST PUSH1 0x1 DUP2 DUP2 SHR SWAP1 DUP3 AND DUP1 PUSH3 0x59E JUMPI PUSH1 0x7F DUP3 AND SWAP2 POP JUMPDEST PUSH1 0x20 DUP3 LT DUP2 SUB PUSH3 0x5BF JUMPI PUSH4 0x4E487B71 PUSH1 0xE0 SHL PUSH1 0x0 MSTORE PUSH1 0x22 PUSH1 0x4 MSTORE PUSH1 0x24 PUSH1 0x0 REVERT JUMPDEST POP SWAP2 SWAP1 POP JUMP JUMPDEST PUSH1 0x1F DUP3 GT ISZERO PUSH3 0x613 JUMPI PUSH1 0x0 DUP2 DUP2 MSTORE PUSH1 0x20 DUP2 KECCAK256 PUSH1 0x1F DUP6 ADD PUSH1 0x5 SHR DUP2 ADD PUSH1 0x20 DUP7 LT ISZERO PUSH3 0x5EE JUMPI POP DUP1 JUMPDEST PUSH1 0x1F DUP6 ADD PUSH1 0x5 SHR DUP3 ADD SWAP2 POP JUMPDEST DUP2 DUP2 LT ISZERO PUSH3 0x60F JUMPI DUP3 DUP2 SSTORE PUSH1 0x1 ADD PUSH3 0x5FA JUMP JUMPDEST POP POP POP JUMPDEST POP POP POP JUMP JUMPDEST DUP2 MLOAD PUSH1 0x1 PUSH1 0x1 PUSH1 0x40 SHL SUB DUP2 GT ISZERO PUSH3 0x634 JUMPI PUSH3 0x634 PUSH3 0x573 JUMP JUMPDEST PUSH3 0x64C DUP2 PUSH3 0x645 DUP5 SLOAD PUSH3 0x589 JUMP JUMPDEST DUP5 PUSH3 0x5C5 JUMP JUMPDEST PUSH1 0x20 DUP1 PUSH1 0x1F DUP4 GT PUSH1 0x1 DUP2 EQ PUSH3 0x684 JUMPI PUSH1 0x0 DUP5 ISZERO PUSH3 0x66B JUMPI POP DUP6 DUP4 ADD MLOAD JUMPDEST PUSH1 0x0 NOT PUSH1 0x3 DUP7 SWAP1 SHL SHR NOT AND PUSH1 0x1 DUP6 SWAP1 SHL OR DUP6 SSTORE PUSH3 0x60F JUMP JUMPDEST PUSH1 0x0 DUP6 DUP2 MSTORE PUSH1 0x20 DUP2 KECCAK256 PUSH1 0x1F NOT DUP7 AND SWAP2 JUMPDEST DUP3 DUP2 LT ISZERO PUSH3 0x6B5 JUMPI DUP9 DUP7 ADD MLOAD DUP3 SSTORE SWAP5 DUP5 ADD SWAP5 PUSH1 0x1 SWAP1 SWAP2 ADD SWAP1 DUP5 ADD PUSH3 0x694 JUMP JUMPDEST POP DUP6 DUP3 LT ISZERO PUSH3 0x6D4 JUMPI DUP8 DUP6 ADD MLOAD PUSH1 0x0 NOT PUSH1 0x3 DUP9 SWAP1 SHL PUSH1 0xF8 AND SHR NOT AND DUP2 SSTORE JUMPDEST POP POP POP POP POP PUSH1 0x1 SWAP1 DUP2 SHL ADD SWAP1 SSTORE POP JUMP JUMPDEST PUSH2 0x21E2 DUP1 PUSH3 0x6F4 PUSH1 0x0 CODECOPY PUSH1 0x0 RETURN INVALID PUSH1 0x80 PUSH1 0x40 MSTORE CALLVALUE DUP1 ISZERO PUSH2 0x10 JUMPI PUSH1 0x0 DUP1 REVERT JUMPDEST POP PUSH1 0x4 CALLDATASIZE LT PUSH2 0x158 JUMPI PUSH1 0x0 CALLDATALOAD PUSH1 0xE0 SHR DUP1 PUSH4 0x87788782 GT PUSH2 0xC3 JUMPI DUP1 PUSH4 0xCFC0CC34 GT PUSH2 0x7C JUMPI DUP1 PUSH4 0xCFC0CC34 EQ PUSH2 0x346 JUMPI DUP1 PUSH4 0xD574EA3D EQ PUSH2 0x366 JUMPI DUP1 PUSH4 0xE84354C5 EQ PUSH2 0x379 JUMPI DUP1 PUSH4 0xE8981330 EQ PUSH2 0x382 JUMPI DUP1 PUSH4 0xED9FE48A EQ PUSH2 0x395 JUMPI DUP1 PUSH4 0xF2FDE38B EQ PUSH2 0x39E JUMPI PUSH1 0x0 DUP1 REVERT JUMPDEST DUP1 PUSH4 0x87788782 EQ PUSH2 0x298 JUMPI DUP1 PUSH4 0x8DA5CB5B EQ PUSH2 0x2A1 JUMPI DUP1 PUSH4 0x99D8E033 EQ PUSH2 0x2B2 JUMPI DUP1 PUSH4 0xB61920C1 EQ PUSH2 0x2BB JUMPI DUP1 PUSH4 0xB63F19BB EQ PUSH2 0x314 JUMPI DUP1 PUSH4 0xC59D4847 EQ PUSH2 0x337 JUMPI PUSH1 0x0 DUP1 REVERT JUMPDEST DUP1 PUSH4 0x4D20061C GT PUSH2 0x115 JUMPI DUP1 PUSH4 0x4D20061C EQ PUSH2 0x22C JUMPI DUP1 PUSH4 0x4DB25FF5 EQ PUSH2 0x23F JUMPI DUP1 PUSH4 0x56A21DA5 EQ PUSH2 0x252 JUMPI DUP1 PUSH4 0x6134F098 EQ PUSH2 0x25B JUMPI DUP1 PUSH4 0x715018A6 EQ PUSH2 0x27B JUMPI DUP1 PUSH4 0x7697F9C9 EQ PUSH2 0x283 JUMPI PUSH1 0x0 DUP1 REVERT JUMPDEST DUP1 PUSH4 0x185F8447 EQ PUSH2 0x15D JUMPI DUP1 PUSH4 0x1A3075CC EQ PUSH2 0x179 JUMPI DUP1 PUSH4 0x1EDB27E9 EQ PUSH2 0x1A3 JUMPI DUP1 PUSH4 0x2D4056E6 EQ PUSH2 0x1C7 JUMPI DUP1 PUSH4 0x46904840 EQ PUSH2 0x1DC JUMPI DUP1 PUSH4 0x487BB965 EQ PUSH2 0x207 JUMPI JUMPDEST PUSH1 0x0 DUP1 REVERT JUMPDEST PUSH2 0x166 PUSH1 0x6 SLOAD DUP2 JUMP JUMPDEST PUSH1 0x40 MLOAD SWAP1 DUP2 MSTORE PUSH1 0x20 ADD JUMPDEST PUSH1 0x40 MLOAD DUP1 SWAP2 SUB SWAP1 RETURN JUMPDEST PUSH2 0x18C PUSH2 0x187 CALLDATASIZE PUSH1 0x4 PUSH2 0x1A5E JUMP JUMPDEST PUSH2 0x3B1 JUMP JUMPDEST PUSH1 0x40 DUP1 MLOAD SWAP3 ISZERO ISZERO DUP4 MSTORE PUSH1 0x20 DUP4 ADD SWAP2 SWAP1 SWAP2 MSTORE ADD PUSH2 0x170 JUMP JUMPDEST PUSH2 0x1B6 PUSH2 0x1B1 CALLDATASIZE PUSH1 0x4 PUSH2 0x1A5E JUMP JUMPDEST PUSH2 0x5C3 JUMP JUMPDEST PUSH1 0x40 MLOAD PUSH2 0x170 SWAP6 SWAP5 SWAP4 SWAP3 SWAP2 SWAP1 PUSH2 0x1A80 JUMP JUMPDEST PUSH2 0x1DA PUSH2 0x1D5 CALLDATASIZE PUSH1 0x4 PUSH2 0x1B12 JUMP JUMPDEST PUSH2 0x6AE JUMP JUMPDEST STOP JUMPDEST PUSH1 0xC SLOAD PUSH2 0x1EF SWAP1 PUSH1 0x1 PUSH1 0x1 PUSH1 0xA0 SHL SUB AND DUP2 JUMP JUMPDEST PUSH1 0x40 MLOAD PUSH1 0x1 PUSH1 0x1 PUSH1 0xA0 SHL SUB SWAP1 SWAP2 AND DUP2 MSTORE PUSH1 0x20 ADD PUSH2 0x170 JUMP JUMPDEST PUSH2 0x21A PUSH2 0x215 CALLDATASIZE PUSH1 0x4 PUSH2 0x1A5E JUMP JUMPDEST PUSH2 0x702 JUMP JUMPDEST PUSH1 0x40 MLOAD PUSH2 0x170 SWAP7 SWAP6 SWAP5 SWAP4 SWAP3 SWAP2 SWAP1 PUSH2 0x1B71 JUMP JUMPDEST PUSH2 0x166 PUSH2 0x23A CALLDATASIZE PUSH1 0x4 PUSH2 0x1CF8 JUMP JUMPDEST PUSH2 0x7C5 JUMP JUMPDEST PUSH2 0x1DA PUSH2 0x24D CALLDATASIZE PUSH1 0x4 PUSH2 0x1DDA JUMP JUMPDEST PUSH2 0xB33 JUMP JUMPDEST PUSH2 0x166 PUSH1 0x7 SLOAD DUP2 JUMP JUMPDEST PUSH2 0x26E PUSH2 0x269 CALLDATASIZE PUSH1 0x4 PUSH2 0x1B12 JUMP JUMPDEST PUSH2 0xC69 JUMP JUMPDEST PUSH1 0x40 MLOAD PUSH2 0x170 SWAP2 SWAP1 PUSH2 0x1E16 JUMP JUMPDEST PUSH2 0x1DA PUSH2 0xD15 JUMP JUMPDEST PUSH2 0x28B PUSH2 0xD29 JUMP JUMPDEST PUSH1 0x40 MLOAD PUSH2 0x170 SWAP2 SWAP1 PUSH2 0x1E29 JUMP JUMPDEST PUSH2 0x166 PUSH1 0xB SLOAD DUP2 JUMP JUMPDEST PUSH1 0x0 SLOAD PUSH1 0x1 PUSH1 0x1 PUSH1 0xA0 SHL SUB AND PUSH2 0x1EF JUMP JUMPDEST PUSH2 0x166 PUSH1 0x8 SLOAD DUP2 JUMP JUMPDEST PUSH2 0x2F4 PUSH2 0x2C9 CALLDATASIZE PUSH1 0x4 PUSH2 0x1A5E JUMP JUMPDEST PUSH1 0x2 PUSH1 0x20 DUP2 SWAP1 MSTORE PUSH1 0x0 SWAP2 DUP3 MSTORE PUSH1 0x40 SWAP1 SWAP2 KECCAK256 PUSH1 0x1 DUP2 ADD SLOAD SWAP2 DUP2 ADD SLOAD PUSH1 0x3 DUP3 ADD SLOAD PUSH1 0x4 SWAP1 SWAP3 ADD SLOAD SWAP1 SWAP2 SWAP1 DUP5 JUMP JUMPDEST PUSH1 0x40 DUP1 MLOAD SWAP5 DUP6 MSTORE PUSH1 0x20 DUP6 ADD SWAP4 SWAP1 SWAP4 MSTORE SWAP2 DUP4 ADD MSTORE PUSH1 0x60 DUP3 ADD MSTORE PUSH1 0x80 ADD PUSH2 0x170 JUMP JUMPDEST PUSH2 0x327 PUSH2 0x322 CALLDATASIZE PUSH1 0x4 PUSH2 0x1E8B JUMP JUMPDEST PUSH2 0xE02 JUMP JUMPDEST PUSH1 0x40 MLOAD PUSH2 0x170 SWAP5 SWAP4 SWAP3 SWAP2 SWAP1 PUSH2 0x1EB5 JUMP JUMPDEST PUSH1 0x7 SLOAD PUSH1 0x8 SLOAD PUSH1 0x3 PUSH1 0x0 PUSH2 0x2F4 JUMP JUMPDEST PUSH2 0x359 PUSH2 0x354 CALLDATASIZE PUSH1 0x4 PUSH2 0x1B12 JUMP JUMPDEST PUSH2 0xEE1 JUMP JUMPDEST PUSH1 0x40 MLOAD PUSH2 0x170 SWAP2 SWAP1 PUSH2 0x1EF2 JUMP JUMPDEST PUSH2 0x21A PUSH2 0x374 CALLDATASIZE PUSH1 0x4 PUSH2 0x1B12 JUMP JUMPDEST PUSH2 0x100D JUMP JUMPDEST PUSH2 0x166 PUSH1 0xA SLOAD DUP2 JUMP JUMPDEST PUSH2 0x1DA PUSH2 0x390 CALLDATASIZE PUSH1 0x4 PUSH2 0x1B12 JUMP JUMPDEST PUSH2 0x1028 JUMP JUMPDEST PUSH2 0x166 PUSH1 0x9 SLOAD DUP2 JUMP JUMPDEST PUSH2 0x1DA PUSH2 0x3AC CALLDATASIZE PUSH1 0x4 PUSH2 0x1A5E JUMP JUMPDEST PUSH2 0x107F JUMP JUMPDEST PUSH1 0x0 DUP1 PUSH2 0x3BC PUSH2 0x10BD JUMP JUMPDEST PUSH1 0x1 PUSH1 0x1 PUSH1 0xA0 SHL SUB DUP4 AND PUSH2 0x40E JUMPI PUSH1 0x40 MLOAD PUSH3 0x461BCD PUSH1 0xE5 SHL DUP2 MSTORE PUSH1 0x20 PUSH1 0x4 DUP3 ADD MSTORE PUSH1 0x14 PUSH1 0x24 DUP3 ADD MSTORE PUSH20 0x496E76616C696420757365722061646472657373 PUSH1 0x60 SHL PUSH1 0x44 DUP3 ADD MSTORE PUSH1 0x64 ADD JUMPDEST PUSH1 0x40 MLOAD DUP1 SWAP2 SUB SWAP1 REVERT JUMPDEST PUSH1 0x1 PUSH1 0x1 PUSH1 0xA0 SHL SUB DUP4 AND PUSH1 0x0 SWAP1 DUP2 MSTORE PUSH1 0x2 PUSH1 0x20 MSTORE PUSH1 0x40 SWAP1 KECCAK256 DUP1 SLOAD PUSH2 0x469 JUMPI PUSH1 0x40 MLOAD PUSH3 0x461BCD PUSH1 0xE5 SHL DUP2 MSTORE PUSH1 0x20 PUSH1 0x4 DUP3 ADD MSTORE PUSH1 0x12 PUSH1 0x24 DUP3 ADD MSTORE PUSH18 0x139BC81C1BDC9D199BDB1A5BC8199BDD5B99 PUSH1 0x72 SHL PUSH1 0x44 DUP3 ADD MSTORE PUSH1 0x64 ADD PUSH2 0x405 JUMP JUMPDEST PUSH2 0x472 DUP5 PUSH2 0x10E7 JUMP JUMPDEST PUSH1 0x0 DUP1 PUSH1 0x0 PUSH2 0x480 DUP8 PUSH2 0x12AF JUMP JUMPDEST SWAP3 POP SWAP3 POP SWAP3 POP DUP3 PUSH2 0x49D JUMPI POP POP POP PUSH1 0x1 ADD SLOAD PUSH1 0x0 SWAP3 POP SWAP1 POP PUSH2 0x5B5 JUMP JUMPDEST PUSH1 0x0 PUSH2 0x4A8 DUP9 PUSH2 0x14CD JUMP JUMPDEST SWAP1 POP PUSH1 0x0 PUSH2 0x4B6 DUP10 DUP4 PUSH2 0x17F7 JUMP JUMPDEST TIMESTAMP PUSH1 0x3 DUP9 ADD SSTORE PUSH1 0x4 DUP8 ADD DUP1 SLOAD SWAP2 SWAP3 POP PUSH1 0x0 PUSH2 0x4D0 DUP4 PUSH2 0x1F66 JUMP JUMPDEST SWAP1 SWAP2 SSTORE POP POP PUSH1 0x7 DUP1 SLOAD SWAP1 PUSH1 0x0 PUSH2 0x4E5 DUP4 PUSH2 0x1F66 JUMP JUMPDEST SWAP2 SWAP1 POP SSTORE POP DUP1 PUSH1 0x8 PUSH1 0x0 DUP3 DUP3 SLOAD PUSH2 0x4FC SWAP2 SWAP1 PUSH2 0x1F7F JUMP JUMPDEST SWAP3 POP POP DUP2 SWAP1 SSTORE POP DUP9 PUSH1 0x1 PUSH1 0x1 PUSH1 0xA0 SHL SUB AND PUSH32 0x3110B03EF03BD708AEB360C1F0ECB53E226F0B3A3CC368472818E0930BD63CAA DUP5 DUP7 PUSH1 0x9 SLOAD TIMESTAMP PUSH1 0x40 MLOAD PUSH2 0x544 SWAP5 SWAP4 SWAP3 SWAP2 SWAP1 PUSH2 0x1F92 JUMP JUMPDEST PUSH1 0x40 MLOAD DUP1 SWAP2 SUB SWAP1 LOG2 PUSH1 0x1 DUP7 ADD SLOAD PUSH1 0x40 DUP1 MLOAD SWAP2 DUP3 MSTORE PUSH1 0x20 DUP3 ADD DUP4 SWAP1 MSTORE PUSH1 0x0 SWAP1 DUP3 ADD MSTORE TIMESTAMP PUSH1 0x60 DUP3 ADD MSTORE PUSH1 0x1 PUSH1 0x1 PUSH1 0xA0 SHL SUB DUP11 AND SWAP1 PUSH32 0xE5FFCA7635C15018A8F1C00B9BCFF53757466BEE397B8F646266D6E001D8FAEC SWAP1 PUSH1 0x80 ADD PUSH1 0x40 MLOAD DUP1 SWAP2 SUB SWAP1 LOG2 PUSH1 0x1 DUP7 PUSH1 0x1 ADD SLOAD SWAP8 POP SWAP8 POP POP POP POP POP POP POP JUMPDEST PUSH2 0x5BE PUSH1 0x1 DUP1 SSTORE JUMP JUMPDEST SWAP2 POP SWAP2 JUMP JUMPDEST PUSH1 0x60 PUSH1 0x0 DUP1 PUSH1 0x0 DUP1 PUSH1 0x0 PUSH1 0x2 PUSH1 0x0 DUP9 PUSH1 0x1 PUSH1 0x1 PUSH1 0xA0 SHL SUB AND PUSH1 0x1 PUSH1 0x1 PUSH1 0xA0 SHL SUB AND DUP2 MSTORE PUSH1 0x20 ADD SWAP1 DUP2 MSTORE PUSH1 0x20 ADD PUSH1 0x0 KECCAK256 SWAP1 POP DUP1 PUSH1 0x0 ADD DUP2 PUSH1 0x1 ADD SLOAD DUP3 PUSH1 0x2 ADD SLOAD DUP4 PUSH1 0x3 ADD SLOAD DUP5 PUSH1 0x4 ADD SLOAD DUP5 DUP1 SLOAD DUP1 PUSH1 0x20 MUL PUSH1 0x20 ADD PUSH1 0x40 MLOAD SWAP1 DUP2 ADD PUSH1 0x40 MSTORE DUP1 SWAP3 SWAP2 SWAP1 DUP2 DUP2 MSTORE PUSH1 0x20 ADD PUSH1 0x0 SWAP1 JUMPDEST DUP3 DUP3 LT ISZERO PUSH2 0x694 JUMPI PUSH1 0x0 DUP5 DUP2 MSTORE PUSH1 0x20 SWAP1 DUP2 SWAP1 KECCAK256 PUSH1 0x40 DUP1 MLOAD PUSH1 0xA0 DUP2 ADD DUP3 MSTORE PUSH1 0x5 DUP7 MUL SWAP1 SWAP3 ADD DUP1 SLOAD PUSH1 0x1 PUSH1 0x1 PUSH1 0xA0 SHL SUB AND DUP4 MSTORE PUSH1 0x1 DUP1 DUP3 ADD SLOAD DUP5 DUP7 ADD MSTORE PUSH1 0x2 DUP3 ADD SLOAD SWAP3 DUP5 ADD SWAP3 SWAP1 SWAP3 MSTORE PUSH1 0x3 DUP2 ADD SLOAD PUSH1 0x60 DUP5 ADD MSTORE PUSH1 0x4 ADD SLOAD PUSH1 0x80 DUP4 ADD MSTORE SWAP1 DUP4 MSTORE SWAP1 SWAP3 ADD SWAP2 ADD PUSH2 0x62D JUMP JUMPDEST POP POP POP POP SWAP5 POP SWAP6 POP SWAP6 POP SWAP6 POP SWAP6 POP SWAP6 POP POP SWAP2 SWAP4 SWAP6 SWAP1 SWAP3 SWAP5 POP JUMP JUMPDEST PUSH2 0x6B6 PUSH2 0x18F3 JUMP JUMPDEST PUSH2 0x1388 DUP2 GT ISZERO PUSH2 0x6FD JUMPI PUSH1 0x40 MLOAD PUSH3 0x461BCD PUSH1 0xE5 SHL DUP2 MSTORE PUSH1 0x20 PUSH1 0x4 DUP3 ADD MSTORE PUSH1 0x12 PUSH1 0x24 DUP3 ADD MSTORE PUSH18 0xA8D0E4CAE6D0DED8C840E8DEDE40D0D2CED PUSH1 0x73 SHL PUSH1 0x44 DUP3 ADD MSTORE PUSH1 0x64 ADD PUSH2 0x405 JUMP JUMPDEST PUSH1 0x9 SSTORE JUMP JUMPDEST PUSH1 0x3 PUSH1 0x20 MSTORE PUSH1 0x0 SWAP1 DUP2 MSTORE PUSH1 0x40 SWAP1 KECCAK256 DUP1 SLOAD DUP2 SWAP1 PUSH2 0x71D SWAP1 PUSH2 0x1FC1 JUMP JUMPDEST DUP1 PUSH1 0x1F ADD PUSH1 0x20 DUP1 SWAP2 DIV MUL PUSH1 0x20 ADD PUSH1 0x40 MLOAD SWAP1 DUP2 ADD PUSH1 0x40 MSTORE DUP1 SWAP3 SWAP2 SWAP1 DUP2 DUP2 MSTORE PUSH1 0x20 ADD DUP3 DUP1 SLOAD PUSH2 0x749 SWAP1 PUSH2 0x1FC1 JUMP JUMPDEST DUP1 ISZERO PUSH2 0x796 JUMPI DUP1 PUSH1 0x1F LT PUSH2 0x76B JUMPI PUSH2 0x100 DUP1 DUP4 SLOAD DIV MUL DUP4 MSTORE SWAP2 PUSH1 0x20 ADD SWAP2 PUSH2 0x796 JUMP JUMPDEST DUP3 ADD SWAP2 SWAP1 PUSH1 0x0 MSTORE PUSH1 0x20 PUSH1 0x0 KECCAK256 SWAP1 JUMPDEST DUP2 SLOAD DUP2 MSTORE SWAP1 PUSH1 0x1 ADD SWAP1 PUSH1 0x20 ADD DUP1 DUP4 GT PUSH2 0x779 JUMPI DUP3 SWAP1 SUB PUSH1 0x1F AND DUP3 ADD SWAP2 JUMPDEST POP POP POP PUSH1 0x1 DUP5 ADD SLOAD PUSH1 0x2 DUP6 ADD SLOAD PUSH1 0x3 DUP7 ADD SLOAD PUSH1 0x4 DUP8 ADD SLOAD PUSH1 0x5 SWAP1 SWAP8 ADD SLOAD SWAP6 SWAP7 SWAP3 SWAP6 SWAP2 SWAP5 POP PUSH1 0xFF SWAP1 DUP2 AND SWAP4 POP AND DUP7 JUMP JUMPDEST PUSH1 0x0 PUSH1 0x1 PUSH1 0x1 PUSH1 0xA0 SHL SUB DUP7 AND PUSH2 0x814 JUMPI PUSH1 0x40 MLOAD PUSH3 0x461BCD PUSH1 0xE5 SHL DUP2 MSTORE PUSH1 0x20 PUSH1 0x4 DUP3 ADD MSTORE PUSH1 0x14 PUSH1 0x24 DUP3 ADD MSTORE PUSH20 0x496E76616C696420757365722061646472657373 PUSH1 0x60 SHL PUSH1 0x44 DUP3 ADD MSTORE PUSH1 0x64 ADD PUSH2 0x405 JUMP JUMPDEST PUSH1 0x0 DUP5 MLOAD GT PUSH2 0x865 JUMPI PUSH1 0x40 MLOAD PUSH3 0x461BCD PUSH1 0xE5 SHL DUP2 MSTORE PUSH1 0x20 PUSH1 0x4 DUP3 ADD MSTORE PUSH1 0x17 PUSH1 0x24 DUP3 ADD MSTORE PUSH32 0x4E6F20616C6C6F636174696F6E732070726F7669646564000000000000000000 PUSH1 0x44 DUP3 ADD MSTORE PUSH1 0x64 ADD PUSH2 0x405 JUMP JUMPDEST PUSH2 0x1388 DUP4 GT ISZERO PUSH2 0x8AC JUMPI PUSH1 0x40 MLOAD PUSH3 0x461BCD PUSH1 0xE5 SHL DUP2 MSTORE PUSH1 0x20 PUSH1 0x4 DUP3 ADD MSTORE PUSH1 0x12 PUSH1 0x24 DUP3 ADD MSTORE PUSH18 0xA8D0E4CAE6D0DED8C840E8DEDE40D0D2CED PUSH1 0x73 SHL PUSH1 0x44 DUP3 ADD MSTORE PUSH1 0x64 ADD PUSH2 0x405 JUMP JUMPDEST PUSH1 0x0 DUP1 JUMPDEST DUP6 MLOAD DUP2 LT ISZERO PUSH2 0x8F6 JUMPI DUP6 DUP2 DUP2 MLOAD DUP2 LT PUSH2 0x8CB JUMPI PUSH2 0x8CB PUSH2 0x1FFB JUMP JUMPDEST PUSH1 0x20 MUL PUSH1 0x20 ADD ADD MLOAD PUSH1 0x20 ADD MLOAD DUP3 PUSH2 0x8E2 SWAP2 SWAP1 PUSH2 0x1F7F JUMP JUMPDEST SWAP2 POP DUP1 PUSH2 0x8EE DUP2 PUSH2 0x1F66 JUMP JUMPDEST SWAP2 POP POP PUSH2 0x8B0 JUMP JUMPDEST POP DUP1 PUSH2 0x2710 EQ PUSH2 0x948 JUMPI PUSH1 0x40 MLOAD PUSH3 0x461BCD PUSH1 0xE5 SHL DUP2 MSTORE PUSH1 0x20 PUSH1 0x4 DUP3 ADD MSTORE PUSH1 0x1C PUSH1 0x24 DUP3 ADD MSTORE PUSH32 0x416C6C6F636174696F6E73206D7573742073756D20746F203130302500000000 PUSH1 0x44 DUP3 ADD MSTORE PUSH1 0x64 ADD PUSH2 0x405 JUMP JUMPDEST PUSH1 0x6 DUP1 SLOAD SWAP1 PUSH1 0x0 PUSH2 0x958 DUP4 PUSH2 0x1F66 JUMP JUMPDEST SWAP1 SWAP2 SSTORE POP PUSH1 0x40 DUP1 MLOAD PUSH1 0xC0 DUP2 ADD DUP3 MSTORE DUP9 DUP2 MSTORE PUSH1 0x20 DUP1 DUP3 ADD DUP9 SWAP1 MSTORE PUSH1 0xA SLOAD DUP3 DUP5 ADD MSTORE DUP7 ISZERO ISZERO PUSH1 0x60 DUP4 ADD MSTORE PUSH1 0x0 PUSH1 0x80 DUP4 ADD DUP2 SWAP1 MSTORE PUSH1 0x1 PUSH1 0xA0 DUP5 ADD MSTORE DUP5 DUP2 MSTORE PUSH1 0x4 SWAP1 SWAP2 MSTORE SWAP2 SWAP1 SWAP2 KECCAK256 DUP2 MLOAD SWAP3 SWAP5 POP SWAP1 SWAP2 DUP2 SWAP1 PUSH2 0x9AF SWAP1 DUP3 PUSH2 0x205F JUMP JUMPDEST POP PUSH1 0x20 DUP3 DUP2 ADD MLOAD PUSH1 0x1 DUP4 ADD SSTORE PUSH1 0x40 DUP1 DUP5 ADD MLOAD PUSH1 0x2 DUP1 DUP6 ADD SWAP2 SWAP1 SWAP2 SSTORE PUSH1 0x60 DUP6 ADD MLOAD PUSH1 0x3 DUP1 DUP7 ADD DUP1 SLOAD SWAP3 ISZERO ISZERO PUSH1 0xFF NOT SWAP4 DUP5 AND OR SWAP1 SSTORE PUSH1 0x80 DUP8 ADD MLOAD PUSH1 0x4 DUP1 DUP9 ADD SWAP2 SWAP1 SWAP2 SSTORE PUSH1 0xA0 SWAP1 SWAP8 ADD MLOAD PUSH1 0x5 SWAP1 SWAP7 ADD DUP1 SLOAD SWAP7 ISZERO ISZERO SWAP7 SWAP1 SWAP3 AND SWAP6 SWAP1 SWAP6 OR SWAP1 SSTORE PUSH1 0x1 PUSH1 0x1 PUSH1 0xA0 SHL SUB DUP13 AND PUSH1 0x0 SWAP1 DUP2 MSTORE SWAP3 DUP2 SWAP1 MSTORE SWAP1 DUP3 KECCAK256 SWAP1 DUP2 ADD DUP7 SWAP1 SSTORE TIMESTAMP SWAP3 DUP2 ADD SWAP3 SWAP1 SWAP3 SSTORE SWAP2 DUP2 ADD DUP3 SWAP1 SSTORE SWAP1 PUSH2 0xA40 SWAP1 DUP3 SWAP1 PUSH2 0x19E7 JUMP JUMPDEST PUSH1 0x0 JUMPDEST DUP7 MLOAD DUP2 LT ISZERO PUSH2 0xAE2 JUMPI DUP2 PUSH1 0x0 ADD DUP8 DUP3 DUP2 MLOAD DUP2 LT PUSH2 0xA62 JUMPI PUSH2 0xA62 PUSH2 0x1FFB JUMP JUMPDEST PUSH1 0x20 SWAP1 DUP2 MUL SWAP2 SWAP1 SWAP2 ADD DUP2 ADD MLOAD DUP3 SLOAD PUSH1 0x1 DUP1 DUP3 ADD DUP6 SSTORE PUSH1 0x0 SWAP5 DUP6 MSTORE SWAP4 DUP4 SWAP1 KECCAK256 DUP3 MLOAD PUSH1 0x5 SWAP1 SWAP3 MUL ADD DUP1 SLOAD PUSH1 0x1 PUSH1 0x1 PUSH1 0xA0 SHL SUB NOT AND PUSH1 0x1 PUSH1 0x1 PUSH1 0xA0 SHL SUB SWAP1 SWAP3 AND SWAP2 SWAP1 SWAP2 OR DUP2 SSTORE SWAP2 DUP2 ADD MLOAD SWAP3 DUP3 ADD SWAP3 SWAP1 SWAP3 SSTORE PUSH1 0x40 DUP3 ADD MLOAD PUSH1 0x2 DUP3 ADD SSTORE PUSH1 0x60 DUP3 ADD MLOAD PUSH1 0x3 DUP3 ADD SSTORE PUSH1 0x80 SWAP1 SWAP2 ADD MLOAD PUSH1 0x4 SWAP1 SWAP2 ADD SSTORE DUP1 PUSH2 0xADA DUP2 PUSH2 0x1F66 JUMP JUMPDEST SWAP2 POP POP PUSH2 0xA43 JUMP JUMPDEST POP DUP8 PUSH1 0x1 PUSH1 0x1 PUSH1 0xA0 SHL SUB AND PUSH32 0x5C8602A0E23955009355E7EC887C1E553C8BEDCCE7AF464B25DB093B376CA880 DUP9 DUP6 TIMESTAMP PUSH1 0x40 MLOAD PUSH2 0xB20 SWAP4 SWAP3 SWAP2 SWAP1 PUSH2 0x211F JUMP JUMPDEST PUSH1 0x40 MLOAD DUP1 SWAP2 SUB SWAP1 LOG2 POP POP SWAP6 SWAP5 POP POP POP POP POP JUMP JUMPDEST PUSH1 0x1 PUSH1 0x1 PUSH1 0xA0 SHL SUB DUP4 AND PUSH1 0x0 SWAP1 DUP2 MSTORE PUSH1 0x2 PUSH1 0x20 MSTORE PUSH1 0x40 DUP2 KECCAK256 SWAP1 JUMPDEST DUP2 SLOAD DUP2 LT ISZERO PUSH2 0xC62 JUMPI DUP4 PUSH1 0x1 PUSH1 0x1 PUSH1 0xA0 SHL SUB AND DUP3 PUSH1 0x0 ADD DUP3 DUP2 SLOAD DUP2 LT PUSH2 0xB75 JUMPI PUSH2 0xB75 PUSH2 0x1FFB JUMP JUMPDEST PUSH1 0x0 SWAP2 DUP3 MSTORE PUSH1 0x20 SWAP1 SWAP2 KECCAK256 PUSH1 0x5 SWAP1 SWAP2 MUL ADD SLOAD PUSH1 0x1 PUSH1 0x1 PUSH1 0xA0 SHL SUB AND SUB PUSH2 0xC50 JUMPI PUSH1 0x0 DUP3 PUSH1 0x0 ADD DUP3 DUP2 SLOAD DUP2 LT PUSH2 0xBAB JUMPI PUSH2 0xBAB PUSH2 0x1FFB JUMP JUMPDEST SWAP1 PUSH1 0x0 MSTORE PUSH1 0x20 PUSH1 0x0 KECCAK256 SWAP1 PUSH1 0x5 MUL ADD PUSH1 0x1 ADD SLOAD SWAP1 POP DUP4 DUP4 PUSH1 0x0 ADD DUP4 DUP2 SLOAD DUP2 LT PUSH2 0xBD5 JUMPI PUSH2 0xBD5 PUSH2 0x1FFB JUMP JUMPDEST SWAP1 PUSH1 0x0 MSTORE PUSH1 0x20 PUSH1 0x0 KECCAK256 SWAP1 PUSH1 0x5 MUL ADD PUSH1 0x1 ADD DUP2 SWAP1 SSTORE POP DUP5 PUSH1 0x1 PUSH1 0x1 PUSH1 0xA0 SHL SUB AND DUP7 PUSH1 0x1 PUSH1 0x1 PUSH1 0xA0 SHL SUB AND PUSH32 0xB8F9CAF334715ABC50B6D762F8C52640B8DFEAA8698FDF15BD65F7026CC50F2 DUP4 DUP8 TIMESTAMP PUSH1 0x40 MLOAD PUSH2 0xC42 SWAP4 SWAP3 SWAP2 SWAP1 SWAP3 DUP4 MSTORE PUSH1 0x20 DUP4 ADD SWAP2 SWAP1 SWAP2 MSTORE PUSH1 0x40 DUP3 ADD MSTORE PUSH1 0x60 ADD SWAP1 JUMP JUMPDEST PUSH1 0x40 MLOAD DUP1 SWAP2 SUB SWAP1 LOG3 POP PUSH2 0xC62 JUMP JUMPDEST DUP1 PUSH2 0xC5A DUP2 PUSH2 0x1F66 JUMP JUMPDEST SWAP2 POP POP PUSH2 0xB4D JUMP JUMPDEST POP POP POP POP POP JUMP JUMPDEST PUSH1 0xD DUP2 DUP2 SLOAD DUP2 LT PUSH2 0xC79 JUMPI PUSH1 0x0 DUP1 REVERT JUMPDEST SWAP1 PUSH1 0x0 MSTORE PUSH1 0x20 PUSH1 0x0 KECCAK256 ADD PUSH1 0x0 SWAP2 POP SWAP1 POP DUP1 SLOAD PUSH2 0xC94 SWAP1 PUSH2 0x1FC1 JUMP JUMPDEST DUP1 PUSH1 0x1F ADD PUSH1 0x20 DUP1 SWAP2 DIV MUL PUSH1 0x20 ADD PUSH1 0x40 MLOAD SWAP1 DUP2 ADD PUSH1 0x40 MSTORE DUP1 SWAP3 SWAP2 SWAP1 DUP2 DUP2 MSTORE PUSH1 0x20 ADD DUP3 DUP1 SLOAD PUSH2 0xCC0 SWAP1 PUSH2 0x1FC1 JUMP JUMPDEST DUP1 ISZERO PUSH2 0xD0D JUMPI DUP1 PUSH1 0x1F LT PUSH2 0xCE2 JUMPI PUSH2 0x100 DUP1 DUP4 SLOAD DIV MUL DUP4 MSTORE SWAP2 PUSH1 0x20 ADD SWAP2 PUSH2 0xD0D JUMP JUMPDEST DUP3 ADD SWAP2 SWAP1 PUSH1 0x0 MSTORE PUSH1 0x20 PUSH1 0x0 KECCAK256 SWAP1 JUMPDEST DUP2 SLOAD DUP2 MSTORE SWAP1 PUSH1 0x1 ADD SWAP1 PUSH1 0x20 ADD DUP1 DUP4 GT PUSH2 0xCF0 JUMPI DUP3 SWAP1 SUB PUSH1 0x1F AND DUP3 ADD SWAP2 JUMPDEST POP POP POP POP POP DUP2 JUMP JUMPDEST PUSH2 0xD1D PUSH2 0x18F3 JUMP JUMPDEST PUSH2 0xD27 PUSH1 0x0 PUSH2 0x1920 JUMP JUMPDEST JUMP JUMPDEST PUSH1 0x60 PUSH1 0xD DUP1 SLOAD DUP1 PUSH1 0x20 MUL PUSH1 0x20 ADD PUSH1 0x40 MLOAD SWAP1 DUP2 ADD PUSH1 0x40 MSTORE DUP1 SWAP3 SWAP2 SWAP1 DUP2 DUP2 MSTORE PUSH1 0x20 ADD PUSH1 0x0 SWAP1 JUMPDEST DUP3 DUP3 LT ISZERO PUSH2 0xDF9 JUMPI DUP4 DUP3 SWAP1 PUSH1 0x0 MSTORE PUSH1 0x20 PUSH1 0x0 KECCAK256 ADD DUP1 SLOAD PUSH2 0xD6C SWAP1 PUSH2 0x1FC1 JUMP JUMPDEST DUP1 PUSH1 0x1F ADD PUSH1 0x20 DUP1 SWAP2 DIV MUL PUSH1 0x20 ADD PUSH1 0x40 MLOAD SWAP1 DUP2 ADD PUSH1 0x40 MSTORE DUP1 SWAP3 SWAP2 SWAP1 DUP2 DUP2 MSTORE PUSH1 0x20 ADD DUP3 DUP1 SLOAD PUSH2 0xD98 SWAP1 PUSH2 0x1FC1 JUMP JUMPDEST DUP1 ISZERO PUSH2 0xDE5 JUMPI DUP1 PUSH1 0x1F LT PUSH2 0xDBA JUMPI PUSH2 0x100 DUP1 DUP4 SLOAD DIV MUL DUP4 MSTORE SWAP2 PUSH1 0x20 ADD SWAP2 PUSH2 0xDE5 JUMP JUMPDEST DUP3 ADD SWAP2 SWAP1 PUSH1 0x0 MSTORE PUSH1 0x20 PUSH1 0x0 KECCAK256 SWAP1 JUMPDEST DUP2 SLOAD DUP2 MSTORE SWAP1 PUSH1 0x1 ADD SWAP1 PUSH1 0x20 ADD DUP1 DUP4 GT PUSH2 0xDC8 JUMPI DUP3 SWAP1 SUB PUSH1 0x1F AND DUP3 ADD SWAP2 JUMPDEST POP POP POP POP POP DUP2 MSTORE PUSH1 0x20 ADD SWAP1 PUSH1 0x1 ADD SWAP1 PUSH2 0xD4D JUMP JUMPDEST POP POP POP POP SWAP1 POP SWAP1 JUMP JUMPDEST PUSH1 0x5 PUSH1 0x20 MSTORE DUP2 PUSH1 0x0 MSTORE PUSH1 0x40 PUSH1 0x0 KECCAK256 DUP2 DUP2 SLOAD DUP2 LT PUSH2 0xE1E JUMPI PUSH1 0x0 DUP1 REVERT JUMPDEST PUSH1 0x0 SWAP2 DUP3 MSTORE PUSH1 0x20 SWAP1 SWAP2 KECCAK256 PUSH1 0x4 SWAP1 SWAP2 MUL ADD DUP1 SLOAD PUSH1 0x1 DUP3 ADD SLOAD PUSH1 0x2 DUP4 ADD SLOAD PUSH1 0x3 DUP5 ADD DUP1 SLOAD PUSH1 0x1 PUSH1 0x1 PUSH1 0xA0 SHL SUB SWAP5 DUP6 AND SWAP8 POP SWAP4 SWAP1 SWAP3 AND SWAP5 POP SWAP3 SWAP2 PUSH2 0xE5E SWAP1 PUSH2 0x1FC1 JUMP JUMPDEST DUP1 PUSH1 0x1F ADD PUSH1 0x20 DUP1 SWAP2 DIV MUL PUSH1 0x20 ADD PUSH1 0x40 MLOAD SWAP1 DUP2 ADD PUSH1 0x40 MSTORE DUP1 SWAP3 SWAP2 SWAP1 DUP2 DUP2 MSTORE PUSH1 0x20 ADD DUP3 DUP1 SLOAD PUSH2 0xE8A SWAP1 PUSH2 0x1FC1 JUMP JUMPDEST DUP1 ISZERO PUSH2 0xED7 JUMPI DUP1 PUSH1 0x1F LT PUSH2 0xEAC JUMPI PUSH2 0x100 DUP1 DUP4 SLOAD DIV MUL DUP4 MSTORE SWAP2 PUSH1 0x20 ADD SWAP2 PUSH2 0xED7 JUMP JUMPDEST DUP3 ADD SWAP2 SWAP1 PUSH1 0x0 MSTORE PUSH1 0x20 PUSH1 0x0 KECCAK256 SWAP1 JUMPDEST DUP2 SLOAD DUP2 MSTORE SWAP1 PUSH1 0x1 ADD SWAP1 PUSH1 0x20 ADD DUP1 DUP4 GT PUSH2 0xEBA JUMPI DUP3 SWAP1 SUB PUSH1 0x1F AND DUP3 ADD SWAP2 JUMPDEST POP POP POP POP POP SWAP1 POP DUP5 JUMP JUMPDEST PUSH2 0xF1E PUSH1 0x40 MLOAD DUP1 PUSH1 0xC0 ADD PUSH1 0x40 MSTORE DUP1 PUSH1 0x60 DUP2 MSTORE PUSH1 0x20 ADD PUSH1 0x0 DUP2 MSTORE PUSH1 0x20 ADD PUSH1 0x0 DUP2 MSTORE PUSH1 0x20 ADD PUSH1 0x0 ISZERO ISZERO DUP2 MSTORE PUSH1 0x20 ADD PUSH1 0x0 DUP2 MSTORE PUSH1 0x20 ADD PUSH1 0x0 ISZERO ISZERO DUP2 MSTORE POP SWAP1 JUMP JUMPDEST PUSH1 0x0 DUP3 DUP2 MSTORE PUSH1 0x4 PUSH1 0x20 MSTORE PUSH1 0x40 SWAP1 DUP2 SWAP1 KECCAK256 DUP2 MLOAD PUSH1 0xC0 DUP2 ADD SWAP1 SWAP3 MSTORE DUP1 SLOAD DUP3 SWAP1 DUP3 SWAP1 PUSH2 0xF46 SWAP1 PUSH2 0x1FC1 JUMP JUMPDEST DUP1 PUSH1 0x1F ADD PUSH1 0x20 DUP1 SWAP2 DIV MUL PUSH1 0x20 ADD PUSH1 0x40 MLOAD SWAP1 DUP2 ADD PUSH1 0x40 MSTORE DUP1 SWAP3 SWAP2 SWAP1 DUP2 DUP2 MSTORE PUSH1 0x20 ADD DUP3 DUP1 SLOAD PUSH2 0xF72 SWAP1 PUSH2 0x1FC1 JUMP JUMPDEST DUP1 ISZERO PUSH2 0xFBF JUMPI DUP1 PUSH1 0x1F LT PUSH2 0xF94 JUMPI PUSH2 0x100 DUP1 DUP4 SLOAD DIV MUL DUP4 MSTORE SWAP2 PUSH1 0x20 ADD SWAP2 PUSH2 0xFBF JUMP JUMPDEST DUP3 ADD SWAP2 SWAP1 PUSH1 0x0 MSTORE PUSH1 0x20 PUSH1 0x0 KECCAK256 SWAP1 JUMPDEST DUP2 SLOAD DUP2 MSTORE SWAP1 PUSH1 0x1 ADD SWAP1 PUSH1 0x20 ADD DUP1 DUP4 GT PUSH2 0xFA2 JUMPI DUP3 SWAP1 SUB PUSH1 0x1F AND DUP3 ADD SWAP2 JUMPDEST POP POP POP SWAP2 DUP4 MSTORE POP POP PUSH1 0x1 DUP3 ADD SLOAD PUSH1 0x20 DUP3 ADD MSTORE PUSH1 0x2 DUP3 ADD SLOAD PUSH1 0x40 DUP3 ADD MSTORE PUSH1 0x3 DUP3 ADD SLOAD PUSH1 0xFF SWAP1 DUP2 AND ISZERO ISZERO PUSH1 0x60 DUP4 ADD MSTORE PUSH1 0x4 DUP4 ADD SLOAD PUSH1 0x80 DUP4 ADD MSTORE PUSH1 0x5 SWAP1 SWAP3 ADD SLOAD SWAP1 SWAP2 AND ISZERO ISZERO PUSH1 0xA0 SWAP1 SWAP2 ADD MSTORE SWAP3 SWAP2 POP POP JUMP JUMPDEST PUSH1 0x4 PUSH1 0x20 MSTORE PUSH1 0x0 SWAP1 DUP2 MSTORE PUSH1 0x40 SWAP1 KECCAK256 DUP1 SLOAD DUP2 SWAP1 PUSH2 0x71D SWAP1 PUSH2 0x1FC1 JUMP JUMPDEST PUSH2 0x1030 PUSH2 0x18F3 JUMP JUMPDEST PUSH2 0x3E8 DUP2 GT ISZERO PUSH2 0x107A JUMPI PUSH1 0x40 MLOAD PUSH3 0x461BCD PUSH1 0xE5 SHL DUP2 MSTORE PUSH1 0x20 PUSH1 0x4 DUP3 ADD MSTORE PUSH1 0x15 PUSH1 0x24 DUP3 ADD MSTORE PUSH21 0x4665652063616E6E6F742065786365656420313025 PUSH1 0x58 SHL PUSH1 0x44 DUP3 ADD MSTORE PUSH1 0x64 ADD PUSH2 0x405 JUMP JUMPDEST PUSH1 0xB SSTORE JUMP JUMPDEST PUSH2 0x1087 PUSH2 0x18F3 JUMP JUMPDEST PUSH1 0x1 PUSH1 0x1 PUSH1 0xA0 SHL SUB DUP2 AND PUSH2 0x10B1 JUMPI PUSH1 0x40 MLOAD PUSH4 0x1E4FBDF7 PUSH1 0xE0 SHL DUP2 MSTORE PUSH1 0x0 PUSH1 0x4 DUP3 ADD MSTORE PUSH1 0x24 ADD PUSH2 0x405 JUMP JUMPDEST PUSH2 0x10BA DUP2 PUSH2 0x1920 JUMP JUMPDEST POP JUMP JUMPDEST PUSH1 0x2 PUSH1 0x1 SLOAD SUB PUSH2 0x10E0 JUMPI PUSH1 0x40 MLOAD PUSH4 0x3EE5AEB5 PUSH1 0xE0 SHL DUP2 MSTORE PUSH1 0x4 ADD PUSH1 0x40 MLOAD DUP1 SWAP2 SUB SWAP1 REVERT JUMPDEST PUSH1 0x2 PUSH1 0x1 SSTORE JUMP JUMPDEST PUSH1 0x1 PUSH1 0x1 PUSH1 0xA0 SHL SUB DUP2 AND PUSH1 0x0 SWAP1 DUP2 MSTORE PUSH1 0x2 PUSH1 0x20 MSTORE PUSH1 0x40 DUP2 KECCAK256 SWAP1 DUP1 JUMPDEST DUP3 SLOAD DUP2 LT ISZERO PUSH2 0x1190 JUMPI PUSH1 0x0 PUSH2 0x1144 DUP5 PUSH1 0x0 ADD DUP4 DUP2 SLOAD DUP2 LT PUSH2 0x1125 JUMPI PUSH2 0x1125 PUSH2 0x1FFB JUMP JUMPDEST PUSH1 0x0 SWAP2 DUP3 MSTORE PUSH1 0x20 SWAP1 SWAP2 KECCAK256 PUSH1 0x5 SWAP1 SWAP2 MUL ADD SLOAD PUSH1 0x1 PUSH1 0x1 PUSH1 0xA0 SHL SUB AND PUSH2 0x1970 JUMP JUMPDEST SWAP1 POP DUP1 DUP5 PUSH1 0x0 ADD DUP4 DUP2 SLOAD DUP2 LT PUSH2 0x115C JUMPI PUSH2 0x115C PUSH2 0x1FFB JUMP JUMPDEST PUSH1 0x0 SWAP2 DUP3 MSTORE PUSH1 0x20 SWAP1 SWAP2 KECCAK256 PUSH1 0x3 PUSH1 0x5 SWAP1 SWAP3 MUL ADD ADD SSTORE PUSH2 0x117A DUP2 DUP5 PUSH2 0x1F7F JUMP JUMPDEST SWAP3 POP POP DUP1 DUP1 PUSH2 0x1188 SWAP1 PUSH2 0x1F66 JUMP JUMPDEST SWAP2 POP POP PUSH2 0x1102 JUMP JUMPDEST POP PUSH1 0x1 DUP3 ADD DUP2 SWAP1 SSTORE DUP1 ISZERO PUSH2 0x12AA JUMPI PUSH1 0x0 JUMPDEST DUP3 SLOAD DUP2 LT ISZERO PUSH2 0x12A8 JUMPI PUSH1 0x0 DUP3 DUP5 PUSH1 0x0 ADD DUP4 DUP2 SLOAD DUP2 LT PUSH2 0x11C2 JUMPI PUSH2 0x11C2 PUSH2 0x1FFB JUMP JUMPDEST SWAP1 PUSH1 0x0 MSTORE PUSH1 0x20 PUSH1 0x0 KECCAK256 SWAP1 PUSH1 0x5 MUL ADD PUSH1 0x3 ADD SLOAD PUSH2 0x2710 PUSH2 0x11E1 SWAP2 SWAP1 PUSH2 0x2144 JUMP JUMPDEST PUSH2 0x11EB SWAP2 SWAP1 PUSH2 0x2171 JUMP JUMPDEST SWAP1 POP DUP1 DUP5 PUSH1 0x0 ADD DUP4 DUP2 SLOAD DUP2 LT PUSH2 0x1203 JUMPI PUSH2 0x1203 PUSH2 0x1FFB JUMP JUMPDEST SWAP1 PUSH1 0x0 MSTORE PUSH1 0x20 PUSH1 0x0 KECCAK256 SWAP1 PUSH1 0x5 MUL ADD PUSH1 0x2 ADD DUP2 SWAP1 SSTORE POP PUSH1 0x0 DUP5 PUSH1 0x0 ADD DUP4 DUP2 SLOAD DUP2 LT PUSH2 0x122F JUMPI PUSH2 0x122F PUSH2 0x1FFB JUMP JUMPDEST SWAP1 PUSH1 0x0 MSTORE PUSH1 0x20 PUSH1 0x0 KECCAK256 SWAP1 PUSH1 0x5 MUL ADD PUSH1 0x1 ADD SLOAD SWAP1 POP PUSH1 0x0 DUP2 DUP4 GT PUSH2 0x125B JUMPI PUSH2 0x1256 DUP4 DUP4 PUSH2 0x2185 JUMP JUMPDEST PUSH2 0x1265 JUMP JUMPDEST PUSH2 0x1265 DUP3 DUP5 PUSH2 0x2185 JUMP JUMPDEST SWAP1 POP DUP1 DUP7 PUSH1 0x0 ADD DUP6 DUP2 SLOAD DUP2 LT PUSH2 0x127D JUMPI PUSH2 0x127D PUSH2 0x1FFB JUMP JUMPDEST SWAP1 PUSH1 0x0 MSTORE PUSH1 0x20 PUSH1 0x0 KECCAK256 SWAP1 PUSH1 0x5 MUL ADD PUSH1 0x4 ADD DUP2 SWAP1 SSTORE POP POP POP POP DUP1 DUP1 PUSH2 0x12A0 SWAP1 PUSH2 0x1F66 JUMP JUMPDEST SWAP2 POP POP PUSH2 0x11A1 JUMP JUMPDEST POP JUMPDEST POP POP POP JUMP JUMPDEST PUSH1 0x1 PUSH1 0x1 PUSH1 0xA0 SHL SUB DUP2 AND PUSH1 0x0 SWAP1 DUP2 MSTORE PUSH1 0x2 PUSH1 0x20 DUP2 DUP2 MSTORE PUSH1 0x40 DUP1 DUP5 KECCAK256 SWAP3 DUP4 ADD SLOAD DUP5 MSTORE PUSH1 0x4 SWAP1 SWAP2 MSTORE DUP3 KECCAK256 PUSH1 0x5 DUP2 ADD SLOAD DUP4 SWAP3 PUSH1 0x60 SWAP3 SWAP1 SWAP2 PUSH1 0xFF AND PUSH2 0x1324 JUMPI PUSH1 0x0 DUP1 PUSH1 0x40 MLOAD DUP1 PUSH1 0x40 ADD PUSH1 0x40 MSTORE DUP1 PUSH1 0x11 DUP2 MSTORE PUSH1 0x20 ADD PUSH17 0x537472617465677920696E616374697665 PUSH1 0x78 SHL DUP2 MSTORE POP SWAP5 POP SWAP5 POP SWAP5 POP POP POP PUSH2 0x14C6 JUMP JUMPDEST PUSH3 0x278D00 DUP3 PUSH1 0x3 ADD SLOAD TIMESTAMP PUSH2 0x1338 SWAP2 SWAP1 PUSH2 0x2185 JUMP JUMPDEST GT ISZERO PUSH2 0x1379 JUMPI PUSH1 0x1 PUSH1 0x0 PUSH1 0x40 MLOAD DUP1 PUSH1 0x40 ADD PUSH1 0x40 MSTORE DUP1 PUSH1 0x11 DUP2 MSTORE PUSH1 0x20 ADD PUSH17 0x4D6F6E74686C7920726562616C616E6365 PUSH1 0x78 SHL DUP2 MSTORE POP SWAP5 POP SWAP5 POP SWAP5 POP POP POP PUSH2 0x14C6 JUMP JUMPDEST PUSH1 0x0 SWAP4 POP PUSH1 0x0 JUMPDEST DUP3 SLOAD DUP2 LT ISZERO PUSH2 0x13F3 JUMPI DUP5 DUP4 PUSH1 0x0 ADD DUP3 DUP2 SLOAD DUP2 LT PUSH2 0x139F JUMPI PUSH2 0x139F PUSH2 0x1FFB JUMP JUMPDEST SWAP1 PUSH1 0x0 MSTORE PUSH1 0x20 PUSH1 0x0 KECCAK256 SWAP1 PUSH1 0x5 MUL ADD PUSH1 0x4 ADD SLOAD GT ISZERO PUSH2 0x13E1 JUMPI DUP3 PUSH1 0x0 ADD DUP2 DUP2 SLOAD DUP2 LT PUSH2 0x13CC JUMPI PUSH2 0x13CC PUSH2 0x1FFB JUMP JUMPDEST SWAP1 PUSH1 0x0 MSTORE PUSH1 0x20 PUSH1 0x0 KECCAK256 SWAP1 PUSH1 0x5 MUL ADD PUSH1 0x4 ADD SLOAD SWAP5 POP JUMPDEST DUP1 PUSH2 0x13EB DUP2 PUSH2 0x1F66 JUMP JUMPDEST SWAP2 POP POP PUSH2 0x1380 JUMP JUMPDEST POP DUP1 PUSH1 0x1 ADD SLOAD DUP5 LT PUSH2 0x1440 JUMPI POP POP PUSH1 0x40 DUP1 MLOAD DUP1 DUP3 ADD SWAP1 SWAP2 MSTORE PUSH1 0x1C DUP2 MSTORE PUSH32 0x446576696174696F6E207468726573686F6C6420657863656564656400000000 PUSH1 0x20 DUP3 ADD MSTORE PUSH1 0x1 SWAP4 POP SWAP1 POP PUSH2 0x14C6 JUMP JUMPDEST DUP1 PUSH1 0x2 ADD SLOAD DUP3 PUSH1 0x1 ADD SLOAD LT ISZERO PUSH2 0x1491 JUMPI POP POP PUSH1 0x40 DUP1 MLOAD DUP1 DUP3 ADD SWAP1 SWAP2 MSTORE PUSH1 0x1E DUP2 MSTORE PUSH32 0x42656C6F77206D696E696D756D20726562616C616E636520616D6F756E740000 PUSH1 0x20 DUP3 ADD MSTORE PUSH1 0x0 SWAP4 POP SWAP1 POP PUSH2 0x14C6 JUMP JUMPDEST POP POP PUSH1 0x40 DUP1 MLOAD DUP1 DUP3 ADD SWAP1 SWAP2 MSTORE PUSH1 0x15 DUP2 MSTORE PUSH21 0x139BC81C9958985B185B98DA5B99C81B9959591959 PUSH1 0x5A SHL PUSH1 0x20 DUP3 ADD MSTORE PUSH1 0x0 SWAP4 POP SWAP1 POP JUMPDEST SWAP2 SWAP4 SWAP1 SWAP3 POP JUMP JUMPDEST PUSH1 0x1 PUSH1 0x1 PUSH1 0xA0 SHL SUB DUP2 AND PUSH1 0x0 SWAP1 DUP2 MSTORE PUSH1 0x2 PUSH1 0x20 DUP2 SWAP1 MSTORE PUSH1 0x40 DUP3 KECCAK256 DUP1 SLOAD PUSH1 0x60 SWAP4 SWAP2 SWAP3 PUSH2 0x14F8 SWAP2 SWAP1 PUSH2 0x2144 JUMP JUMPDEST PUSH8 0xFFFFFFFFFFFFFFFF DUP2 GT ISZERO PUSH2 0x1510 JUMPI PUSH2 0x1510 PUSH2 0x1BAF JUMP JUMPDEST PUSH1 0x40 MLOAD SWAP1 DUP1 DUP3 MSTORE DUP1 PUSH1 0x20 MUL PUSH1 0x20 ADD DUP3 ADD PUSH1 0x40 MSTORE DUP1 ISZERO PUSH2 0x1561 JUMPI DUP2 PUSH1 0x20 ADD JUMPDEST PUSH1 0x40 DUP1 MLOAD PUSH1 0x80 DUP2 ADD DUP3 MSTORE PUSH1 0x0 DUP1 DUP3 MSTORE PUSH1 0x20 DUP1 DUP4 ADD DUP3 SWAP1 MSTORE SWAP3 DUP3 ADD MSTORE PUSH1 0x60 DUP1 DUP3 ADD MSTORE DUP3 MSTORE PUSH1 0x0 NOT SWAP1 SWAP3 ADD SWAP2 ADD DUP2 PUSH2 0x152E JUMPI SWAP1 POP JUMPDEST POP SWAP1 POP PUSH1 0x0 DUP1 JUMPDEST DUP4 SLOAD DUP2 LT ISZERO PUSH2 0x1728 JUMPI PUSH1 0x0 DUP5 PUSH1 0x0 ADD DUP3 DUP2 SLOAD DUP2 LT PUSH2 0x1588 JUMPI PUSH2 0x1588 PUSH2 0x1FFB JUMP JUMPDEST SWAP1 PUSH1 0x0 MSTORE PUSH1 0x20 PUSH1 0x0 KECCAK256 SWAP1 PUSH1 0x5 MUL ADD SWAP1 POP DUP1 PUSH1 0x1 ADD SLOAD DUP2 PUSH1 0x2 ADD SLOAD GT ISZERO PUSH2 0x1659 JUMPI PUSH1 0x0 PUSH2 0x2710 DUP7 PUSH1 0x1 ADD SLOAD DUP4 PUSH1 0x1 ADD SLOAD DUP5 PUSH1 0x2 ADD SLOAD PUSH2 0x15C6 SWAP2 SWAP1 PUSH2 0x2185 JUMP JUMPDEST PUSH2 0x15D0 SWAP2 SWAP1 PUSH2 0x2144 JUMP JUMPDEST PUSH2 0x15DA SWAP2 SWAP1 PUSH2 0x2171 JUMP JUMPDEST PUSH1 0x40 DUP1 MLOAD PUSH1 0x80 DUP2 ADD DUP3 MSTORE DUP5 SLOAD PUSH1 0x1 PUSH1 0x1 PUSH1 0xA0 SHL SUB AND DUP2 MSTORE PUSH1 0x0 PUSH1 0x20 DUP1 DUP4 ADD SWAP2 SWAP1 SWAP2 MSTORE DUP2 DUP4 ADD DUP5 SWAP1 MSTORE DUP3 MLOAD DUP1 DUP5 ADD SWAP1 SWAP4 MSTORE PUSH1 0x4 DUP4 MSTORE PUSH4 0x14D15313 PUSH1 0xE2 SHL SWAP1 DUP4 ADD MSTORE PUSH1 0x60 DUP2 ADD SWAP2 SWAP1 SWAP2 MSTORE DUP7 MLOAD SWAP2 SWAP3 POP SWAP1 DUP7 SWAP1 DUP7 SWAP1 DUP2 LT PUSH2 0x163A JUMPI PUSH2 0x163A PUSH2 0x1FFB JUMP JUMPDEST PUSH1 0x20 MUL PUSH1 0x20 ADD ADD DUP2 SWAP1 MSTORE POP DUP4 DUP1 PUSH2 0x1650 SWAP1 PUSH2 0x1F66 JUMP JUMPDEST SWAP5 POP POP POP PUSH2 0x1715 JUMP JUMPDEST DUP1 PUSH1 0x1 ADD SLOAD DUP2 PUSH1 0x2 ADD SLOAD LT ISZERO PUSH2 0x1715 JUMPI PUSH1 0x0 PUSH2 0x2710 DUP7 PUSH1 0x1 ADD SLOAD DUP4 PUSH1 0x2 ADD SLOAD DUP5 PUSH1 0x1 ADD SLOAD PUSH2 0x1687 SWAP2 SWAP1 PUSH2 0x2185 JUMP JUMPDEST PUSH2 0x1691 SWAP2 SWAP1 PUSH2 0x2144 JUMP JUMPDEST PUSH2 0x169B SWAP2 SWAP1 PUSH2 0x2171 JUMP JUMPDEST PUSH1 0x40 DUP1 MLOAD PUSH1 0x80 DUP2 ADD DUP3 MSTORE PUSH1 0x0 DUP2 MSTORE DUP5 SLOAD PUSH1 0x1 PUSH1 0x1 PUSH1 0xA0 SHL SUB AND PUSH1 0x20 DUP1 DUP4 ADD SWAP2 SWAP1 SWAP2 MSTORE DUP2 DUP4 ADD DUP5 SWAP1 MSTORE DUP3 MLOAD DUP1 DUP5 ADD SWAP1 SWAP4 MSTORE PUSH1 0x3 DUP4 MSTORE PUSH3 0x425559 PUSH1 0xE8 SHL SWAP1 DUP4 ADD MSTORE PUSH1 0x60 DUP2 ADD SWAP2 SWAP1 SWAP2 MSTORE DUP7 MLOAD SWAP2 SWAP3 POP SWAP1 DUP7 SWAP1 DUP7 SWAP1 DUP2 LT PUSH2 0x16FA JUMPI PUSH2 0x16FA PUSH2 0x1FFB JUMP JUMPDEST PUSH1 0x20 MUL PUSH1 0x20 ADD ADD DUP2 SWAP1 MSTORE POP DUP4 DUP1 PUSH2 0x1710 SWAP1 PUSH2 0x1F66 JUMP JUMPDEST SWAP5 POP POP POP JUMPDEST POP DUP1 PUSH2 0x1720 DUP2 PUSH2 0x1F66 JUMP JUMPDEST SWAP2 POP POP PUSH2 0x1568 JUMP JUMPDEST POP PUSH1 0x0 DUP2 PUSH8 0xFFFFFFFFFFFFFFFF DUP2 GT ISZERO PUSH2 0x1744 JUMPI PUSH2 0x1744 PUSH2 0x1BAF JUMP JUMPDEST PUSH1 0x40 MLOAD SWAP1 DUP1 DUP3 MSTORE DUP1 PUSH1 0x20 MUL PUSH1 0x20 ADD DUP3 ADD PUSH1 0x40 MSTORE DUP1 ISZERO PUSH2 0x1795 JUMPI DUP2 PUSH1 0x20 ADD JUMPDEST PUSH1 0x40 DUP1 MLOAD PUSH1 0x80 DUP2 ADD DUP3 MSTORE PUSH1 0x0 DUP1 DUP3 MSTORE PUSH1 0x20 DUP1 DUP4 ADD DUP3 SWAP1 MSTORE SWAP3 DUP3 ADD MSTORE PUSH1 0x60 DUP1 DUP3 ADD MSTORE DUP3 MSTORE PUSH1 0x0 NOT SWAP1 SWAP3 ADD SWAP2 ADD DUP2 PUSH2 0x1762 JUMPI SWAP1 POP JUMPDEST POP SWAP1 POP PUSH1 0x0 JUMPDEST DUP3 DUP2 LT ISZERO PUSH2 0x17ED JUMPI DUP4 DUP2 DUP2 MLOAD DUP2 LT PUSH2 0x17B5 JUMPI PUSH2 0x17B5 PUSH2 0x1FFB JUMP JUMPDEST PUSH1 0x20 MUL PUSH1 0x20 ADD ADD MLOAD DUP3 DUP3 DUP2 MLOAD DUP2 LT PUSH2 0x17CF JUMPI PUSH2 0x17CF PUSH2 0x1FFB JUMP JUMPDEST PUSH1 0x20 MUL PUSH1 0x20 ADD ADD DUP2 SWAP1 MSTORE POP DUP1 DUP1 PUSH2 0x17E5 SWAP1 PUSH2 0x1F66 JUMP JUMPDEST SWAP2 POP POP PUSH2 0x179B JUMP JUMPDEST POP SWAP6 SWAP5 POP POP POP POP POP JUMP JUMPDEST PUSH1 0x0 DUP1 JUMPDEST DUP3 MLOAD DUP2 LT ISZERO PUSH2 0x18EB JUMPI DUP3 DUP2 DUP2 MLOAD DUP2 LT PUSH2 0x1816 JUMPI PUSH2 0x1816 PUSH2 0x1FFB JUMP JUMPDEST PUSH1 0x20 MUL PUSH1 0x20 ADD ADD MLOAD PUSH1 0x40 ADD MLOAD DUP3 PUSH2 0x182D SWAP2 SWAP1 PUSH2 0x1F7F JUMP JUMPDEST PUSH1 0x1 PUSH1 0x1 PUSH1 0xA0 SHL SUB DUP6 AND PUSH1 0x0 SWAP1 DUP2 MSTORE PUSH1 0x5 PUSH1 0x20 MSTORE PUSH1 0x40 SWAP1 KECCAK256 DUP5 MLOAD SWAP2 SWAP4 POP SWAP1 DUP5 SWAP1 DUP4 SWAP1 DUP2 LT PUSH2 0x185D JUMPI PUSH2 0x185D PUSH2 0x1FFB JUMP JUMPDEST PUSH1 0x20 SWAP1 DUP2 MUL SWAP2 SWAP1 SWAP2 ADD DUP2 ADD MLOAD DUP3 SLOAD PUSH1 0x1 DUP2 DUP2 ADD DUP6 SSTORE PUSH1 0x0 SWAP5 DUP6 MSTORE SWAP4 DUP4 SWAP1 KECCAK256 DUP3 MLOAD PUSH1 0x4 SWAP1 SWAP3 MUL ADD DUP1 SLOAD PUSH1 0x1 PUSH1 0x1 PUSH1 0xA0 SHL SUB SWAP3 DUP4 AND PUSH1 0x1 PUSH1 0x1 PUSH1 0xA0 SHL SUB NOT SWAP2 DUP3 AND OR DUP3 SSTORE SWAP4 DUP4 ADD MLOAD SWAP5 DUP2 ADD DUP1 SLOAD SWAP6 SWAP1 SWAP3 AND SWAP5 SWAP1 SWAP4 AND SWAP4 SWAP1 SWAP4 OR SWAP1 SWAP3 SSTORE PUSH1 0x40 DUP3 ADD MLOAD PUSH1 0x2 DUP3 ADD SSTORE PUSH1 0x60 DUP3 ADD MLOAD PUSH1 0x3 DUP3 ADD SWAP1 PUSH2 0x18D5 SWAP1 DUP3 PUSH2 0x205F JUMP JUMPDEST POP POP POP DUP1 DUP1 PUSH2 0x18E3 SWAP1 PUSH2 0x1F66 JUMP JUMPDEST SWAP2 POP POP PUSH2 0x17FB JUMP JUMPDEST POP JUMPDEST SWAP3 SWAP2 POP POP JUMP JUMPDEST PUSH1 0x0 SLOAD PUSH1 0x1 PUSH1 0x1 PUSH1 0xA0 SHL SUB AND CALLER EQ PUSH2 0xD27 JUMPI PUSH1 0x40 MLOAD PUSH4 0x118CDAA7 PUSH1 0xE0 SHL DUP2 MSTORE CALLER PUSH1 0x4 DUP3 ADD MSTORE PUSH1 0x24 ADD PUSH2 0x405 JUMP JUMPDEST PUSH1 0x0 DUP1 SLOAD PUSH1 0x1 PUSH1 0x1 PUSH1 0xA0 SHL SUB DUP4 DUP2 AND PUSH1 0x1 PUSH1 0x1 PUSH1 0xA0 SHL SUB NOT DUP4 AND DUP2 OR DUP5 SSTORE PUSH1 0x40 MLOAD SWAP2 SWAP1 SWAP3 AND SWAP3 DUP4 SWAP2 PUSH32 0x8BE0079C531659141344CD1FD0A4F28419497F9722A3DAAFE3B4186F6B6457E0 SWAP2 SWAP1 LOG3 POP POP JUMP JUMPDEST PUSH1 0x40 MLOAD PUSH12 0xFFFFFFFFFFFFFFFFFFFFFFFF NOT PUSH1 0x60 DUP4 SWAP1 SHL AND PUSH1 0x20 DUP3 ADD MSTORE TIMESTAMP PUSH1 0x34 DUP3 ADD MSTORE PUSH1 0x0 SWAP1 PUSH9 0x3635C9ADC5DEA00000 SWAP1 DUP3 SWAP1 PUSH9 0xAD78EBC5AC6200000 SWAP1 PUSH1 0x54 ADD PUSH1 0x40 MLOAD PUSH1 0x20 DUP2 DUP4 SUB SUB DUP2 MSTORE SWAP1 PUSH1 0x40 MSTORE DUP1 MLOAD SWAP1 PUSH1 0x20 ADD KECCAK256 PUSH1 0x0 SHR PUSH2 0x19D3 SWAP2 SWAP1 PUSH2 0x2198 JUMP JUMPDEST SWAP1 POP PUSH2 0x19DF DUP2 DUP4 PUSH2 0x1F7F JUMP JUMPDEST SWAP5 SWAP4 POP POP POP POP JUMP JUMPDEST POP DUP1 SLOAD PUSH1 0x0 DUP3 SSTORE PUSH1 0x5 MUL SWAP1 PUSH1 0x0 MSTORE PUSH1 0x20 PUSH1 0x0 KECCAK256 SWAP1 DUP2 ADD SWAP1 PUSH2 0x10BA SWAP2 SWAP1 JUMPDEST DUP1 DUP3 GT ISZERO PUSH2 0x1A3E JUMPI DUP1 SLOAD PUSH1 0x1 PUSH1 0x1 PUSH1 0xA0 SHL SUB NOT AND DUP2 SSTORE PUSH1 0x0 PUSH1 0x1 DUP3 ADD DUP2 SWAP1 SSTORE PUSH1 0x2 DUP3 ADD DUP2 SWAP1 SSTORE PUSH1 0x3 DUP3 ADD DUP2 SWAP1 SSTORE PUSH1 0x4 DUP3 ADD SSTORE PUSH1 0x5 ADD PUSH2 0x1A04 JUMP JUMPDEST POP SWAP1 JUMP JUMPDEST DUP1 CALLDATALOAD PUSH1 0x1 PUSH1 0x1 PUSH1 0xA0 SHL SUB DUP2 AND DUP2 EQ PUSH2 0x1A59 JUMPI PUSH1 0x0 DUP1 REVERT JUMPDEST SWAP2 SWAP1 POP JUMP JUMPDEST PUSH1 0x0 PUSH1 0x20 DUP3 DUP5 SUB SLT ISZERO PUSH2 0x1A70 JUMPI PUSH1 0x0 DUP1 REVERT JUMPDEST PUSH2 0x1A79 DUP3 PUSH2 0x1A42 JUMP JUMPDEST SWAP4 SWAP3 POP POP POP JUMP JUMPDEST PUSH1 0xA0 DUP1 DUP3 MSTORE DUP7 MLOAD DUP3 DUP3 ADD DUP2 SWAP1 MSTORE PUSH1 0x0 SWAP2 SWAP1 PUSH1 0x20 SWAP1 PUSH1 0xC0 DUP6 ADD SWAP1 DUP3 DUP12 ADD DUP6 JUMPDEST DUP3 DUP2 LT ISZERO PUSH2 0x1AEB JUMPI DUP2 MLOAD DUP1 MLOAD PUSH1 0x1 PUSH1 0x1 PUSH1 0xA0 SHL SUB AND DUP6 MSTORE DUP6 DUP2 ADD MLOAD DUP7 DUP7 ADD MSTORE PUSH1 0x40 DUP1 DUP3 ADD MLOAD SWAP1 DUP7 ADD MSTORE PUSH1 0x60 DUP1 DUP3 ADD MLOAD SWAP1 DUP7 ADD MSTORE PUSH1 0x80 SWAP1 DUP2 ADD MLOAD SWAP1 DUP6 ADD MSTORE SWAP3 DUP6 ADD SWAP3 SWAP1 DUP5 ADD SWAP1 PUSH1 0x1 ADD PUSH2 0x1A9E JUMP JUMPDEST POP POP POP SWAP1 DUP5 ADD SWAP8 SWAP1 SWAP8 MSTORE POP POP PUSH1 0x40 DUP2 ADD SWAP4 SWAP1 SWAP4 MSTORE PUSH1 0x60 DUP4 ADD SWAP2 SWAP1 SWAP2 MSTORE PUSH1 0x80 SWAP1 SWAP2 ADD MSTORE SWAP2 SWAP1 POP JUMP JUMPDEST PUSH1 0x0 PUSH1 0x20 DUP3 DUP5 SUB SLT ISZERO PUSH2 0x1B24 JUMPI PUSH1 0x0 DUP1 REVERT JUMPDEST POP CALLDATALOAD SWAP2 SWAP1 POP JUMP JUMPDEST PUSH1 0x0 DUP2 MLOAD DUP1 DUP5 MSTORE PUSH1 0x0 JUMPDEST DUP2 DUP2 LT ISZERO PUSH2 0x1B51 JUMPI PUSH1 0x20 DUP2 DUP6 ADD DUP2 ADD MLOAD DUP7 DUP4 ADD DUP3 ADD MSTORE ADD PUSH2 0x1B35 JUMP JUMPDEST POP PUSH1 0x0 PUSH1 0x20 DUP3 DUP7 ADD ADD MSTORE PUSH1 0x20 PUSH1 0x1F NOT PUSH1 0x1F DUP4 ADD AND DUP6 ADD ADD SWAP2 POP POP SWAP3 SWAP2 POP POP JUMP JUMPDEST PUSH1 0xC0 DUP2 MSTORE PUSH1 0x0 PUSH2 0x1B84 PUSH1 0xC0 DUP4 ADD DUP10 PUSH2 0x1B2B JUMP JUMPDEST PUSH1 0x20 DUP4 ADD SWAP8 SWAP1 SWAP8 MSTORE POP PUSH1 0x40 DUP2 ADD SWAP5 SWAP1 SWAP5 MSTORE SWAP2 ISZERO ISZERO PUSH1 0x60 DUP5 ADD MSTORE PUSH1 0x80 DUP4 ADD MSTORE ISZERO ISZERO PUSH1 0xA0 SWAP1 SWAP2 ADD MSTORE SWAP2 SWAP1 POP JUMP JUMPDEST PUSH4 0x4E487B71 PUSH1 0xE0 SHL PUSH1 0x0 MSTORE PUSH1 0x41 PUSH1 0x4 MSTORE PUSH1 0x24 PUSH1 0x0 REVERT JUMPDEST PUSH1 0x40 MLOAD PUSH1 0xA0 DUP2 ADD PUSH8 0xFFFFFFFFFFFFFFFF DUP2 GT DUP3 DUP3 LT OR ISZERO PUSH2 0x1BE8 JUMPI PUSH2 0x1BE8 PUSH2 0x1BAF JUMP JUMPDEST PUSH1 0x40 MSTORE SWAP1 JUMP JUMPDEST PUSH1 0x40 MLOAD PUSH1 0x1F DUP3 ADD PUSH1 0x1F NOT AND DUP2 ADD PUSH8 0xFFFFFFFFFFFFFFFF DUP2 GT DUP3 DUP3 LT OR ISZERO PUSH2 0x1C17 JUMPI PUSH2 0x1C17 PUSH2 0x1BAF JUMP JUMPDEST PUSH1 0x40 MSTORE SWAP2 SWAP1 POP JUMP JUMPDEST PUSH1 0x0 DUP3 PUSH1 0x1F DUP4 ADD SLT PUSH2 0x1C30 JUMPI PUSH1 0x0 DUP1 REVERT JUMPDEST DUP2 CALLDATALOAD PUSH1 0x20 PUSH8 0xFFFFFFFFFFFFFFFF DUP3 GT ISZERO PUSH2 0x1C4C JUMPI PUSH2 0x1C4C PUSH2 0x1BAF JUMP JUMPDEST PUSH2 0x1C5A DUP2 DUP4 PUSH1 0x5 SHL ADD PUSH2 0x1BEE JUMP JUMPDEST DUP3 DUP2 MSTORE PUSH1 0xA0 SWAP3 DUP4 MUL DUP6 ADD DUP3 ADD SWAP3 DUP3 DUP3 ADD SWAP2 SWAP1 DUP8 DUP6 GT ISZERO PUSH2 0x1C79 JUMPI PUSH1 0x0 DUP1 REVERT JUMPDEST DUP4 DUP8 ADD JUMPDEST DUP6 DUP2 LT ISZERO PUSH2 0x1CDB JUMPI DUP2 DUP2 DUP11 SUB SLT ISZERO PUSH2 0x1C95 JUMPI PUSH1 0x0 DUP1 DUP2 REVERT JUMPDEST PUSH2 0x1C9D PUSH2 0x1BC5 JUMP JUMPDEST PUSH2 0x1CA6 DUP3 PUSH2 0x1A42 JUMP JUMPDEST DUP2 MSTORE DUP2 DUP7 ADD CALLDATALOAD DUP7 DUP3 ADD MSTORE PUSH1 0x40 DUP1 DUP4 ADD CALLDATALOAD SWAP1 DUP3 ADD MSTORE PUSH1 0x60 DUP1 DUP4 ADD CALLDATALOAD SWAP1 DUP3 ADD MSTORE PUSH1 0x80 DUP1 DUP4 ADD CALLDATALOAD SWAP1 DUP3 ADD MSTORE DUP5 MSTORE SWAP3 DUP5 ADD SWAP3 DUP2 ADD PUSH2 0x1C7D JUMP JUMPDEST POP SWAP1 SWAP8 SWAP7 POP POP POP POP POP POP POP JUMP JUMPDEST DUP1 CALLDATALOAD DUP1 ISZERO ISZERO DUP2 EQ PUSH2 0x1A59 JUMPI PUSH1 0x0 DUP1 REVERT JUMPDEST PUSH1 0x0 DUP1 PUSH1 0x0 DUP1 PUSH1 0x0 PUSH1 0xA0 DUP7 DUP9 SUB SLT ISZERO PUSH2 0x1D10 JUMPI PUSH1 0x0 DUP1 REVERT JUMPDEST PUSH2 0x1D19 DUP7 PUSH2 0x1A42 JUMP JUMPDEST SWAP5 POP PUSH1 0x20 DUP1 DUP8 ADD CALLDATALOAD PUSH8 0xFFFFFFFFFFFFFFFF DUP1 DUP3 GT ISZERO PUSH2 0x1D37 JUMPI PUSH1 0x0 DUP1 REVERT JUMPDEST DUP2 DUP10 ADD SWAP2 POP DUP10 PUSH1 0x1F DUP4 ADD SLT PUSH2 0x1D4B JUMPI PUSH1 0x0 DUP1 REVERT JUMPDEST DUP2 CALLDATALOAD DUP2 DUP2 GT ISZERO PUSH2 0x1D5D JUMPI PUSH2 0x1D5D PUSH2 0x1BAF JUMP JUMPDEST PUSH2 0x1D6F PUSH1 0x1F DUP3 ADD PUSH1 0x1F NOT AND DUP6 ADD PUSH2 0x1BEE JUMP JUMPDEST DUP2 DUP2 MSTORE DUP12 DUP6 DUP4 DUP7 ADD ADD GT ISZERO PUSH2 0x1D83 JUMPI PUSH1 0x0 DUP1 REVERT JUMPDEST DUP2 DUP6 DUP6 ADD DUP7 DUP4 ADD CALLDATACOPY PUSH1 0x0 SWAP2 DUP2 ADD SWAP1 SWAP5 ADD MSTORE SWAP2 SWAP6 POP PUSH1 0x40 DUP9 ADD CALLDATALOAD SWAP2 DUP1 DUP4 GT ISZERO PUSH2 0x1DAA JUMPI PUSH1 0x0 DUP1 REVERT JUMPDEST POP POP PUSH2 0x1DB8 DUP9 DUP3 DUP10 ADD PUSH2 0x1C1F JUMP JUMPDEST SWAP4 POP POP PUSH1 0x60 DUP7 ADD CALLDATALOAD SWAP2 POP PUSH2 0x1DCE PUSH1 0x80 DUP8 ADD PUSH2 0x1CE8 JUMP JUMPDEST SWAP1 POP SWAP3 SWAP6 POP SWAP3 SWAP6 SWAP1 SWAP4 POP JUMP JUMPDEST PUSH1 0x0 DUP1 PUSH1 0x0 PUSH1 0x60 DUP5 DUP7 SUB SLT ISZERO PUSH2 0x1DEF JUMPI PUSH1 0x0 DUP1 REVERT JUMPDEST PUSH2 0x1DF8 DUP5 PUSH2 0x1A42 JUMP JUMPDEST SWAP3 POP PUSH2 0x1E06 PUSH1 0x20 DUP6 ADD PUSH2 0x1A42 JUMP JUMPDEST SWAP2 POP PUSH1 0x40 DUP5 ADD CALLDATALOAD SWAP1 POP SWAP3 POP SWAP3 POP SWAP3 JUMP JUMPDEST PUSH1 0x20 DUP2 MSTORE PUSH1 0x0 PUSH2 0x1A79 PUSH1 0x20 DUP4 ADD DUP5 PUSH2 0x1B2B JUMP JUMPDEST PUSH1 0x0 PUSH1 0x20 DUP1 DUP4 ADD DUP2 DUP5 MSTORE DUP1 DUP6 MLOAD DUP1 DUP4 MSTORE PUSH1 0x40 DUP7 ADD SWAP2 POP PUSH1 0x40 DUP2 PUSH1 0x5 SHL DUP8 ADD ADD SWAP3 POP DUP4 DUP8 ADD PUSH1 0x0 JUMPDEST DUP3 DUP2 LT ISZERO PUSH2 0x1E7E JUMPI PUSH1 0x3F NOT DUP9 DUP7 SUB ADD DUP5 MSTORE PUSH2 0x1E6C DUP6 DUP4 MLOAD PUSH2 0x1B2B JUMP JUMPDEST SWAP5 POP SWAP3 DUP6 ADD SWAP3 SWAP1 DUP6 ADD SWAP1 PUSH1 0x1 ADD PUSH2 0x1E50 JUMP JUMPDEST POP SWAP3 SWAP8 SWAP7 POP POP POP POP POP POP POP JUMP JUMPDEST PUSH1 0x0 DUP1 PUSH1 0x40 DUP4 DUP6 SUB SLT ISZERO PUSH2 0x1E9E JUMPI PUSH1 0x0 DUP1 REVERT JUMPDEST PUSH2 0x1EA7 DUP4 PUSH2 0x1A42 JUMP JUMPDEST SWAP5 PUSH1 0x20 SWAP4 SWAP1 SWAP4 ADD CALLDATALOAD SWAP4 POP POP POP JUMP JUMPDEST PUSH1 0x1 PUSH1 0x1 PUSH1 0xA0 SHL SUB DUP6 DUP2 AND DUP3 MSTORE DUP5 AND PUSH1 0x20 DUP3 ADD MSTORE PUSH1 0x40 DUP2 ADD DUP4 SWAP1 MSTORE PUSH1 0x80 PUSH1 0x60 DUP3 ADD DUP2 SWAP1 MSTORE PUSH1 0x0 SWAP1 PUSH2 0x1EE8 SWAP1 DUP4 ADD DUP5 PUSH2 0x1B2B JUMP JUMPDEST SWAP7 SWAP6 POP POP POP POP POP POP JUMP JUMPDEST PUSH1 0x20 DUP2 MSTORE PUSH1 0x0 DUP3 MLOAD PUSH1 0xC0 PUSH1 0x20 DUP5 ADD MSTORE PUSH2 0x1F0E PUSH1 0xE0 DUP5 ADD DUP3 PUSH2 0x1B2B JUMP JUMPDEST SWAP1 POP PUSH1 0x20 DUP5 ADD MLOAD PUSH1 0x40 DUP5 ADD MSTORE PUSH1 0x40 DUP5 ADD MLOAD PUSH1 0x60 DUP5 ADD MSTORE PUSH1 0x60 DUP5 ADD MLOAD ISZERO ISZERO PUSH1 0x80 DUP5 ADD MSTORE PUSH1 0x80 DUP5 ADD MLOAD PUSH1 0xA0 DUP5 ADD MSTORE PUSH1 0xA0 DUP5 ADD MLOAD ISZERO ISZERO PUSH1 0xC0 DUP5 ADD MSTORE DUP1 SWAP2 POP POP SWAP3 SWAP2 POP POP JUMP JUMPDEST PUSH4 0x4E487B71 PUSH1 0xE0 SHL PUSH1 0x0 MSTORE PUSH1 0x11 PUSH1 0x4 MSTORE PUSH1 0x24 PUSH1 0x0 REVERT JUMPDEST PUSH1 0x0 PUSH1 0x1 DUP3 ADD PUSH2 0x1F78 JUMPI PUSH2 0x1F78 PUSH2 0x1F50 JUMP JUMPDEST POP PUSH1 0x1 ADD SWAP1 JUMP JUMPDEST DUP1 DUP3 ADD DUP1 DUP3 GT ISZERO PUSH2 0x18ED JUMPI PUSH2 0x18ED PUSH2 0x1F50 JUMP JUMPDEST PUSH1 0x80 DUP2 MSTORE PUSH1 0x0 PUSH2 0x1FA5 PUSH1 0x80 DUP4 ADD DUP8 PUSH2 0x1B2B JUMP JUMPDEST PUSH1 0x20 DUP4 ADD SWAP6 SWAP1 SWAP6 MSTORE POP PUSH1 0x40 DUP2 ADD SWAP3 SWAP1 SWAP3 MSTORE PUSH1 0x60 SWAP1 SWAP2 ADD MSTORE SWAP2 SWAP1 POP JUMP JUMPDEST PUSH1 0x1 DUP2 DUP2 SHR SWAP1 DUP3 AND DUP1 PUSH2 0x1FD5 JUMPI PUSH1 0x7F DUP3 AND SWAP2 POP JUMPDEST PUSH1 0x20 DUP3 LT DUP2 SUB PUSH2 0x1FF5 JUMPI PUSH4 0x4E487B71 PUSH1 0xE0 SHL PUSH1 0x0 MSTORE PUSH1 0x22 PUSH1 0x4 MSTORE PUSH1 0x24 PUSH1 0x0 REVERT JUMPDEST POP SWAP2 SWAP1 POP JUMP JUMPDEST PUSH4 0x4E487B71 PUSH1 0xE0 SHL PUSH1 0x0 MSTORE PUSH1 0x32 PUSH1 0x4 MSTORE PUSH1 0x24 PUSH1 0x0 REVERT JUMPDEST PUSH1 0x1F DUP3 GT ISZERO PUSH2 0x12AA JUMPI PUSH1 0x0 DUP2 DUP2 MSTORE PUSH1 0x20 DUP2 KECCAK256 PUSH1 0x1F DUP6 ADD PUSH1 0x5 SHR DUP2 ADD PUSH1 0x20 DUP7 LT ISZERO PUSH2 0x2038 JUMPI POP DUP1 JUMPDEST PUSH1 0x1F DUP6 ADD PUSH1 0x5 SHR DUP3 ADD SWAP2 POP JUMPDEST DUP2 DUP2 LT ISZERO PUSH2 0x2057 JUMPI DUP3 DUP2 SSTORE PUSH1 0x1 ADD PUSH2 0x2044 JUMP JUMPDEST POP POP POP POP POP POP JUMP JUMPDEST DUP2 MLOAD PUSH8 0xFFFFFFFFFFFFFFFF DUP2 GT ISZERO PUSH2 0x2079 JUMPI PUSH2 0x2079 PUSH2 0x1BAF JUMP JUMPDEST PUSH2 0x208D DUP2 PUSH2 0x2087 DUP5 SLOAD PUSH2 0x1FC1 JUMP JUMPDEST DUP5 PUSH2 0x2011 JUMP JUMPDEST PUSH1 0x20 DUP1 PUSH1 0x1F DUP4 GT PUSH1 0x1 DUP2 EQ PUSH2 0x20C2 JUMPI PUSH1 0x0 DUP5 ISZERO PUSH2 0x20AA JUMPI POP DUP6 DUP4 ADD MLOAD JUMPDEST PUSH1 0x0 NOT PUSH1 0x3 DUP7 SWAP1 SHL SHR NOT AND PUSH1 0x1 DUP6 SWAP1 SHL OR DUP6 SSTORE PUSH2 0x2057 JUMP JUMPDEST PUSH1 0x0 DUP6 DUP2 MSTORE PUSH1 0x20 DUP2 KECCAK256 PUSH1 0x1F NOT DUP7 AND SWAP2 JUMPDEST DUP3 DUP2 LT ISZERO PUSH2 0x20F1 JUMPI DUP9 DUP7 ADD MLOAD DUP3 SSTORE SWAP5 DUP5 ADD SWAP5 PUSH1 0x1 SWAP1 SWAP2 ADD SWAP1 DUP5 ADD PUSH2 0x20D2 JUMP JUMPDEST POP DUP6 DUP3 LT ISZERO PUSH2 0x210F JUMPI DUP8 DUP6 ADD MLOAD PUSH1 0x0 NOT PUSH1 0x3 DUP9 SWAP1 SHL PUSH1 0xF8 AND SHR NOT AND DUP2 SSTORE JUMPDEST POP POP POP POP POP PUSH1 0x1 SWAP1 DUP2 SHL ADD SWAP1 SSTORE POP JUMP JUMPDEST PUSH1 0x60 DUP2 MSTORE PUSH1 0x0 PUSH2 0x2132 PUSH1 0x60 DUP4 ADD DUP7 PUSH2 0x1B2B JUMP JUMPDEST PUSH1 0x20 DUP4 ADD SWAP5 SWAP1 SWAP5 MSTORE POP PUSH1 0x40 ADD MSTORE SWAP2 SWAP1 POP JUMP JUMPDEST DUP1 DUP3 MUL DUP2 ISZERO DUP3 DUP3 DIV DUP5 EQ OR PUSH2 0x18ED JUMPI PUSH2 0x18ED PUSH2 0x1F50 JUMP JUMPDEST PUSH4 0x4E487B71 PUSH1 0xE0 SHL PUSH1 0x0 MSTORE PUSH1 0x12 PUSH1 0x4 MSTORE PUSH1 0x24 PUSH1 0x0 REVERT JUMPDEST PUSH1 0x0 DUP3 PUSH2 0x2180 JUMPI PUSH2 0x2180 PUSH2 0x215B JUMP JUMPDEST POP DIV SWAP1 JUMP JUMPDEST DUP2 DUP2 SUB DUP2 DUP2 GT ISZERO PUSH2 0x18ED JUMPI PUSH2 0x18ED PUSH2 0x1F50 JUMP JUMPDEST PUSH1 0x0 DUP3 PUSH2 0x21A7 JUMPI PUSH2 0x21A7 PUSH2 0x215B JUMP JUMPDEST POP MOD SWAP1 JUMP INVALID LOG2 PUSH5 0x6970667358 0x22 SLT KECCAK256 0xD4 0xF9 0xC2 EXP 0xD 0xDE CALLDATACOPY DELEGATECALL 0xAB OR SWAP15 EXTCODECOPY KECCAK256 PUSH22 0xD61932590BA7492B3EA10147A3C5DAD65BA64736F6C PUSH4 0x43000814 STOP CALLER "},"methodIdentifiers":{"availableStrategies(uint256)":"6134f098","createStrategy(address,string,(address,uint256,uint256,uint256,uint256)[],uint256,bool)":"4d20061c","defaultRebalanceThreshold()":"ed9fe48a","feeRecipient()":"46904840","getAvailableStrategies()":"7697f9c9","getStats()":"c59d4847","getStrategy(uint256)":"cfc0cc34","getUserPortfolio(address)":"1edb27e9","minRebalanceAmount()":"e84354c5","nextStrategyId()":"185f8447","owner()":"8da5cb5b","pendingRebalances(address,uint256)":"b63f19bb","performanceFee()":"87788782","rebalancePortfolio(address)":"1a3075cc","renounceOwnership()":"715018a6","strategies(uint256)":"d574ea3d","totalRebalances()":"56a21da5","totalValueRebalanced()":"99d8e033","transferOwnership(address)":"f2fde38b","updateAllocation(address,address,uint256)":"4db25ff5","updateDefaultThreshold(uint256)":"2d4056e6","updatePerformanceFee(uint256)":"e8981330","userPortfolios(address)":"b61920c1","userStrategies(address)":"487bb965"}}}}}