{"contracts/RiskManager.sol":{"RiskManager":{"abi":[{"inputs":[{"internalType":"address","name":"_emergencyManager","type":"address"}],"stateMutability":"nonpayable","type":"constructor"},{"inputs":[{"internalType":"address","name":"owner","type":"address"}],"name":"OwnableInvalidOwner","type":"error"},{"inputs":[{"internalType":"address","name":"account","type":"address"}],"name":"OwnableUnauthorizedAccount","type":"error"},{"inputs":[],"name":"ReentrancyGuardReentrantCall","type":"error"},{"anonymous":false,"inputs":[{"indexed":true,"internalType":"address","name":"previousOwner","type":"address"},{"indexed":true,"internalType":"address","name":"newOwner","type":"address"}],"name":"OwnershipTransferred","type":"event"},{"anonymous":false,"inputs":[{"indexed":true,"internalType":"address","name":"user","type":"address"},{"indexed":true,"internalType":"address","name":"token","type":"address"},{"indexed":false,"internalType":"uint256","name":"amount","type":"uint256"},{"indexed":false,"internalType":"string","name":"reason","type":"string"},{"indexed":false,"internalType":"uint256","name":"timestamp","type":"uint256"}],"name":"PositionLiquidated","type":"event"},{"anonymous":false,"inputs":[{"indexed":true,"internalType":"address","name":"user","type":"address"},{"indexed":false,"internalType":"string","name":"alertType","type":"string"},{"indexed":false,"internalType":"uint256","name":"currentRisk","type":"uint256"},{"indexed":false,"internalType":"uint256","name":"threshold","type":"uint256"},{"indexed":false,"internalType":"string","name":"recommendation","type":"string"},{"indexed":false,"internalType":"uint256","name":"timestamp","type":"uint256"}],"name":"RiskAlert","type":"event"},{"anonymous":false,"inputs":[{"indexed":true,"internalType":"address","name":"user","type":"address"},{"indexed":false,"internalType":"uint256","name":"riskScore","type":"uint256"},{"indexed":false,"internalType":"string","name":"riskLevel","type":"string"},{"indexed":false,"internalType":"uint256","name":"portfolioValue","type":"uint256"},{"indexed":false,"internalType":"uint256","name":"timestamp","type":"uint256"}],"name":"RiskAssessed","type":"event"},{"anonymous":false,"inputs":[{"indexed":false,"internalType":"uint256","name":"maxRiskScore","type":"uint256"},{"indexed":false,"internalType":"uint256","name":"liquidationThreshold","type":"uint256"},{"indexed":false,"internalType":"uint256","name":"warningThreshold","type":"uint256"}],"name":"RiskParametersUpdated","type":"event"},{"inputs":[{"internalType":"address","name":"user","type":"address"},{"internalType":"address","name":"token","type":"address"},{"internalType":"uint256","name":"amount","type":"uint256"},{"internalType":"uint256","name":"value","type":"uint256"},{"internalType":"string","name":"protocol","type":"string"}],"name":"addPosition","outputs":[],"stateMutability":"nonpayable","type":"function"},{"inputs":[],"name":"emergencyManager","outputs":[{"internalType":"address","name":"","type":"address"}],"stateMutability":"view","type":"function"},{"inputs":[{"internalType":"address","name":"user","type":"address"}],"name":"evaluateRisk","outputs":[{"internalType":"uint256","name":"riskScore","type":"uint256"},{"internalType":"string","name":"riskLevel","type":"string"}],"stateMutability":"nonpayable","type":"function"},{"inputs":[],"name":"getStats","outputs":[{"internalType":"uint256","name":"_totalAssessments","type":"uint256"},{"internalType":"uint256","name":"_totalAlerts","type":"uint256"},{"internalType":"uint256","name":"_totalLiquidations","type":"uint256"},{"internalType":"uint256","name":"_activeAlerts","type":"uint256"}],"stateMutability":"view","type":"function"},{"inputs":[{"internalType":"address","name":"user","type":"address"}],"name":"getUserPositions","outputs":[{"components":[{"internalType":"address","name":"token","type":"address"},{"internalType":"uint256","name":"amount","type":"uint256"},{"internalType":"uint256","name":"value","type":"uint256"},{"internalType":"string","name":"protocol","type":"string"},{"internalType":"uint256","name":"entryTime","type":"uint256"},{"internalType":"uint256","name":"riskWeight","type":"uint256"}],"internalType":"struct RiskManager.Position[]","name":"","type":"tuple[]"}],"stateMutability":"view","type":"function"},{"inputs":[{"internalType":"address","name":"user","type":"address"}],"name":"getUserRiskAssessment","outputs":[{"components":[{"internalType":"uint256","name":"riskScore","type":"uint256"},{"internalType":"string","name":"riskLevel","type":"string"},{"internalType":"uint256","name":"portfolioValue","type":"uint256"},{"internalType":"uint256","name":"volatilityScore","type":"uint256"},{"internalType":"uint256","name":"concentrationRisk","type":"uint256"},{"internalType":"uint256","name":"liquidityRisk","type":"uint256"},{"internalType":"uint256","name":"timestamp","type":"uint256"}],"internalType":"struct RiskManager.RiskAssessment","name":"","type":"tuple"}],"stateMutability":"view","type":"function"},{"inputs":[],"name":"liquidationThreshold","outputs":[{"internalType":"uint256","name":"","type":"uint256"}],"stateMutability":"view","type":"function"},{"inputs":[],"name":"maxConcentration","outputs":[{"internalType":"uint256","name":"","type":"uint256"}],"stateMutability":"view","type":"function"},{"inputs":[],"name":"maxRiskScore","outputs":[{"internalType":"uint256","name":"","type":"uint256"}],"stateMutability":"view","type":"function"},{"inputs":[],"name":"minLiquidity","outputs":[{"internalType":"uint256","name":"","type":"uint256"}],"stateMutability":"view","type":"function"},{"inputs":[],"name":"owner","outputs":[{"internalType":"address","name":"","type":"address"}],"stateMutability":"view","type":"function"},{"inputs":[{"internalType":"string","name":"","type":"string"}],"name":"protocolRiskWeights","outputs":[{"internalType":"uint256","name":"","type":"uint256"}],"stateMutability":"view","type":"function"},{"inputs":[],"name":"renounceOwnership","outputs":[],"stateMutability":"nonpayable","type":"function"},{"inputs":[{"internalType":"address","name":"","type":"address"}],"name":"riskAlerts","outputs":[{"internalType":"bool","name":"","type":"bool"}],"stateMutability":"view","type":"function"},{"inputs":[{"internalType":"address","name":"","type":"address"}],"name":"tokenRiskWeights","outputs":[{"internalType":"uint256","name":"","type":"uint256"}],"stateMutability":"view","type":"function"},{"inputs":[],"name":"totalAlertsIssued","outputs":[{"internalType":"uint256","name":"","type":"uint256"}],"stateMutability":"view","type":"function"},{"inputs":[],"name":"totalAssessments","outputs":[{"internalType":"uint256","name":"","type":"uint256"}],"stateMutability":"view","type":"function"},{"inputs":[],"name":"totalLiquidations","outputs":[{"internalType":"uint256","name":"","type":"uint256"}],"stateMutability":"view","type":"function"},{"inputs":[{"internalType":"address","name":"newOwner","type":"address"}],"name":"transferOwnership","outputs":[],"stateMutability":"nonpayable","type":"function"},{"inputs":[{"internalType":"string","name":"protocol","type":"string"},{"internalType":"uint256","name":"weight","type":"uint256"}],"name":"updateProtocolRiskWeight","outputs":[],"stateMutability":"nonpayable","type":"function"},{"inputs":[{"internalType":"uint256","name":"_maxRiskScore","type":"uint256"},{"internalType":"uint256","name":"_liquidationThreshold","type":"uint256"},{"internalType":"uint256","name":"_warningThreshold","type":"uint256"}],"name":"updateRiskParameters","outputs":[],"stateMutability":"nonpayable","type":"function"},{"inputs":[{"internalType":"address","name":"token","type":"address"},{"internalType":"uint256","name":"weight","type":"uint256"}],"name":"updateTokenRiskWeight","outputs":[],"stateMutability":"nonpayable","type":"function"},{"inputs":[{"internalType":"address","name":"","type":"address"},{"internalType":"uint256","name":"","type":"uint256"}],"name":"userPositions","outputs":[{"internalType":"address","name":"token","type":"address"},{"internalType":"uint256","name":"amount","type":"uint256"},{"internalType":"uint256","name":"value","type":"uint256"},{"internalType":"string","name":"protocol","type":"string"},{"internalType":"uint256","name":"entryTime","type":"uint256"},{"internalType":"uint256","name":"riskWeight","type":"uint256"}],"stateMutability":"view","type":"function"},{"inputs":[{"internalType":"address","name":"","type":"address"}],"name":"userRiskAssessments","outputs":[{"internalType":"uint256","name":"riskScore","type":"uint256"},{"internalType":"string","name":"riskLevel","type":"string"},{"internalType":"uint256","name":"portfolioValue","type":"uint256"},{"internalType":"uint256","name":"volatilityScore","type":"uint256"},{"internalType":"uint256","name":"concentrationRisk","type":"uint256"},{"internalType":"uint256","name":"liquidityRisk","type":"uint256"},{"internalType":"uint256","name":"timestamp","type":"uint256"}],"stateMutability":"view","type":"function"},{"inputs":[{"internalType":"address","name":"","type":"address"}],"name":"userRiskMetrics","outputs":[{"internalType":"uint256","name":"totalValue","type":"uint256"},{"internalType":"uint256","name":"riskScore","type":"uint256"},{"internalType":"uint256","name":"diversificationScore","type":"uint256"},{"internalType":"uint256","name":"liquidityScore","type":"uint256"},{"internalType":"uint256","name":"volatilityScore","type":"uint256"},{"internalType":"uint256","name":"protocolRiskScore","type":"uint256"}],"stateMutability":"view","type":"function"},{"inputs":[],"name":"warningThreshold","outputs":[{"internalType":"uint256","name":"","type":"uint256"}],"stateMutability":"view","type":"function"}],"evm":{"bytecode":{"linkReferences":{},"object":"60806040526103206006556103846007556102bc60085561012c6009556064600a553480156200002e57600080fd5b50604051620023e9380380620023e98339810160408190526200005191620001f2565b33806200007857604051631e4fbdf760e01b81526000600482015260240160405180910390fd5b6200008381620001a2565b5060018055601080546001600160a01b0319166001600160a01b038316179055604051634161766560e01b815260c890600b90600401908152604051908190036020018120919091556710dbdb5c1bdd5b9960c21b815260fa90600b9060080190815260405190819003602001812091909155660556e69737761760cc1b815261019090600b906007019081526040519081900360200181209190915564437572766560d81b815261012c90600b90600501908152604051908190036020018120919091556805375736869737761760bc1b81526101c290600b9060090190815260405190819003602001812091909155662ab735b737bbb760c91b815261032090600b90600701908152604051908190036020019020555062000224565b600080546001600160a01b038381166001600160a01b0319831681178455604051919092169283917f8be0079c531659141344cd1fd0a4f28419497f9722a3daafe3b4186f6b6457e09190a35050565b6000602082840312156200020557600080fd5b81516001600160a01b03811681146200021d57600080fd5b9392505050565b6121b580620002346000396000f3fe608060405234801561001057600080fd5b506004361061018e5760003560e01c80637978bade116100de578063c59d484711610097578063d2c18f5911610071578063d2c18f59146103fa578063e0420d8e1461040d578063f2fde38b14610438578063fd9116481461044b57600080fd5b8063c59d4847146103b3578063c6499216146103de578063c93b3750146103f157600080fd5b80637978bade1461030b5780637ad4074f1461031e5780638da5cb5b1461033f578063954806d714610364578063ac79318e1461036d578063baa96c1c146103a057600080fd5b80632a6bc2dd1161014b5780634031234c116101255780634031234c146102af5780635e1b4d99146102b857806366c76fca146102dd578063715018a61461030357600080fd5b80632a6bc2dd146102665780632b08c955146102865780633f3bc3611461028f57600080fd5b80630492c22c1461019357806313f190d7146101a85780631445d873146101c45780631c95d81c146101e45780631f99e274146101ed578063252cf2d21461025d575b600080fd5b6101a66101a1366004611bcc565b610454565b005b6101b160065481565b6040519081526020015b60405180910390f35b6101d76101d2366004611c2d565b6104d4565b6040516101bb9190611c98565b6101b1600e5481565b6102306101fb366004611c2d565b600460208190526000918252604090912080546001820154600283015460038401549484015460059094015492949193909286565b604080519687526020870195909552938501929092526060840152608083015260a082015260c0016101bb565b6101b1600a5481565b610279610274366004611c2d565b61060c565b6040516101bb9190611cfd565b6101b1600d5481565b6101b161029d366004611c2d565b600c6020526000908152604090205481565b6101b160075481565b6102cb6102c6366004611da9565b610752565b6040516101bb96959493929190611dd3565b6102f06102eb366004611c2d565b61083a565b6040516101bb9796959493929190611e15565b6101a66108fd565b6101a6610319366004611e58565b610911565b61033161032c366004611c2d565b610aba565b6040516101bb929190611e84565b6000546001600160a01b03165b6040516001600160a01b0390911681526020016101bb565b6101b1600f5481565b61039061037b366004611c2d565b60056020526000908152604090205460ff1681565b60405190151581526020016101bb565b6101a66103ae366004611da9565b610cb5565b600d54600e54600f5460006040805194855260208501939093529183015260608201526080016101bb565b6101a66103ec366004611e9d565b610d27565b6101b160095481565b60105461034c906001600160a01b031681565b6101b161041b366004611f0f565b8051602081830181018051600b8252928201919093012091525481565b6101a6610446366004611c2d565b610e28565b6101b160085481565b61045c610e66565b6103e88111156104af5760405162461bcd60e51b815260206004820152601960248201527805765696768742063616e6e6f7420657863656564203130303603c1b60448201526064015b60405180910390fd5b80600b836040516104c09190611f44565b908152604051908190036020019020555050565b6105146040518060e00160405280600081526020016060815260200160008152602001600081526020016000815260200160008152602001600081525090565b6001600160a01b038216600090815260026020908152604091829020825160e0810190935280548352600181018054919284019161055190611f60565b80601f016020809104026020016040519081016040528092919081815260200182805461057d90611f60565b80156105ca5780601f1061059f576101008083540402835291602001916105ca565b820191906000526020600020905b8154815290600101906020018083116105ad57829003601f168201915b50505050508152602001600282015481526020016003820154815260200160048201548152602001600582015481526020016006820154815250509050919050565b6001600160a01b0381166000908152600360209081526040808320805482518185028101850190935280835260609492939192909184015b828210156107475760008481526020908190206040805160c0810182526006860290920180546001600160a01b031683526001810154938301939093526002830154908201526003820180549192916060840191906106a290611f60565b80601f01602080910402602001604051908101604052809291908181526020018280546106ce90611f60565b801561071b5780601f106106f05761010080835404028352916020019161071b565b820191906000526020600020905b8154815290600101906020018083116106fe57829003601f168201915b505050505081526020016004820154815260200160058201548152505081526020019060010190610644565b505050509050919050565b6003602052816000526040600020818154811061076e57600080fd5b600091825260209091206006909102018054600182015460028301546003840180546001600160a01b03909416965091945092916107ab90611f60565b80601f01602080910402602001604051908101604052809291908181526020018280546107d790611f60565b80156108245780601f106107f957610100808354040283529160200191610824565b820191906000526020600020905b81548152906001019060200180831161080757829003601f168201915b5050505050908060040154908060050154905086565b6002602052600090815260409020805460018201805491929161085c90611f60565b80601f016020809104026020016040519081016040528092919081815260200182805461088890611f60565b80156108d55780601f106108aa576101008083540402835291602001916108d5565b820191906000526020600020905b8154815290600101906020018083116108b857829003601f168201915b5050505050908060020154908060030154908060040154908060050154908060060154905087565b610905610e66565b61090f6000610e93565b565b610919610e66565b6103e88311156109645760405162461bcd60e51b8152602060048201526016602482015275496e76616c6964206d6178207269736b2073636f726560501b60448201526064016104a6565b6103e88211156109b65760405162461bcd60e51b815260206004820152601d60248201527f496e76616c6964206c69717569646174696f6e207468726573686f6c6400000060448201526064016104a6565b6103e8811115610a085760405162461bcd60e51b815260206004820152601960248201527f496e76616c6964207761726e696e67207468726573686f6c640000000000000060448201526064016104a6565b818110610a655760405162461bcd60e51b815260206004820152602560248201527f5761726e696e67206d757374206265206c657373207468616e206c697175696460448201526430ba34b7b760d91b60648201526084016104a6565b60068390556007829055600881905560408051848152602081018490529081018290527fca49799fec639051ee77a7ef822992984f069ae6a4d7da4106c5a59b6a6e4cae9060600160405180910390a1505050565b600060606001600160a01b038316610b0b5760405162461bcd60e51b8152602060048201526014602482015273496e76616c69642075736572206164647265737360601b60448201526064016104a6565b6000610b1684610ee3565b9050610b218161122c565b9250610b2c836112e8565b91506040518060e001604052808481526020018381526020018260000151815260200182608001518152602001610b62866113b7565b8152602001610b70866115ed565b8152426020918201526001600160a01b0386166000908152600282526040902082518155908201516001820190610ba79082611fe9565b5060408201518160020155606082015181600301556080820151816004015560a0820151816005015560c082015181600601559050508060046000866001600160a01b03166001600160a01b03168152602001908152602001600020600082015181600001556020820151816001015560408201518160020155606082015181600301556080820151816004015560a08201518160050155905050600d6000815480929190610c55906120bf565b9190505550610c6484846117bd565b836001600160a01b03167fcc475f71da638088f35254f0cbf7c2973ee17c563fcf768fcd2b9a433fa6ce728484846000015142604051610ca794939291906120d8565b60405180910390a250915091565b610cbd610e66565b6103e8811115610d0b5760405162461bcd60e51b815260206004820152601960248201527805765696768742063616e6e6f7420657863656564203130303603c1b60448201526064016104a6565b6001600160a01b039091166000908152600c6020526040902055565b6001600160a01b038086166000908152600360209081526040808320815160c081018352948916808652858401899052858301889052606086018790524260808701528452600c9092529091205490919060a0820190610d89576101f4610da3565b6001600160a01b0387166000908152600c60205260409020545b90528154600180820184556000938452602093849020835160069093020180546001600160a01b0319166001600160a01b0390931692909217825592820151928101929092556040810151600283015560608101519091906003820190610e0a9082611fe9565b506080820151816004015560a0820151816005015550505050505050565b610e30610e66565b6001600160a01b038116610e5a57604051631e4fbdf760e01b8152600060048201526024016104a6565b610e6381610e93565b50565b6000546001600160a01b0316331461090f5760405163118cdaa760e01b81523360048201526024016104a6565b600080546001600160a01b038381166001600160a01b0319831681178455604051919092169283917f8be0079c531659141344cd1fd0a4f28419497f9722a3daafe3b4186f6b6457e09190a35050565b610f1c6040518060c001604052806000815260200160008152602001600081526020016000815260200160008152602001600081525090565b6001600160a01b038216600090815260036020908152604080832080548251818502810185019093528083529192909190849084015b828210156110555760008481526020908190206040805160c0810182526006860290920180546001600160a01b03168352600181015493830193909352600283015490820152600382018054919291606084019190610fb090611f60565b80601f0160208091040260200160405190810160405280929190818152602001828054610fdc90611f60565b80156110295780601f10610ffe57610100808354040283529160200191611029565b820191906000526020600020905b81548152906001019060200180831161100c57829003601f168201915b505050505081526020016004820154815260200160058201548152505081526020019060010190610f52565b50505050905080516000036110a1576040518060c0016040528060008152602001600081526020016103e881526020016103e88152602001600081526020016000815250915050919050565b6000806000805b84518110156111a45760008582815181106110c5576110c5612104565b602002602001015190508060400151856110df919061211a565b81516001600160a01b03166000908152600c602052604081205491965081900361110857506101f45b6000600b836060015160405161111e9190611f44565b90815260200160405180910390205490508060000361113c57506103205b6103e882846040015161114f9190612133565b611159919061214a565b611163908761211a565b95506103e88184604001516111789190612133565b611182919061214a565b61118c908661211a565b9450505050808061119c906120bf565b9150506110a8565b5082156111de57826111b8836103e8612133565b6111c2919061214a565b9150826111d1826103e8612133565b6111db919061214a565b90505b6040518060c001604052808481526020018381526020016111fe866117e7565b815260200161120c86611856565b815260200161121a866118e3565b81526020019190915295945050505050565b60008060648360a00151600a6112429190612133565b608085015161125290600f612133565b6060860151611263906103e861216c565b61126e906014612133565b604087015161127f906103e861216c565b61128a906019612133565b602088015161129a90601e612133565b6112a4919061211a565b6112ae919061211a565b6112b8919061211a565b6112c2919061211a565b6112cc919061214a565b90506103e881116112dd57806112e1565b6103e85b9392505050565b606060c8821161131657505060408051808201909152600881526756657279204c6f7760c01b602082015290565b610190821161133e5750506040805180820190915260038152624c6f7760e81b602082015290565b61025882116113695750506040805180820190915260068152654d656469756d60d01b602082015290565b6103208211611392575050604080518082019091526004815263090d2ced60e31b602082015290565b50506040805180820190915260098152680accae4f24090d2ced60bb1b602082015290565b6001600160a01b038116600090815260036020908152604080832080548251818502810185019093528083528493849084015b828210156114ed5760008481526020908190206040805160c0810182526006860290920180546001600160a01b0316835260018101549383019390935260028301549082015260038201805491929160608401919061144890611f60565b80601f016020809104026020016040519081016040528092919081815260200182805461147490611f60565b80156114c15780601f10611496576101008083540402835291602001916114c1565b820191906000526020600020905b8154815290600101906020018083116114a457829003601f168201915b5050505050815260200160048201548152602001600582015481525050815260200190600101906113ea565b50505050905080516000036115055750600092915050565b60008060005b83518110156115975783818151811061152657611526612104565b6020026020010151604001518361153d919061211a565b92508184828151811061155257611552612104565b60200260200101516040015111156115855783818151811061157657611576612104565b60200260200101516040015191505b8061158f816120bf565b91505061150b565b50816000036115ab57506000949350505050565b6000826115ba836103e8612133565b6115c4919061214a565b905060095481116115d65760006115e3565b6009546115e3908261216c565b9695505050505050565b6001600160a01b038116600090815260036020908152604080832080548251818502810185019093528083528493849084015b828210156117235760008481526020908190206040805160c0810182526006860290920180546001600160a01b0316835260018101549383019390935260028301549082015260038201805491929160608401919061167e90611f60565b80601f01602080910402602001604051908101604052809291908181526020018280546116aa90611f60565b80156116f75780601f106116cc576101008083540402835291602001916116f7565b820191906000526020600020905b8154815290600101906020018083116116da57829003601f168201915b505050505081526020016004820154815260200160058201548152505081526020019060010190611620565b505050509050805160000361173b5750600092915050565b6000805b82518110156117a8576000683635c9adc5dea0000084838151811061176657611766612104565b6020026020010151604001511061177e5760c8611782565b6101905b61ffff169050611792818461211a565b92505080806117a0906120bf565b91505061173f565b5081516117b5908261214a565b949350505050565b60075481106117d4576117d0828261196e565b5050565b60085481106117d0576117d08282611a6a565b600060018251116117fa57506000919050565b60008251606461180a9190612133565b905061032081111561181b57506103205b6001600061182a826032612133565b90506000611838828561211a565b90506103e8811161184957806115e3565b6103e89695505050505050565b600080805b83518110156118c5576000683635c9adc5dea0000085838151811061188257611882612104565b6020026020010151604001511161189b5761025861189f565b6103205b61ffff1690506118af818461211a565b92505080806118bd906120bf565b91505061185b565b5060008351116118d7576103e86112e1565b82516112e1908261214a565b600080805b835181101561195d57600084828151811061190557611905612104565b6020026020010151608001514261191c919061216c565b905060006201518082106119325761012c611936565b6102585b61ffff169050611946818561211a565b935050508080611955906120bf565b9150506118e8565b5060008351116118d75760006112e1565b6001600160a01b0382166000908152600560205260408120805460ff19166001179055600e80549161199f836120bf565b90915550506007546040805160a08082526014908201527313125455525110551253d397d49154555254915160621b60c0820152602081018490529081019190915260e0606082018190526025908201527f496d6d65646961746520706f736974696f6e20726564756374696f6e20726571610100820152641d5a5c995960da1b6101208201524260808201526001600160a01b038316907fdf76491341235f350869b66a4085d8a6dbf518c2a5c6b8d5278157dee4d5e4b190610140015b60405180910390a25050565b600e8054906000611a7a836120bf565b90915550506008546040805160a080825260119082015270484947485f5249534b5f5741524e494e4760781b60c082015260208082018590529181019290925260e0606083018190528201527f436f6e7369646572207265647563696e6720706f736974696f6e2073697a65736101008201524260808201526001600160a01b038316907fdf76491341235f350869b66a4085d8a6dbf518c2a5c6b8d5278157dee4d5e4b19061012001611a5e565b634e487b7160e01b600052604160045260246000fd5b600082601f830112611b5057600080fd5b813567ffffffffffffffff80821115611b6b57611b6b611b29565b604051601f8301601f19908116603f01168101908282118183101715611b9357611b93611b29565b81604052838152866020858801011115611bac57600080fd5b836020870160208301376000602085830101528094505050505092915050565b60008060408385031215611bdf57600080fd5b823567ffffffffffffffff811115611bf657600080fd5b611c0285828601611b3f565b95602094909401359450505050565b80356001600160a01b0381168114611c2857600080fd5b919050565b600060208284031215611c3f57600080fd5b6112e182611c11565b60005b83811015611c63578181015183820152602001611c4b565b50506000910152565b60008151808452611c84816020860160208601611c48565b601f01601f19169290920160200192915050565b60208152815160208201526000602083015160e06040840152611cbf610100840182611c6c565b90506040840151606084015260608401516080840152608084015160a084015260a084015160c084015260c084015160e08401528091505092915050565b60006020808301818452808551808352604092508286019150828160051b87010184880160005b83811015611d9b57888303603f19018552815180516001600160a01b031684528781015188850152868101518785015260608082015160c08287018190529190611d7083880182611c6c565b6080858101519089015260a09485015194909701939093525050509386019390860190600101611d24565b509098975050505050505050565b60008060408385031215611dbc57600080fd5b611dc583611c11565b946020939093013593505050565b60018060a01b038716815285602082015284604082015260c060608201526000611e0060c0830186611c6c565b60808301949094525060a00152949350505050565b87815260e060208201526000611e2e60e0830189611c6c565b6040830197909752506060810194909452608084019290925260a083015260c09091015292915050565b600080600060608486031215611e6d57600080fd5b505081359360208301359350604090920135919050565b8281526040602082015260006117b56040830184611c6c565b600080600080600060a08688031215611eb557600080fd5b611ebe86611c11565b9450611ecc60208701611c11565b93506040860135925060608601359150608086013567ffffffffffffffff811115611ef657600080fd5b611f0288828901611b3f565b9150509295509295909350565b600060208284031215611f2157600080fd5b813567ffffffffffffffff811115611f3857600080fd5b6117b584828501611b3f565b60008251611f56818460208701611c48565b9190910192915050565b600181811c90821680611f7457607f821691505b602082108103611f9457634e487b7160e01b600052602260045260246000fd5b50919050565b601f821115611fe457600081815260208120601f850160051c81016020861015611fc15750805b601f850160051c820191505b81811015611fe057828155600101611fcd565b5050505b505050565b815167ffffffffffffffff81111561200357612003611b29565b612017816120118454611f60565b84611f9a565b602080601f83116001811461204c57600084156120345750858301515b600019600386901b1c1916600185901b178555611fe0565b600085815260208120601f198616915b8281101561207b5788860151825594840194600190910190840161205c565b50858210156120995787850151600019600388901b60f8161c191681555b5050505050600190811b01905550565b634e487b7160e01b600052601160045260246000fd5b6000600182016120d1576120d16120a9565b5060010190565b8481526080602082015260006120f16080830186611c6c565b6040830194909452506060015292915050565b634e487b7160e01b600052603260045260246000fd5b8082018082111561212d5761212d6120a9565b92915050565b808202811582820484141761212d5761212d6120a9565b60008261216757634e487b7160e01b600052601260045260246000fd5b500490565b8181038181111561212d5761212d6120a956fea26469706673582212208b5327a953c5d92538debcc269f97764d1f5a3cf53575d49e1424aa5c2ea75c664736f6c63430008140033","opcodes":"PUSH1 0x80 PUSH1 0x40 MSTORE PUSH2 0x320 PUSH1 0x6 SSTORE PUSH2 0x384 PUSH1 0x7 SSTORE PUSH2 0x2BC PUSH1 0x8 SSTORE PUSH2 0x12C PUSH1 0x9 SSTORE PUSH1 0x64 PUSH1 0xA SSTORE CALLVALUE DUP1 ISZERO PUSH3 0x2E JUMPI PUSH1 0x0 DUP1 REVERT JUMPDEST POP PUSH1 0x40 MLOAD PUSH3 0x23E9 CODESIZE SUB DUP1 PUSH3 0x23E9 DUP4 CODECOPY DUP2 ADD PUSH1 0x40 DUP2 SWAP1 MSTORE PUSH3 0x51 SWAP2 PUSH3 0x1F2 JUMP JUMPDEST CALLER DUP1 PUSH3 0x78 JUMPI PUSH1 0x40 MLOAD PUSH4 0x1E4FBDF7 PUSH1 0xE0 SHL DUP2 MSTORE PUSH1 0x0 PUSH1 0x4 DUP3 ADD MSTORE PUSH1 0x24 ADD PUSH1 0x40 MLOAD DUP1 SWAP2 SUB SWAP1 REVERT JUMPDEST PUSH3 0x83 DUP2 PUSH3 0x1A2 JUMP JUMPDEST POP PUSH1 0x1 DUP1 SSTORE PUSH1 0x10 DUP1 SLOAD PUSH1 0x1 PUSH1 0x1 PUSH1 0xA0 SHL SUB NOT AND PUSH1 0x1 PUSH1 0x1 PUSH1 0xA0 SHL SUB DUP4 AND OR SWAP1 SSTORE PUSH1 0x40 MLOAD PUSH4 0x41617665 PUSH1 0xE0 SHL DUP2 MSTORE PUSH1 0xC8 SWAP1 PUSH1 0xB SWAP1 PUSH1 0x4 ADD SWAP1 DUP2 MSTORE PUSH1 0x40 MLOAD SWAP1 DUP2 SWAP1 SUB PUSH1 0x20 ADD DUP2 KECCAK256 SWAP2 SWAP1 SWAP2 SSTORE PUSH8 0x10DBDB5C1BDD5B99 PUSH1 0xC2 SHL DUP2 MSTORE PUSH1 0xFA SWAP1 PUSH1 0xB SWAP1 PUSH1 0x8 ADD SWAP1 DUP2 MSTORE PUSH1 0x40 MLOAD SWAP1 DUP2 SWAP1 SUB PUSH1 0x20 ADD DUP2 KECCAK256 SWAP2 SWAP1 SWAP2 SSTORE PUSH7 0x556E697377617 PUSH1 0xCC SHL DUP2 MSTORE PUSH2 0x190 SWAP1 PUSH1 0xB SWAP1 PUSH1 0x7 ADD SWAP1 DUP2 MSTORE PUSH1 0x40 MLOAD SWAP1 DUP2 SWAP1 SUB PUSH1 0x20 ADD DUP2 KECCAK256 SWAP2 SWAP1 SWAP2 SSTORE PUSH5 0x4375727665 PUSH1 0xD8 SHL DUP2 MSTORE PUSH2 0x12C SWAP1 PUSH1 0xB SWAP1 PUSH1 0x5 ADD SWAP1 DUP2 MSTORE PUSH1 0x40 MLOAD SWAP1 DUP2 SWAP1 SUB PUSH1 0x20 ADD DUP2 KECCAK256 SWAP2 SWAP1 SWAP2 SSTORE PUSH9 0x53757368697377617 PUSH1 0xBC SHL DUP2 MSTORE PUSH2 0x1C2 SWAP1 PUSH1 0xB SWAP1 PUSH1 0x9 ADD SWAP1 DUP2 MSTORE PUSH1 0x40 MLOAD SWAP1 DUP2 SWAP1 SUB PUSH1 0x20 ADD DUP2 KECCAK256 SWAP2 SWAP1 SWAP2 SSTORE PUSH7 0x2AB735B737BBB7 PUSH1 0xC9 SHL DUP2 MSTORE PUSH2 0x320 SWAP1 PUSH1 0xB SWAP1 PUSH1 0x7 ADD SWAP1 DUP2 MSTORE PUSH1 0x40 MLOAD SWAP1 DUP2 SWAP1 SUB PUSH1 0x20 ADD SWAP1 KECCAK256 SSTORE POP PUSH3 0x224 JUMP JUMPDEST PUSH1 0x0 DUP1 SLOAD PUSH1 0x1 PUSH1 0x1 PUSH1 0xA0 SHL SUB DUP4 DUP2 AND PUSH1 0x1 PUSH1 0x1 PUSH1 0xA0 SHL SUB NOT DUP4 AND DUP2 OR DUP5 SSTORE PUSH1 0x40 MLOAD SWAP2 SWAP1 SWAP3 AND SWAP3 DUP4 SWAP2 PUSH32 0x8BE0079C531659141344CD1FD0A4F28419497F9722A3DAAFE3B4186F6B6457E0 SWAP2 SWAP1 LOG3 POP POP JUMP JUMPDEST PUSH1 0x0 PUSH1 0x20 DUP3 DUP5 SUB SLT ISZERO PUSH3 0x205 JUMPI PUSH1 0x0 DUP1 REVERT JUMPDEST DUP2 MLOAD PUSH1 0x1 PUSH1 0x1 PUSH1 0xA0 SHL SUB DUP2 AND DUP2 EQ PUSH3 0x21D JUMPI PUSH1 0x0 DUP1 REVERT JUMPDEST SWAP4 SWAP3 POP POP POP JUMP JUMPDEST PUSH2 0x21B5 DUP1 PUSH3 0x234 PUSH1 0x0 CODECOPY PUSH1 0x0 RETURN INVALID PUSH1 0x80 PUSH1 0x40 MSTORE CALLVALUE DUP1 ISZERO PUSH2 0x10 JUMPI PUSH1 0x0 DUP1 REVERT JUMPDEST POP PUSH1 0x4 CALLDATASIZE LT PUSH2 0x18E JUMPI PUSH1 0x0 CALLDATALOAD PUSH1 0xE0 SHR DUP1 PUSH4 0x7978BADE GT PUSH2 0xDE JUMPI DUP1 PUSH4 0xC59D4847 GT PUSH2 0x97 JUMPI DUP1 PUSH4 0xD2C18F59 GT PUSH2 0x71 JUMPI DUP1 PUSH4 0xD2C18F59 EQ PUSH2 0x3FA JUMPI DUP1 PUSH4 0xE0420D8E EQ PUSH2 0x40D JUMPI DUP1 PUSH4 0xF2FDE38B EQ PUSH2 0x438 JUMPI DUP1 PUSH4 0xFD911648 EQ PUSH2 0x44B JUMPI PUSH1 0x0 DUP1 REVERT JUMPDEST DUP1 PUSH4 0xC59D4847 EQ PUSH2 0x3B3 JUMPI DUP1 PUSH4 0xC6499216 EQ PUSH2 0x3DE JUMPI DUP1 PUSH4 0xC93B3750 EQ PUSH2 0x3F1 JUMPI PUSH1 0x0 DUP1 REVERT JUMPDEST DUP1 PUSH4 0x7978BADE EQ PUSH2 0x30B JUMPI DUP1 PUSH4 0x7AD4074F EQ PUSH2 0x31E JUMPI DUP1 PUSH4 0x8DA5CB5B EQ PUSH2 0x33F JUMPI DUP1 PUSH4 0x954806D7 EQ PUSH2 0x364 JUMPI DUP1 PUSH4 0xAC79318E EQ PUSH2 0x36D JUMPI DUP1 PUSH4 0xBAA96C1C EQ PUSH2 0x3A0 JUMPI PUSH1 0x0 DUP1 REVERT JUMPDEST DUP1 PUSH4 0x2A6BC2DD GT PUSH2 0x14B JUMPI DUP1 PUSH4 0x4031234C GT PUSH2 0x125 JUMPI DUP1 PUSH4 0x4031234C EQ PUSH2 0x2AF JUMPI DUP1 PUSH4 0x5E1B4D99 EQ PUSH2 0x2B8 JUMPI DUP1 PUSH4 0x66C76FCA EQ PUSH2 0x2DD JUMPI DUP1 PUSH4 0x715018A6 EQ PUSH2 0x303 JUMPI PUSH1 0x0 DUP1 REVERT JUMPDEST DUP1 PUSH4 0x2A6BC2DD EQ PUSH2 0x266 JUMPI DUP1 PUSH4 0x2B08C955 EQ PUSH2 0x286 JUMPI DUP1 PUSH4 0x3F3BC361 EQ PUSH2 0x28F JUMPI PUSH1 0x0 DUP1 REVERT JUMPDEST DUP1 PUSH4 0x492C22C EQ PUSH2 0x193 JUMPI DUP1 PUSH4 0x13F190D7 EQ PUSH2 0x1A8 JUMPI DUP1 PUSH4 0x1445D873 EQ PUSH2 0x1C4 JUMPI DUP1 PUSH4 0x1C95D81C EQ PUSH2 0x1E4 JUMPI DUP1 PUSH4 0x1F99E274 EQ PUSH2 0x1ED JUMPI DUP1 PUSH4 0x252CF2D2 EQ PUSH2 0x25D JUMPI JUMPDEST PUSH1 0x0 DUP1 REVERT JUMPDEST PUSH2 0x1A6 PUSH2 0x1A1 CALLDATASIZE PUSH1 0x4 PUSH2 0x1BCC JUMP JUMPDEST PUSH2 0x454 JUMP JUMPDEST STOP JUMPDEST PUSH2 0x1B1 PUSH1 0x6 SLOAD DUP2 JUMP JUMPDEST PUSH1 0x40 MLOAD SWAP1 DUP2 MSTORE PUSH1 0x20 ADD JUMPDEST PUSH1 0x40 MLOAD DUP1 SWAP2 SUB SWAP1 RETURN JUMPDEST PUSH2 0x1D7 PUSH2 0x1D2 CALLDATASIZE PUSH1 0x4 PUSH2 0x1C2D JUMP JUMPDEST PUSH2 0x4D4 JUMP JUMPDEST PUSH1 0x40 MLOAD PUSH2 0x1BB SWAP2 SWAP1 PUSH2 0x1C98 JUMP JUMPDEST PUSH2 0x1B1 PUSH1 0xE SLOAD DUP2 JUMP JUMPDEST PUSH2 0x230 PUSH2 0x1FB CALLDATASIZE PUSH1 0x4 PUSH2 0x1C2D JUMP JUMPDEST PUSH1 0x4 PUSH1 0x20 DUP2 SWAP1 MSTORE PUSH1 0x0 SWAP2 DUP3 MSTORE PUSH1 0x40 SWAP1 SWAP2 KECCAK256 DUP1 SLOAD PUSH1 0x1 DUP3 ADD SLOAD PUSH1 0x2 DUP4 ADD SLOAD PUSH1 0x3 DUP5 ADD SLOAD SWAP5 DUP5 ADD SLOAD PUSH1 0x5 SWAP1 SWAP5 ADD SLOAD SWAP3 SWAP5 SWAP2 SWAP4 SWAP1 SWAP3 DUP7 JUMP JUMPDEST PUSH1 0x40 DUP1 MLOAD SWAP7 DUP8 MSTORE PUSH1 0x20 DUP8 ADD SWAP6 SWAP1 SWAP6 MSTORE SWAP4 DUP6 ADD SWAP3 SWAP1 SWAP3 MSTORE PUSH1 0x60 DUP5 ADD MSTORE PUSH1 0x80 DUP4 ADD MSTORE PUSH1 0xA0 DUP3 ADD MSTORE PUSH1 0xC0 ADD PUSH2 0x1BB JUMP JUMPDEST PUSH2 0x1B1 PUSH1 0xA SLOAD DUP2 JUMP JUMPDEST PUSH2 0x279 PUSH2 0x274 CALLDATASIZE PUSH1 0x4 PUSH2 0x1C2D JUMP JUMPDEST PUSH2 0x60C JUMP JUMPDEST PUSH1 0x40 MLOAD PUSH2 0x1BB SWAP2 SWAP1 PUSH2 0x1CFD JUMP JUMPDEST PUSH2 0x1B1 PUSH1 0xD SLOAD DUP2 JUMP JUMPDEST PUSH2 0x1B1 PUSH2 0x29D CALLDATASIZE PUSH1 0x4 PUSH2 0x1C2D JUMP JUMPDEST PUSH1 0xC PUSH1 0x20 MSTORE PUSH1 0x0 SWAP1 DUP2 MSTORE PUSH1 0x40 SWAP1 KECCAK256 SLOAD DUP2 JUMP JUMPDEST PUSH2 0x1B1 PUSH1 0x7 SLOAD DUP2 JUMP JUMPDEST PUSH2 0x2CB PUSH2 0x2C6 CALLDATASIZE PUSH1 0x4 PUSH2 0x1DA9 JUMP JUMPDEST PUSH2 0x752 JUMP JUMPDEST PUSH1 0x40 MLOAD PUSH2 0x1BB SWAP7 SWAP6 SWAP5 SWAP4 SWAP3 SWAP2 SWAP1 PUSH2 0x1DD3 JUMP JUMPDEST PUSH2 0x2F0 PUSH2 0x2EB CALLDATASIZE PUSH1 0x4 PUSH2 0x1C2D JUMP JUMPDEST PUSH2 0x83A JUMP JUMPDEST PUSH1 0x40 MLOAD PUSH2 0x1BB SWAP8 SWAP7 SWAP6 SWAP5 SWAP4 SWAP3 SWAP2 SWAP1 PUSH2 0x1E15 JUMP JUMPDEST PUSH2 0x1A6 PUSH2 0x8FD JUMP JUMPDEST PUSH2 0x1A6 PUSH2 0x319 CALLDATASIZE PUSH1 0x4 PUSH2 0x1E58 JUMP JUMPDEST PUSH2 0x911 JUMP JUMPDEST PUSH2 0x331 PUSH2 0x32C CALLDATASIZE PUSH1 0x4 PUSH2 0x1C2D JUMP JUMPDEST PUSH2 0xABA JUMP JUMPDEST PUSH1 0x40 MLOAD PUSH2 0x1BB SWAP3 SWAP2 SWAP1 PUSH2 0x1E84 JUMP JUMPDEST PUSH1 0x0 SLOAD PUSH1 0x1 PUSH1 0x1 PUSH1 0xA0 SHL SUB AND JUMPDEST PUSH1 0x40 MLOAD PUSH1 0x1 PUSH1 0x1 PUSH1 0xA0 SHL SUB SWAP1 SWAP2 AND DUP2 MSTORE PUSH1 0x20 ADD PUSH2 0x1BB JUMP JUMPDEST PUSH2 0x1B1 PUSH1 0xF SLOAD DUP2 JUMP JUMPDEST PUSH2 0x390 PUSH2 0x37B CALLDATASIZE PUSH1 0x4 PUSH2 0x1C2D JUMP JUMPDEST PUSH1 0x5 PUSH1 0x20 MSTORE PUSH1 0x0 SWAP1 DUP2 MSTORE PUSH1 0x40 SWAP1 KECCAK256 SLOAD PUSH1 0xFF AND DUP2 JUMP JUMPDEST PUSH1 0x40 MLOAD SWAP1 ISZERO ISZERO DUP2 MSTORE PUSH1 0x20 ADD PUSH2 0x1BB JUMP JUMPDEST PUSH2 0x1A6 PUSH2 0x3AE CALLDATASIZE PUSH1 0x4 PUSH2 0x1DA9 JUMP JUMPDEST PUSH2 0xCB5 JUMP JUMPDEST PUSH1 0xD SLOAD PUSH1 0xE SLOAD PUSH1 0xF SLOAD PUSH1 0x0 PUSH1 0x40 DUP1 MLOAD SWAP5 DUP6 MSTORE PUSH1 0x20 DUP6 ADD SWAP4 SWAP1 SWAP4 MSTORE SWAP2 DUP4 ADD MSTORE PUSH1 0x60 DUP3 ADD MSTORE PUSH1 0x80 ADD PUSH2 0x1BB JUMP JUMPDEST PUSH2 0x1A6 PUSH2 0x3EC CALLDATASIZE PUSH1 0x4 PUSH2 0x1E9D JUMP JUMPDEST PUSH2 0xD27 JUMP JUMPDEST PUSH2 0x1B1 PUSH1 0x9 SLOAD DUP2 JUMP JUMPDEST PUSH1 0x10 SLOAD PUSH2 0x34C SWAP1 PUSH1 0x1 PUSH1 0x1 PUSH1 0xA0 SHL SUB AND DUP2 JUMP JUMPDEST PUSH2 0x1B1 PUSH2 0x41B CALLDATASIZE PUSH1 0x4 PUSH2 0x1F0F JUMP JUMPDEST DUP1 MLOAD PUSH1 0x20 DUP2 DUP4 ADD DUP2 ADD DUP1 MLOAD PUSH1 0xB DUP3 MSTORE SWAP3 DUP3 ADD SWAP2 SWAP1 SWAP4 ADD KECCAK256 SWAP2 MSTORE SLOAD DUP2 JUMP JUMPDEST PUSH2 0x1A6 PUSH2 0x446 CALLDATASIZE PUSH1 0x4 PUSH2 0x1C2D JUMP JUMPDEST PUSH2 0xE28 JUMP JUMPDEST PUSH2 0x1B1 PUSH1 0x8 SLOAD DUP2 JUMP JUMPDEST PUSH2 0x45C PUSH2 0xE66 JUMP JUMPDEST PUSH2 0x3E8 DUP2 GT ISZERO PUSH2 0x4AF JUMPI PUSH1 0x40 MLOAD PUSH3 0x461BCD PUSH1 0xE5 SHL DUP2 MSTORE PUSH1 0x20 PUSH1 0x4 DUP3 ADD MSTORE PUSH1 0x19 PUSH1 0x24 DUP3 ADD MSTORE PUSH25 0x5765696768742063616E6E6F7420657863656564203130303 PUSH1 0x3C SHL PUSH1 0x44 DUP3 ADD MSTORE PUSH1 0x64 ADD JUMPDEST PUSH1 0x40 MLOAD DUP1 SWAP2 SUB SWAP1 REVERT JUMPDEST DUP1 PUSH1 0xB DUP4 PUSH1 0x40 MLOAD PUSH2 0x4C0 SWAP2 SWAP1 PUSH2 0x1F44 JUMP JUMPDEST SWAP1 DUP2 MSTORE PUSH1 0x40 MLOAD SWAP1 DUP2 SWAP1 SUB PUSH1 0x20 ADD SWAP1 KECCAK256 SSTORE POP POP JUMP JUMPDEST PUSH2 0x514 PUSH1 0x40 MLOAD DUP1 PUSH1 0xE0 ADD PUSH1 0x40 MSTORE DUP1 PUSH1 0x0 DUP2 MSTORE PUSH1 0x20 ADD PUSH1 0x60 DUP2 MSTORE PUSH1 0x20 ADD PUSH1 0x0 DUP2 MSTORE PUSH1 0x20 ADD PUSH1 0x0 DUP2 MSTORE PUSH1 0x20 ADD PUSH1 0x0 DUP2 MSTORE PUSH1 0x20 ADD PUSH1 0x0 DUP2 MSTORE PUSH1 0x20 ADD PUSH1 0x0 DUP2 MSTORE POP SWAP1 JUMP JUMPDEST PUSH1 0x1 PUSH1 0x1 PUSH1 0xA0 SHL SUB DUP3 AND PUSH1 0x0 SWAP1 DUP2 MSTORE PUSH1 0x2 PUSH1 0x20 SWAP1 DUP2 MSTORE PUSH1 0x40 SWAP2 DUP3 SWAP1 KECCAK256 DUP3 MLOAD PUSH1 0xE0 DUP2 ADD SWAP1 SWAP4 MSTORE DUP1 SLOAD DUP4 MSTORE PUSH1 0x1 DUP2 ADD DUP1 SLOAD SWAP2 SWAP3 DUP5 ADD SWAP2 PUSH2 0x551 SWAP1 PUSH2 0x1F60 JUMP JUMPDEST DUP1 PUSH1 0x1F ADD PUSH1 0x20 DUP1 SWAP2 DIV MUL PUSH1 0x20 ADD PUSH1 0x40 MLOAD SWAP1 DUP2 ADD PUSH1 0x40 MSTORE DUP1 SWAP3 SWAP2 SWAP1 DUP2 DUP2 MSTORE PUSH1 0x20 ADD DUP3 DUP1 SLOAD PUSH2 0x57D SWAP1 PUSH2 0x1F60 JUMP JUMPDEST DUP1 ISZERO PUSH2 0x5CA JUMPI DUP1 PUSH1 0x1F LT PUSH2 0x59F JUMPI PUSH2 0x100 DUP1 DUP4 SLOAD DIV MUL DUP4 MSTORE SWAP2 PUSH1 0x20 ADD SWAP2 PUSH2 0x5CA JUMP JUMPDEST DUP3 ADD SWAP2 SWAP1 PUSH1 0x0 MSTORE PUSH1 0x20 PUSH1 0x0 KECCAK256 SWAP1 JUMPDEST DUP2 SLOAD DUP2 MSTORE SWAP1 PUSH1 0x1 ADD SWAP1 PUSH1 0x20 ADD DUP1 DUP4 GT PUSH2 0x5AD JUMPI DUP3 SWAP1 SUB PUSH1 0x1F AND DUP3 ADD SWAP2 JUMPDEST POP POP POP POP POP DUP2 MSTORE PUSH1 0x20 ADD PUSH1 0x2 DUP3 ADD SLOAD DUP2 MSTORE PUSH1 0x20 ADD PUSH1 0x3 DUP3 ADD SLOAD DUP2 MSTORE PUSH1 0x20 ADD PUSH1 0x4 DUP3 ADD SLOAD DUP2 MSTORE PUSH1 0x20 ADD PUSH1 0x5 DUP3 ADD SLOAD DUP2 MSTORE PUSH1 0x20 ADD PUSH1 0x6 DUP3 ADD SLOAD DUP2 MSTORE POP POP SWAP1 POP SWAP2 SWAP1 POP JUMP JUMPDEST PUSH1 0x1 PUSH1 0x1 PUSH1 0xA0 SHL SUB DUP2 AND PUSH1 0x0 SWAP1 DUP2 MSTORE PUSH1 0x3 PUSH1 0x20 SWAP1 DUP2 MSTORE PUSH1 0x40 DUP1 DUP4 KECCAK256 DUP1 SLOAD DUP3 MLOAD DUP2 DUP6 MUL DUP2 ADD DUP6 ADD SWAP1 SWAP4 MSTORE DUP1 DUP4 MSTORE PUSH1 0x60 SWAP5 SWAP3 SWAP4 SWAP2 SWAP3 SWAP1 SWAP2 DUP5 ADD JUMPDEST DUP3 DUP3 LT ISZERO PUSH2 0x747 JUMPI PUSH1 0x0 DUP5 DUP2 MSTORE PUSH1 0x20 SWAP1 DUP2 SWAP1 KECCAK256 PUSH1 0x40 DUP1 MLOAD PUSH1 0xC0 DUP2 ADD DUP3 MSTORE PUSH1 0x6 DUP7 MUL SWAP1 SWAP3 ADD DUP1 SLOAD PUSH1 0x1 PUSH1 0x1 PUSH1 0xA0 SHL SUB AND DUP4 MSTORE PUSH1 0x1 DUP2 ADD SLOAD SWAP4 DUP4 ADD SWAP4 SWAP1 SWAP4 MSTORE PUSH1 0x2 DUP4 ADD SLOAD SWAP1 DUP3 ADD MSTORE PUSH1 0x3 DUP3 ADD DUP1 SLOAD SWAP2 SWAP3 SWAP2 PUSH1 0x60 DUP5 ADD SWAP2 SWAP1 PUSH2 0x6A2 SWAP1 PUSH2 0x1F60 JUMP JUMPDEST DUP1 PUSH1 0x1F ADD PUSH1 0x20 DUP1 SWAP2 DIV MUL PUSH1 0x20 ADD PUSH1 0x40 MLOAD SWAP1 DUP2 ADD PUSH1 0x40 MSTORE DUP1 SWAP3 SWAP2 SWAP1 DUP2 DUP2 MSTORE PUSH1 0x20 ADD DUP3 DUP1 SLOAD PUSH2 0x6CE SWAP1 PUSH2 0x1F60 JUMP JUMPDEST DUP1 ISZERO PUSH2 0x71B JUMPI DUP1 PUSH1 0x1F LT PUSH2 0x6F0 JUMPI PUSH2 0x100 DUP1 DUP4 SLOAD DIV MUL DUP4 MSTORE SWAP2 PUSH1 0x20 ADD SWAP2 PUSH2 0x71B JUMP JUMPDEST DUP3 ADD SWAP2 SWAP1 PUSH1 0x0 MSTORE PUSH1 0x20 PUSH1 0x0 KECCAK256 SWAP1 JUMPDEST DUP2 SLOAD DUP2 MSTORE SWAP1 PUSH1 0x1 ADD SWAP1 PUSH1 0x20 ADD DUP1 DUP4 GT PUSH2 0x6FE JUMPI DUP3 SWAP1 SUB PUSH1 0x1F AND DUP3 ADD SWAP2 JUMPDEST POP POP POP POP POP DUP2 MSTORE PUSH1 0x20 ADD PUSH1 0x4 DUP3 ADD SLOAD DUP2 MSTORE PUSH1 0x20 ADD PUSH1 0x5 DUP3 ADD SLOAD DUP2 MSTORE POP POP DUP2 MSTORE PUSH1 0x20 ADD SWAP1 PUSH1 0x1 ADD SWAP1 PUSH2 0x644 JUMP JUMPDEST POP POP POP POP SWAP1 POP SWAP2 SWAP1 POP JUMP JUMPDEST PUSH1 0x3 PUSH1 0x20 MSTORE DUP2 PUSH1 0x0 MSTORE PUSH1 0x40 PUSH1 0x0 KECCAK256 DUP2 DUP2 SLOAD DUP2 LT PUSH2 0x76E JUMPI PUSH1 0x0 DUP1 REVERT JUMPDEST PUSH1 0x0 SWAP2 DUP3 MSTORE PUSH1 0x20 SWAP1 SWAP2 KECCAK256 PUSH1 0x6 SWAP1 SWAP2 MUL ADD DUP1 SLOAD PUSH1 0x1 DUP3 ADD SLOAD PUSH1 0x2 DUP4 ADD SLOAD PUSH1 0x3 DUP5 ADD DUP1 SLOAD PUSH1 0x1 PUSH1 0x1 PUSH1 0xA0 SHL SUB SWAP1 SWAP5 AND SWAP7 POP SWAP2 SWAP5 POP SWAP3 SWAP2 PUSH2 0x7AB SWAP1 PUSH2 0x1F60 JUMP JUMPDEST DUP1 PUSH1 0x1F ADD PUSH1 0x20 DUP1 SWAP2 DIV MUL PUSH1 0x20 ADD PUSH1 0x40 MLOAD SWAP1 DUP2 ADD PUSH1 0x40 MSTORE DUP1 SWAP3 SWAP2 SWAP1 DUP2 DUP2 MSTORE PUSH1 0x20 ADD DUP3 DUP1 SLOAD PUSH2 0x7D7 SWAP1 PUSH2 0x1F60 JUMP JUMPDEST DUP1 ISZERO PUSH2 0x824 JUMPI DUP1 PUSH1 0x1F LT PUSH2 0x7F9 JUMPI PUSH2 0x100 DUP1 DUP4 SLOAD DIV MUL DUP4 MSTORE SWAP2 PUSH1 0x20 ADD SWAP2 PUSH2 0x824 JUMP JUMPDEST DUP3 ADD SWAP2 SWAP1 PUSH1 0x0 MSTORE PUSH1 0x20 PUSH1 0x0 KECCAK256 SWAP1 JUMPDEST DUP2 SLOAD DUP2 MSTORE SWAP1 PUSH1 0x1 ADD SWAP1 PUSH1 0x20 ADD DUP1 DUP4 GT PUSH2 0x807 JUMPI DUP3 SWAP1 SUB PUSH1 0x1F AND DUP3 ADD SWAP2 JUMPDEST POP POP POP POP POP SWAP1 DUP1 PUSH1 0x4 ADD SLOAD SWAP1 DUP1 PUSH1 0x5 ADD SLOAD SWAP1 POP DUP7 JUMP JUMPDEST PUSH1 0x2 PUSH1 0x20 MSTORE PUSH1 0x0 SWAP1 DUP2 MSTORE PUSH1 0x40 SWAP1 KECCAK256 DUP1 SLOAD PUSH1 0x1 DUP3 ADD DUP1 SLOAD SWAP2 SWAP3 SWAP2 PUSH2 0x85C SWAP1 PUSH2 0x1F60 JUMP JUMPDEST DUP1 PUSH1 0x1F ADD PUSH1 0x20 DUP1 SWAP2 DIV MUL PUSH1 0x20 ADD PUSH1 0x40 MLOAD SWAP1 DUP2 ADD PUSH1 0x40 MSTORE DUP1 SWAP3 SWAP2 SWAP1 DUP2 DUP2 MSTORE PUSH1 0x20 ADD DUP3 DUP1 SLOAD PUSH2 0x888 SWAP1 PUSH2 0x1F60 JUMP JUMPDEST DUP1 ISZERO PUSH2 0x8D5 JUMPI DUP1 PUSH1 0x1F LT PUSH2 0x8AA JUMPI PUSH2 0x100 DUP1 DUP4 SLOAD DIV MUL DUP4 MSTORE SWAP2 PUSH1 0x20 ADD SWAP2 PUSH2 0x8D5 JUMP JUMPDEST DUP3 ADD SWAP2 SWAP1 PUSH1 0x0 MSTORE PUSH1 0x20 PUSH1 0x0 KECCAK256 SWAP1 JUMPDEST DUP2 SLOAD DUP2 MSTORE SWAP1 PUSH1 0x1 ADD SWAP1 PUSH1 0x20 ADD DUP1 DUP4 GT PUSH2 0x8B8 JUMPI DUP3 SWAP1 SUB PUSH1 0x1F AND DUP3 ADD SWAP2 JUMPDEST POP POP POP POP POP SWAP1 DUP1 PUSH1 0x2 ADD SLOAD SWAP1 DUP1 PUSH1 0x3 ADD SLOAD SWAP1 DUP1 PUSH1 0x4 ADD SLOAD SWAP1 DUP1 PUSH1 0x5 ADD SLOAD SWAP1 DUP1 PUSH1 0x6 ADD SLOAD SWAP1 POP DUP8 JUMP JUMPDEST PUSH2 0x905 PUSH2 0xE66 JUMP JUMPDEST PUSH2 0x90F PUSH1 0x0 PUSH2 0xE93 JUMP JUMPDEST JUMP JUMPDEST PUSH2 0x919 PUSH2 0xE66 JUMP JUMPDEST PUSH2 0x3E8 DUP4 GT ISZERO PUSH2 0x964 JUMPI PUSH1 0x40 MLOAD PUSH3 0x461BCD PUSH1 0xE5 SHL DUP2 MSTORE PUSH1 0x20 PUSH1 0x4 DUP3 ADD MSTORE PUSH1 0x16 PUSH1 0x24 DUP3 ADD MSTORE PUSH22 0x496E76616C6964206D6178207269736B2073636F7265 PUSH1 0x50 SHL PUSH1 0x44 DUP3 ADD MSTORE PUSH1 0x64 ADD PUSH2 0x4A6 JUMP JUMPDEST PUSH2 0x3E8 DUP3 GT ISZERO PUSH2 0x9B6 JUMPI PUSH1 0x40 MLOAD PUSH3 0x461BCD PUSH1 0xE5 SHL DUP2 MSTORE PUSH1 0x20 PUSH1 0x4 DUP3 ADD MSTORE PUSH1 0x1D PUSH1 0x24 DUP3 ADD MSTORE PUSH32 0x496E76616C6964206C69717569646174696F6E207468726573686F6C64000000 PUSH1 0x44 DUP3 ADD MSTORE PUSH1 0x64 ADD PUSH2 0x4A6 JUMP JUMPDEST PUSH2 0x3E8 DUP2 GT ISZERO PUSH2 0xA08 JUMPI PUSH1 0x40 MLOAD PUSH3 0x461BCD PUSH1 0xE5 SHL DUP2 MSTORE PUSH1 0x20 PUSH1 0x4 DUP3 ADD MSTORE PUSH1 0x19 PUSH1 0x24 DUP3 ADD MSTORE PUSH32 0x496E76616C6964207761726E696E67207468726573686F6C6400000000000000 PUSH1 0x44 DUP3 ADD MSTORE PUSH1 0x64 ADD PUSH2 0x4A6 JUMP JUMPDEST DUP2 DUP2 LT PUSH2 0xA65 JUMPI PUSH1 0x40 MLOAD PUSH3 0x461BCD PUSH1 0xE5 SHL DUP2 MSTORE PUSH1 0x20 PUSH1 0x4 DUP3 ADD MSTORE PUSH1 0x25 PUSH1 0x24 DUP3 ADD MSTORE PUSH32 0x5761726E696E67206D757374206265206C657373207468616E206C6971756964 PUSH1 0x44 DUP3 ADD MSTORE PUSH5 0x30BA34B7B7 PUSH1 0xD9 SHL PUSH1 0x64 DUP3 ADD MSTORE PUSH1 0x84 ADD PUSH2 0x4A6 JUMP JUMPDEST PUSH1 0x6 DUP4 SWAP1 SSTORE PUSH1 0x7 DUP3 SWAP1 SSTORE PUSH1 0x8 DUP2 SWAP1 SSTORE PUSH1 0x40 DUP1 MLOAD DUP5 DUP2 MSTORE PUSH1 0x20 DUP2 ADD DUP5 SWAP1 MSTORE SWAP1 DUP2 ADD DUP3 SWAP1 MSTORE PUSH32 0xCA49799FEC639051EE77A7EF822992984F069AE6A4D7DA4106C5A59B6A6E4CAE SWAP1 PUSH1 0x60 ADD PUSH1 0x40 MLOAD DUP1 SWAP2 SUB SWAP1 LOG1 POP POP POP JUMP JUMPDEST PUSH1 0x0 PUSH1 0x60 PUSH1 0x1 PUSH1 0x1 PUSH1 0xA0 SHL SUB DUP4 AND PUSH2 0xB0B JUMPI PUSH1 0x40 MLOAD PUSH3 0x461BCD PUSH1 0xE5 SHL DUP2 MSTORE PUSH1 0x20 PUSH1 0x4 DUP3 ADD MSTORE PUSH1 0x14 PUSH1 0x24 DUP3 ADD MSTORE PUSH20 0x496E76616C696420757365722061646472657373 PUSH1 0x60 SHL PUSH1 0x44 DUP3 ADD MSTORE PUSH1 0x64 ADD PUSH2 0x4A6 JUMP JUMPDEST PUSH1 0x0 PUSH2 0xB16 DUP5 PUSH2 0xEE3 JUMP JUMPDEST SWAP1 POP PUSH2 0xB21 DUP2 PUSH2 0x122C JUMP JUMPDEST SWAP3 POP PUSH2 0xB2C DUP4 PUSH2 0x12E8 JUMP JUMPDEST SWAP2 POP PUSH1 0x40 MLOAD DUP1 PUSH1 0xE0 ADD PUSH1 0x40 MSTORE DUP1 DUP5 DUP2 MSTORE PUSH1 0x20 ADD DUP4 DUP2 MSTORE PUSH1 0x20 ADD DUP3 PUSH1 0x0 ADD MLOAD DUP2 MSTORE PUSH1 0x20 ADD DUP3 PUSH1 0x80 ADD MLOAD DUP2 MSTORE PUSH1 0x20 ADD PUSH2 0xB62 DUP7 PUSH2 0x13B7 JUMP JUMPDEST DUP2 MSTORE PUSH1 0x20 ADD PUSH2 0xB70 DUP7 PUSH2 0x15ED JUMP JUMPDEST DUP2 MSTORE TIMESTAMP PUSH1 0x20 SWAP2 DUP3 ADD MSTORE PUSH1 0x1 PUSH1 0x1 PUSH1 0xA0 SHL SUB DUP7 AND PUSH1 0x0 SWAP1 DUP2 MSTORE PUSH1 0x2 DUP3 MSTORE PUSH1 0x40 SWAP1 KECCAK256 DUP3 MLOAD DUP2 SSTORE SWAP1 DUP3 ADD MLOAD PUSH1 0x1 DUP3 ADD SWAP1 PUSH2 0xBA7 SWAP1 DUP3 PUSH2 0x1FE9 JUMP JUMPDEST POP PUSH1 0x40 DUP3 ADD MLOAD DUP2 PUSH1 0x2 ADD SSTORE PUSH1 0x60 DUP3 ADD MLOAD DUP2 PUSH1 0x3 ADD SSTORE PUSH1 0x80 DUP3 ADD MLOAD DUP2 PUSH1 0x4 ADD SSTORE PUSH1 0xA0 DUP3 ADD MLOAD DUP2 PUSH1 0x5 ADD SSTORE PUSH1 0xC0 DUP3 ADD MLOAD DUP2 PUSH1 0x6 ADD SSTORE SWAP1 POP POP DUP1 PUSH1 0x4 PUSH1 0x0 DUP7 PUSH1 0x1 PUSH1 0x1 PUSH1 0xA0 SHL SUB AND PUSH1 0x1 PUSH1 0x1 PUSH1 0xA0 SHL SUB AND DUP2 MSTORE PUSH1 0x20 ADD SWAP1 DUP2 MSTORE PUSH1 0x20 ADD PUSH1 0x0 KECCAK256 PUSH1 0x0 DUP3 ADD MLOAD DUP2 PUSH1 0x0 ADD SSTORE PUSH1 0x20 DUP3 ADD MLOAD DUP2 PUSH1 0x1 ADD SSTORE PUSH1 0x40 DUP3 ADD MLOAD DUP2 PUSH1 0x2 ADD SSTORE PUSH1 0x60 DUP3 ADD MLOAD DUP2 PUSH1 0x3 ADD SSTORE PUSH1 0x80 DUP3 ADD MLOAD DUP2 PUSH1 0x4 ADD SSTORE PUSH1 0xA0 DUP3 ADD MLOAD DUP2 PUSH1 0x5 ADD SSTORE SWAP1 POP POP PUSH1 0xD PUSH1 0x0 DUP2 SLOAD DUP1 SWAP3 SWAP2 SWAP1 PUSH2 0xC55 SWAP1 PUSH2 0x20BF JUMP JUMPDEST SWAP2 SWAP1 POP SSTORE POP PUSH2 0xC64 DUP5 DUP5 PUSH2 0x17BD JUMP JUMPDEST DUP4 PUSH1 0x1 PUSH1 0x1 PUSH1 0xA0 SHL SUB AND PUSH32 0xCC475F71DA638088F35254F0CBF7C2973EE17C563FCF768FCD2B9A433FA6CE72 DUP5 DUP5 DUP5 PUSH1 0x0 ADD MLOAD TIMESTAMP PUSH1 0x40 MLOAD PUSH2 0xCA7 SWAP5 SWAP4 SWAP3 SWAP2 SWAP1 PUSH2 0x20D8 JUMP JUMPDEST PUSH1 0x40 MLOAD DUP1 SWAP2 SUB SWAP1 LOG2 POP SWAP2 POP SWAP2 JUMP JUMPDEST PUSH2 0xCBD PUSH2 0xE66 JUMP JUMPDEST PUSH2 0x3E8 DUP2 GT ISZERO PUSH2 0xD0B JUMPI PUSH1 0x40 MLOAD PUSH3 0x461BCD PUSH1 0xE5 SHL DUP2 MSTORE PUSH1 0x20 PUSH1 0x4 DUP3 ADD MSTORE PUSH1 0x19 PUSH1 0x24 DUP3 ADD MSTORE PUSH25 0x5765696768742063616E6E6F7420657863656564203130303 PUSH1 0x3C SHL PUSH1 0x44 DUP3 ADD MSTORE PUSH1 0x64 ADD PUSH2 0x4A6 JUMP JUMPDEST PUSH1 0x1 PUSH1 0x1 PUSH1 0xA0 SHL SUB SWAP1 SWAP2 AND PUSH1 0x0 SWAP1 DUP2 MSTORE PUSH1 0xC PUSH1 0x20 MSTORE PUSH1 0x40 SWAP1 KECCAK256 SSTORE JUMP JUMPDEST PUSH1 0x1 PUSH1 0x1 PUSH1 0xA0 SHL SUB DUP1 DUP7 AND PUSH1 0x0 SWAP1 DUP2 MSTORE PUSH1 0x3 PUSH1 0x20 SWAP1 DUP2 MSTORE PUSH1 0x40 DUP1 DUP4 KECCAK256 DUP2 MLOAD PUSH1 0xC0 DUP2 ADD DUP4 MSTORE SWAP5 DUP10 AND DUP1 DUP7 MSTORE DUP6 DUP5 ADD DUP10 SWAP1 MSTORE DUP6 DUP4 ADD DUP9 SWAP1 MSTORE PUSH1 0x60 DUP7 ADD DUP8 SWAP1 MSTORE TIMESTAMP PUSH1 0x80 DUP8 ADD MSTORE DUP5 MSTORE PUSH1 0xC SWAP1 SWAP3 MSTORE SWAP1 SWAP2 KECCAK256 SLOAD SWAP1 SWAP2 SWAP1 PUSH1 0xA0 DUP3 ADD SWAP1 PUSH2 0xD89 JUMPI PUSH2 0x1F4 PUSH2 0xDA3 JUMP JUMPDEST PUSH1 0x1 PUSH1 0x1 PUSH1 0xA0 SHL SUB DUP8 AND PUSH1 0x0 SWAP1 DUP2 MSTORE PUSH1 0xC PUSH1 0x20 MSTORE PUSH1 0x40 SWAP1 KECCAK256 SLOAD JUMPDEST SWAP1 MSTORE DUP2 SLOAD PUSH1 0x1 DUP1 DUP3 ADD DUP5 SSTORE PUSH1 0x0 SWAP4 DUP5 MSTORE PUSH1 0x20 SWAP4 DUP5 SWAP1 KECCAK256 DUP4 MLOAD PUSH1 0x6 SWAP1 SWAP4 MUL ADD DUP1 SLOAD PUSH1 0x1 PUSH1 0x1 PUSH1 0xA0 SHL SUB NOT AND PUSH1 0x1 PUSH1 0x1 PUSH1 0xA0 SHL SUB SWAP1 SWAP4 AND SWAP3 SWAP1 SWAP3 OR DUP3 SSTORE SWAP3 DUP3 ADD MLOAD SWAP3 DUP2 ADD SWAP3 SWAP1 SWAP3 SSTORE PUSH1 0x40 DUP2 ADD MLOAD PUSH1 0x2 DUP4 ADD SSTORE PUSH1 0x60 DUP2 ADD MLOAD SWAP1 SWAP2 SWAP1 PUSH1 0x3 DUP3 ADD SWAP1 PUSH2 0xE0A SWAP1 DUP3 PUSH2 0x1FE9 JUMP JUMPDEST POP PUSH1 0x80 DUP3 ADD MLOAD DUP2 PUSH1 0x4 ADD SSTORE PUSH1 0xA0 DUP3 ADD MLOAD DUP2 PUSH1 0x5 ADD SSTORE POP POP POP POP POP POP POP JUMP JUMPDEST PUSH2 0xE30 PUSH2 0xE66 JUMP JUMPDEST PUSH1 0x1 PUSH1 0x1 PUSH1 0xA0 SHL SUB DUP2 AND PUSH2 0xE5A JUMPI PUSH1 0x40 MLOAD PUSH4 0x1E4FBDF7 PUSH1 0xE0 SHL DUP2 MSTORE PUSH1 0x0 PUSH1 0x4 DUP3 ADD MSTORE PUSH1 0x24 ADD PUSH2 0x4A6 JUMP JUMPDEST PUSH2 0xE63 DUP2 PUSH2 0xE93 JUMP JUMPDEST POP JUMP JUMPDEST PUSH1 0x0 SLOAD PUSH1 0x1 PUSH1 0x1 PUSH1 0xA0 SHL SUB AND CALLER EQ PUSH2 0x90F JUMPI PUSH1 0x40 MLOAD PUSH4 0x118CDAA7 PUSH1 0xE0 SHL DUP2 MSTORE CALLER PUSH1 0x4 DUP3 ADD MSTORE PUSH1 0x24 ADD PUSH2 0x4A6 JUMP JUMPDEST PUSH1 0x0 DUP1 SLOAD PUSH1 0x1 PUSH1 0x1 PUSH1 0xA0 SHL SUB DUP4 DUP2 AND PUSH1 0x1 PUSH1 0x1 PUSH1 0xA0 SHL SUB NOT DUP4 AND DUP2 OR DUP5 SSTORE PUSH1 0x40 MLOAD SWAP2 SWAP1 SWAP3 AND SWAP3 DUP4 SWAP2 PUSH32 0x8BE0079C531659141344CD1FD0A4F28419497F9722A3DAAFE3B4186F6B6457E0 SWAP2 SWAP1 LOG3 POP POP JUMP JUMPDEST PUSH2 0xF1C PUSH1 0x40 MLOAD DUP1 PUSH1 0xC0 ADD PUSH1 0x40 MSTORE DUP1 PUSH1 0x0 DUP2 MSTORE PUSH1 0x20 ADD PUSH1 0x0 DUP2 MSTORE PUSH1 0x20 ADD PUSH1 0x0 DUP2 MSTORE PUSH1 0x20 ADD PUSH1 0x0 DUP2 MSTORE PUSH1 0x20 ADD PUSH1 0x0 DUP2 MSTORE PUSH1 0x20 ADD PUSH1 0x0 DUP2 MSTORE POP SWAP1 JUMP JUMPDEST PUSH1 0x1 PUSH1 0x1 PUSH1 0xA0 SHL SUB DUP3 AND PUSH1 0x0 SWAP1 DUP2 MSTORE PUSH1 0x3 PUSH1 0x20 SWAP1 DUP2 MSTORE PUSH1 0x40 DUP1 DUP4 KECCAK256 DUP1 SLOAD DUP3 MLOAD DUP2 DUP6 MUL DUP2 ADD DUP6 ADD SWAP1 SWAP4 MSTORE DUP1 DUP4 MSTORE SWAP2 SWAP3 SWAP1 SWAP2 SWAP1 DUP5 SWAP1 DUP5 ADD JUMPDEST DUP3 DUP3 LT ISZERO PUSH2 0x1055 JUMPI PUSH1 0x0 DUP5 DUP2 MSTORE PUSH1 0x20 SWAP1 DUP2 SWAP1 KECCAK256 PUSH1 0x40 DUP1 MLOAD PUSH1 0xC0 DUP2 ADD DUP3 MSTORE PUSH1 0x6 DUP7 MUL SWAP1 SWAP3 ADD DUP1 SLOAD PUSH1 0x1 PUSH1 0x1 PUSH1 0xA0 SHL SUB AND DUP4 MSTORE PUSH1 0x1 DUP2 ADD SLOAD SWAP4 DUP4 ADD SWAP4 SWAP1 SWAP4 MSTORE PUSH1 0x2 DUP4 ADD SLOAD SWAP1 DUP3 ADD MSTORE PUSH1 0x3 DUP3 ADD DUP1 SLOAD SWAP2 SWAP3 SWAP2 PUSH1 0x60 DUP5 ADD SWAP2 SWAP1 PUSH2 0xFB0 SWAP1 PUSH2 0x1F60 JUMP JUMPDEST DUP1 PUSH1 0x1F ADD PUSH1 0x20 DUP1 SWAP2 DIV MUL PUSH1 0x20 ADD PUSH1 0x40 MLOAD SWAP1 DUP2 ADD PUSH1 0x40 MSTORE DUP1 SWAP3 SWAP2 SWAP1 DUP2 DUP2 MSTORE PUSH1 0x20 ADD DUP3 DUP1 SLOAD PUSH2 0xFDC SWAP1 PUSH2 0x1F60 JUMP JUMPDEST DUP1 ISZERO PUSH2 0x1029 JUMPI DUP1 PUSH1 0x1F LT PUSH2 0xFFE JUMPI PUSH2 0x100 DUP1 DUP4 SLOAD DIV MUL DUP4 MSTORE SWAP2 PUSH1 0x20 ADD SWAP2 PUSH2 0x1029 JUMP JUMPDEST DUP3 ADD SWAP2 SWAP1 PUSH1 0x0 MSTORE PUSH1 0x20 PUSH1 0x0 KECCAK256 SWAP1 JUMPDEST DUP2 SLOAD DUP2 MSTORE SWAP1 PUSH1 0x1 ADD SWAP1 PUSH1 0x20 ADD DUP1 DUP4 GT PUSH2 0x100C JUMPI DUP3 SWAP1 SUB PUSH1 0x1F AND DUP3 ADD SWAP2 JUMPDEST POP POP POP POP POP DUP2 MSTORE PUSH1 0x20 ADD PUSH1 0x4 DUP3 ADD SLOAD DUP2 MSTORE PUSH1 0x20 ADD PUSH1 0x5 DUP3 ADD SLOAD DUP2 MSTORE POP POP DUP2 MSTORE PUSH1 0x20 ADD SWAP1 PUSH1 0x1 ADD SWAP1 PUSH2 0xF52 JUMP JUMPDEST POP POP POP POP SWAP1 POP DUP1 MLOAD PUSH1 0x0 SUB PUSH2 0x10A1 JUMPI PUSH1 0x40 MLOAD DUP1 PUSH1 0xC0 ADD PUSH1 0x40 MSTORE DUP1 PUSH1 0x0 DUP2 MSTORE PUSH1 0x20 ADD PUSH1 0x0 DUP2 MSTORE PUSH1 0x20 ADD PUSH2 0x3E8 DUP2 MSTORE PUSH1 0x20 ADD PUSH2 0x3E8 DUP2 MSTORE PUSH1 0x20 ADD PUSH1 0x0 DUP2 MSTORE PUSH1 0x20 ADD PUSH1 0x0 DUP2 MSTORE POP SWAP2 POP POP SWAP2 SWAP1 POP JUMP JUMPDEST PUSH1 0x0 DUP1 PUSH1 0x0 DUP1 JUMPDEST DUP5 MLOAD DUP2 LT ISZERO PUSH2 0x11A4 JUMPI PUSH1 0x0 DUP6 DUP3 DUP2 MLOAD DUP2 LT PUSH2 0x10C5 JUMPI PUSH2 0x10C5 PUSH2 0x2104 JUMP JUMPDEST PUSH1 0x20 MUL PUSH1 0x20 ADD ADD MLOAD SWAP1 POP DUP1 PUSH1 0x40 ADD MLOAD DUP6 PUSH2 0x10DF SWAP2 SWAP1 PUSH2 0x211A JUMP JUMPDEST DUP2 MLOAD PUSH1 0x1 PUSH1 0x1 PUSH1 0xA0 SHL SUB AND PUSH1 0x0 SWAP1 DUP2 MSTORE PUSH1 0xC PUSH1 0x20 MSTORE PUSH1 0x40 DUP2 KECCAK256 SLOAD SWAP2 SWAP7 POP DUP2 SWAP1 SUB PUSH2 0x1108 JUMPI POP PUSH2 0x1F4 JUMPDEST PUSH1 0x0 PUSH1 0xB DUP4 PUSH1 0x60 ADD MLOAD PUSH1 0x40 MLOAD PUSH2 0x111E SWAP2 SWAP1 PUSH2 0x1F44 JUMP JUMPDEST SWAP1 DUP2 MSTORE PUSH1 0x20 ADD PUSH1 0x40 MLOAD DUP1 SWAP2 SUB SWAP1 KECCAK256 SLOAD SWAP1 POP DUP1 PUSH1 0x0 SUB PUSH2 0x113C JUMPI POP PUSH2 0x320 JUMPDEST PUSH2 0x3E8 DUP3 DUP5 PUSH1 0x40 ADD MLOAD PUSH2 0x114F SWAP2 SWAP1 PUSH2 0x2133 JUMP JUMPDEST PUSH2 0x1159 SWAP2 SWAP1 PUSH2 0x214A JUMP JUMPDEST PUSH2 0x1163 SWAP1 DUP8 PUSH2 0x211A JUMP JUMPDEST SWAP6 POP PUSH2 0x3E8 DUP2 DUP5 PUSH1 0x40 ADD MLOAD PUSH2 0x1178 SWAP2 SWAP1 PUSH2 0x2133 JUMP JUMPDEST PUSH2 0x1182 SWAP2 SWAP1 PUSH2 0x214A JUMP JUMPDEST PUSH2 0x118C SWAP1 DUP7 PUSH2 0x211A JUMP JUMPDEST SWAP5 POP POP POP POP DUP1 DUP1 PUSH2 0x119C SWAP1 PUSH2 0x20BF JUMP JUMPDEST SWAP2 POP POP PUSH2 0x10A8 JUMP JUMPDEST POP DUP3 ISZERO PUSH2 0x11DE JUMPI DUP3 PUSH2 0x11B8 DUP4 PUSH2 0x3E8 PUSH2 0x2133 JUMP JUMPDEST PUSH2 0x11C2 SWAP2 SWAP1 PUSH2 0x214A JUMP JUMPDEST SWAP2 POP DUP3 PUSH2 0x11D1 DUP3 PUSH2 0x3E8 PUSH2 0x2133 JUMP JUMPDEST PUSH2 0x11DB SWAP2 SWAP1 PUSH2 0x214A JUMP JUMPDEST SWAP1 POP JUMPDEST PUSH1 0x40 MLOAD DUP1 PUSH1 0xC0 ADD PUSH1 0x40 MSTORE DUP1 DUP5 DUP2 MSTORE PUSH1 0x20 ADD DUP4 DUP2 MSTORE PUSH1 0x20 ADD PUSH2 0x11FE DUP7 PUSH2 0x17E7 JUMP JUMPDEST DUP2 MSTORE PUSH1 0x20 ADD PUSH2 0x120C DUP7 PUSH2 0x1856 JUMP JUMPDEST DUP2 MSTORE PUSH1 0x20 ADD PUSH2 0x121A DUP7 PUSH2 0x18E3 JUMP JUMPDEST DUP2 MSTORE PUSH1 0x20 ADD SWAP2 SWAP1 SWAP2 MSTORE SWAP6 SWAP5 POP POP POP POP POP JUMP JUMPDEST PUSH1 0x0 DUP1 PUSH1 0x64 DUP4 PUSH1 0xA0 ADD MLOAD PUSH1 0xA PUSH2 0x1242 SWAP2 SWAP1 PUSH2 0x2133 JUMP JUMPDEST PUSH1 0x80 DUP6 ADD MLOAD PUSH2 0x1252 SWAP1 PUSH1 0xF PUSH2 0x2133 JUMP JUMPDEST PUSH1 0x60 DUP7 ADD MLOAD PUSH2 0x1263 SWAP1 PUSH2 0x3E8 PUSH2 0x216C JUMP JUMPDEST PUSH2 0x126E SWAP1 PUSH1 0x14 PUSH2 0x2133 JUMP JUMPDEST PUSH1 0x40 DUP8 ADD MLOAD PUSH2 0x127F SWAP1 PUSH2 0x3E8 PUSH2 0x216C JUMP JUMPDEST PUSH2 0x128A SWAP1 PUSH1 0x19 PUSH2 0x2133 JUMP JUMPDEST PUSH1 0x20 DUP9 ADD MLOAD PUSH2 0x129A SWAP1 PUSH1 0x1E PUSH2 0x2133 JUMP JUMPDEST PUSH2 0x12A4 SWAP2 SWAP1 PUSH2 0x211A JUMP JUMPDEST PUSH2 0x12AE SWAP2 SWAP1 PUSH2 0x211A JUMP JUMPDEST PUSH2 0x12B8 SWAP2 SWAP1 PUSH2 0x211A JUMP JUMPDEST PUSH2 0x12C2 SWAP2 SWAP1 PUSH2 0x211A JUMP JUMPDEST PUSH2 0x12CC SWAP2 SWAP1 PUSH2 0x214A JUMP JUMPDEST SWAP1 POP PUSH2 0x3E8 DUP2 GT PUSH2 0x12DD JUMPI DUP1 PUSH2 0x12E1 JUMP JUMPDEST PUSH2 0x3E8 JUMPDEST SWAP4 SWAP3 POP POP POP JUMP JUMPDEST PUSH1 0x60 PUSH1 0xC8 DUP3 GT PUSH2 0x1316 JUMPI POP POP PUSH1 0x40 DUP1 MLOAD DUP1 DUP3 ADD SWAP1 SWAP2 MSTORE PUSH1 0x8 DUP2 MSTORE PUSH8 0x56657279204C6F77 PUSH1 0xC0 SHL PUSH1 0x20 DUP3 ADD MSTORE SWAP1 JUMP JUMPDEST PUSH2 0x190 DUP3 GT PUSH2 0x133E JUMPI POP POP PUSH1 0x40 DUP1 MLOAD DUP1 DUP3 ADD SWAP1 SWAP2 MSTORE PUSH1 0x3 DUP2 MSTORE PUSH3 0x4C6F77 PUSH1 0xE8 SHL PUSH1 0x20 DUP3 ADD MSTORE SWAP1 JUMP JUMPDEST PUSH2 0x258 DUP3 GT PUSH2 0x1369 JUMPI POP POP PUSH1 0x40 DUP1 MLOAD DUP1 DUP3 ADD SWAP1 SWAP2 MSTORE PUSH1 0x6 DUP2 MSTORE PUSH6 0x4D656469756D PUSH1 0xD0 SHL PUSH1 0x20 DUP3 ADD MSTORE SWAP1 JUMP JUMPDEST PUSH2 0x320 DUP3 GT PUSH2 0x1392 JUMPI POP POP PUSH1 0x40 DUP1 MLOAD DUP1 DUP3 ADD SWAP1 SWAP2 MSTORE PUSH1 0x4 DUP2 MSTORE PUSH4 0x90D2CED PUSH1 0xE3 SHL PUSH1 0x20 DUP3 ADD MSTORE SWAP1 JUMP JUMPDEST POP POP PUSH1 0x40 DUP1 MLOAD DUP1 DUP3 ADD SWAP1 SWAP2 MSTORE PUSH1 0x9 DUP2 MSTORE PUSH9 0xACCAE4F24090D2CED PUSH1 0xBB SHL PUSH1 0x20 DUP3 ADD MSTORE SWAP1 JUMP JUMPDEST PUSH1 0x1 PUSH1 0x1 PUSH1 0xA0 SHL SUB DUP2 AND PUSH1 0x0 SWAP1 DUP2 MSTORE PUSH1 0x3 PUSH1 0x20 SWAP1 DUP2 MSTORE PUSH1 0x40 DUP1 DUP4 KECCAK256 DUP1 SLOAD DUP3 MLOAD DUP2 DUP6 MUL DUP2 ADD DUP6 ADD SWAP1 SWAP4 MSTORE DUP1 DUP4 MSTORE DUP5 SWAP4 DUP5 SWAP1 DUP5 ADD JUMPDEST DUP3 DUP3 LT ISZERO PUSH2 0x14ED JUMPI PUSH1 0x0 DUP5 DUP2 MSTORE PUSH1 0x20 SWAP1 DUP2 SWAP1 KECCAK256 PUSH1 0x40 DUP1 MLOAD PUSH1 0xC0 DUP2 ADD DUP3 MSTORE PUSH1 0x6 DUP7 MUL SWAP1 SWAP3 ADD DUP1 SLOAD PUSH1 0x1 PUSH1 0x1 PUSH1 0xA0 SHL SUB AND DUP4 MSTORE PUSH1 0x1 DUP2 ADD SLOAD SWAP4 DUP4 ADD SWAP4 SWAP1 SWAP4 MSTORE PUSH1 0x2 DUP4 ADD SLOAD SWAP1 DUP3 ADD MSTORE PUSH1 0x3 DUP3 ADD DUP1 SLOAD SWAP2 SWAP3 SWAP2 PUSH1 0x60 DUP5 ADD SWAP2 SWAP1 PUSH2 0x1448 SWAP1 PUSH2 0x1F60 JUMP JUMPDEST DUP1 PUSH1 0x1F ADD PUSH1 0x20 DUP1 SWAP2 DIV MUL PUSH1 0x20 ADD PUSH1 0x40 MLOAD SWAP1 DUP2 ADD PUSH1 0x40 MSTORE DUP1 SWAP3 SWAP2 SWAP1 DUP2 DUP2 MSTORE PUSH1 0x20 ADD DUP3 DUP1 SLOAD PUSH2 0x1474 SWAP1 PUSH2 0x1F60 JUMP JUMPDEST DUP1 ISZERO PUSH2 0x14C1 JUMPI DUP1 PUSH1 0x1F LT PUSH2 0x1496 JUMPI PUSH2 0x100 DUP1 DUP4 SLOAD DIV MUL DUP4 MSTORE SWAP2 PUSH1 0x20 ADD SWAP2 PUSH2 0x14C1 JUMP JUMPDEST DUP3 ADD SWAP2 SWAP1 PUSH1 0x0 MSTORE PUSH1 0x20 PUSH1 0x0 KECCAK256 SWAP1 JUMPDEST DUP2 SLOAD DUP2 MSTORE SWAP1 PUSH1 0x1 ADD SWAP1 PUSH1 0x20 ADD DUP1 DUP4 GT PUSH2 0x14A4 JUMPI DUP3 SWAP1 SUB PUSH1 0x1F AND DUP3 ADD SWAP2 JUMPDEST POP POP POP POP POP DUP2 MSTORE PUSH1 0x20 ADD PUSH1 0x4 DUP3 ADD SLOAD DUP2 MSTORE PUSH1 0x20 ADD PUSH1 0x5 DUP3 ADD SLOAD DUP2 MSTORE POP POP DUP2 MSTORE PUSH1 0x20 ADD SWAP1 PUSH1 0x1 ADD SWAP1 PUSH2 0x13EA JUMP JUMPDEST POP POP POP POP SWAP1 POP DUP1 MLOAD PUSH1 0x0 SUB PUSH2 0x1505 JUMPI POP PUSH1 0x0 SWAP3 SWAP2 POP POP JUMP JUMPDEST PUSH1 0x0 DUP1 PUSH1 0x0 JUMPDEST DUP4 MLOAD DUP2 LT ISZERO PUSH2 0x1597 JUMPI DUP4 DUP2 DUP2 MLOAD DUP2 LT PUSH2 0x1526 JUMPI PUSH2 0x1526 PUSH2 0x2104 JUMP JUMPDEST PUSH1 0x20 MUL PUSH1 0x20 ADD ADD MLOAD PUSH1 0x40 ADD MLOAD DUP4 PUSH2 0x153D SWAP2 SWAP1 PUSH2 0x211A JUMP JUMPDEST SWAP3 POP DUP2 DUP5 DUP3 DUP2 MLOAD DUP2 LT PUSH2 0x1552 JUMPI PUSH2 0x1552 PUSH2 0x2104 JUMP JUMPDEST PUSH1 0x20 MUL PUSH1 0x20 ADD ADD MLOAD PUSH1 0x40 ADD MLOAD GT ISZERO PUSH2 0x1585 JUMPI DUP4 DUP2 DUP2 MLOAD DUP2 LT PUSH2 0x1576 JUMPI PUSH2 0x1576 PUSH2 0x2104 JUMP JUMPDEST PUSH1 0x20 MUL PUSH1 0x20 ADD ADD MLOAD PUSH1 0x40 ADD MLOAD SWAP2 POP JUMPDEST DUP1 PUSH2 0x158F DUP2 PUSH2 0x20BF JUMP JUMPDEST SWAP2 POP POP PUSH2 0x150B JUMP JUMPDEST POP DUP2 PUSH1 0x0 SUB PUSH2 0x15AB JUMPI POP PUSH1 0x0 SWAP5 SWAP4 POP POP POP POP JUMP JUMPDEST PUSH1 0x0 DUP3 PUSH2 0x15BA DUP4 PUSH2 0x3E8 PUSH2 0x2133 JUMP JUMPDEST PUSH2 0x15C4 SWAP2 SWAP1 PUSH2 0x214A JUMP JUMPDEST SWAP1 POP PUSH1 0x9 SLOAD DUP2 GT PUSH2 0x15D6 JUMPI PUSH1 0x0 PUSH2 0x15E3 JUMP JUMPDEST PUSH1 0x9 SLOAD PUSH2 0x15E3 SWAP1 DUP3 PUSH2 0x216C JUMP JUMPDEST SWAP7 SWAP6 POP POP POP POP POP POP JUMP JUMPDEST PUSH1 0x1 PUSH1 0x1 PUSH1 0xA0 SHL SUB DUP2 AND PUSH1 0x0 SWAP1 DUP2 MSTORE PUSH1 0x3 PUSH1 0x20 SWAP1 DUP2 MSTORE PUSH1 0x40 DUP1 DUP4 KECCAK256 DUP1 SLOAD DUP3 MLOAD DUP2 DUP6 MUL DUP2 ADD DUP6 ADD SWAP1 SWAP4 MSTORE DUP1 DUP4 MSTORE DUP5 SWAP4 DUP5 SWAP1 DUP5 ADD JUMPDEST DUP3 DUP3 LT ISZERO PUSH2 0x1723 JUMPI PUSH1 0x0 DUP5 DUP2 MSTORE PUSH1 0x20 SWAP1 DUP2 SWAP1 KECCAK256 PUSH1 0x40 DUP1 MLOAD PUSH1 0xC0 DUP2 ADD DUP3 MSTORE PUSH1 0x6 DUP7 MUL SWAP1 SWAP3 ADD DUP1 SLOAD PUSH1 0x1 PUSH1 0x1 PUSH1 0xA0 SHL SUB AND DUP4 MSTORE PUSH1 0x1 DUP2 ADD SLOAD SWAP4 DUP4 ADD SWAP4 SWAP1 SWAP4 MSTORE PUSH1 0x2 DUP4 ADD SLOAD SWAP1 DUP3 ADD MSTORE PUSH1 0x3 DUP3 ADD DUP1 SLOAD SWAP2 SWAP3 SWAP2 PUSH1 0x60 DUP5 ADD SWAP2 SWAP1 PUSH2 0x167E SWAP1 PUSH2 0x1F60 JUMP JUMPDEST DUP1 PUSH1 0x1F ADD PUSH1 0x20 DUP1 SWAP2 DIV MUL PUSH1 0x20 ADD PUSH1 0x40 MLOAD SWAP1 DUP2 ADD PUSH1 0x40 MSTORE DUP1 SWAP3 SWAP2 SWAP1 DUP2 DUP2 MSTORE PUSH1 0x20 ADD DUP3 DUP1 SLOAD PUSH2 0x16AA SWAP1 PUSH2 0x1F60 JUMP JUMPDEST DUP1 ISZERO PUSH2 0x16F7 JUMPI DUP1 PUSH1 0x1F LT PUSH2 0x16CC JUMPI PUSH2 0x100 DUP1 DUP4 SLOAD DIV MUL DUP4 MSTORE SWAP2 PUSH1 0x20 ADD SWAP2 PUSH2 0x16F7 JUMP JUMPDEST DUP3 ADD SWAP2 SWAP1 PUSH1 0x0 MSTORE PUSH1 0x20 PUSH1 0x0 KECCAK256 SWAP1 JUMPDEST DUP2 SLOAD DUP2 MSTORE SWAP1 PUSH1 0x1 ADD SWAP1 PUSH1 0x20 ADD DUP1 DUP4 GT PUSH2 0x16DA JUMPI DUP3 SWAP1 SUB PUSH1 0x1F AND DUP3 ADD SWAP2 JUMPDEST POP POP POP POP POP DUP2 MSTORE PUSH1 0x20 ADD PUSH1 0x4 DUP3 ADD SLOAD DUP2 MSTORE PUSH1 0x20 ADD PUSH1 0x5 DUP3 ADD SLOAD DUP2 MSTORE POP POP DUP2 MSTORE PUSH1 0x20 ADD SWAP1 PUSH1 0x1 ADD SWAP1 PUSH2 0x1620 JUMP JUMPDEST POP POP POP POP SWAP1 POP DUP1 MLOAD PUSH1 0x0 SUB PUSH2 0x173B JUMPI POP PUSH1 0x0 SWAP3 SWAP2 POP POP JUMP JUMPDEST PUSH1 0x0 DUP1 JUMPDEST DUP3 MLOAD DUP2 LT ISZERO PUSH2 0x17A8 JUMPI PUSH1 0x0 PUSH9 0x3635C9ADC5DEA00000 DUP5 DUP4 DUP2 MLOAD DUP2 LT PUSH2 0x1766 JUMPI PUSH2 0x1766 PUSH2 0x2104 JUMP JUMPDEST PUSH1 0x20 MUL PUSH1 0x20 ADD ADD MLOAD PUSH1 0x40 ADD MLOAD LT PUSH2 0x177E JUMPI PUSH1 0xC8 PUSH2 0x1782 JUMP JUMPDEST PUSH2 0x190 JUMPDEST PUSH2 0xFFFF AND SWAP1 POP PUSH2 0x1792 DUP2 DUP5 PUSH2 0x211A JUMP JUMPDEST SWAP3 POP POP DUP1 DUP1 PUSH2 0x17A0 SWAP1 PUSH2 0x20BF JUMP JUMPDEST SWAP2 POP POP PUSH2 0x173F JUMP JUMPDEST POP DUP2 MLOAD PUSH2 0x17B5 SWAP1 DUP3 PUSH2 0x214A JUMP JUMPDEST SWAP5 SWAP4 POP POP POP POP JUMP JUMPDEST PUSH1 0x7 SLOAD DUP2 LT PUSH2 0x17D4 JUMPI PUSH2 0x17D0 DUP3 DUP3 PUSH2 0x196E JUMP JUMPDEST POP POP JUMP JUMPDEST PUSH1 0x8 SLOAD DUP2 LT PUSH2 0x17D0 JUMPI PUSH2 0x17D0 DUP3 DUP3 PUSH2 0x1A6A JUMP JUMPDEST PUSH1 0x0 PUSH1 0x1 DUP3 MLOAD GT PUSH2 0x17FA JUMPI POP PUSH1 0x0 SWAP2 SWAP1 POP JUMP JUMPDEST PUSH1 0x0 DUP3 MLOAD PUSH1 0x64 PUSH2 0x180A SWAP2 SWAP1 PUSH2 0x2133 JUMP JUMPDEST SWAP1 POP PUSH2 0x320 DUP2 GT ISZERO PUSH2 0x181B JUMPI POP PUSH2 0x320 JUMPDEST PUSH1 0x1 PUSH1 0x0 PUSH2 0x182A DUP3 PUSH1 0x32 PUSH2 0x2133 JUMP JUMPDEST SWAP1 POP PUSH1 0x0 PUSH2 0x1838 DUP3 DUP6 PUSH2 0x211A JUMP JUMPDEST SWAP1 POP PUSH2 0x3E8 DUP2 GT PUSH2 0x1849 JUMPI DUP1 PUSH2 0x15E3 JUMP JUMPDEST PUSH2 0x3E8 SWAP7 SWAP6 POP POP POP POP POP POP JUMP JUMPDEST PUSH1 0x0 DUP1 DUP1 JUMPDEST DUP4 MLOAD DUP2 LT ISZERO PUSH2 0x18C5 JUMPI PUSH1 0x0 PUSH9 0x3635C9ADC5DEA00000 DUP6 DUP4 DUP2 MLOAD DUP2 LT PUSH2 0x1882 JUMPI PUSH2 0x1882 PUSH2 0x2104 JUMP JUMPDEST PUSH1 0x20 MUL PUSH1 0x20 ADD ADD MLOAD PUSH1 0x40 ADD MLOAD GT PUSH2 0x189B JUMPI PUSH2 0x258 PUSH2 0x189F JUMP JUMPDEST PUSH2 0x320 JUMPDEST PUSH2 0xFFFF AND SWAP1 POP PUSH2 0x18AF DUP2 DUP5 PUSH2 0x211A JUMP JUMPDEST SWAP3 POP POP DUP1 DUP1 PUSH2 0x18BD SWAP1 PUSH2 0x20BF JUMP JUMPDEST SWAP2 POP POP PUSH2 0x185B JUMP JUMPDEST POP PUSH1 0x0 DUP4 MLOAD GT PUSH2 0x18D7 JUMPI PUSH2 0x3E8 PUSH2 0x12E1 JUMP JUMPDEST DUP3 MLOAD PUSH2 0x12E1 SWAP1 DUP3 PUSH2 0x214A JUMP JUMPDEST PUSH1 0x0 DUP1 DUP1 JUMPDEST DUP4 MLOAD DUP2 LT ISZERO PUSH2 0x195D JUMPI PUSH1 0x0 DUP5 DUP3 DUP2 MLOAD DUP2 LT PUSH2 0x1905 JUMPI PUSH2 0x1905 PUSH2 0x2104 JUMP JUMPDEST PUSH1 0x20 MUL PUSH1 0x20 ADD ADD MLOAD PUSH1 0x80 ADD MLOAD TIMESTAMP PUSH2 0x191C SWAP2 SWAP1 PUSH2 0x216C JUMP JUMPDEST SWAP1 POP PUSH1 0x0 PUSH3 0x15180 DUP3 LT PUSH2 0x1932 JUMPI PUSH2 0x12C PUSH2 0x1936 JUMP JUMPDEST PUSH2 0x258 JUMPDEST PUSH2 0xFFFF AND SWAP1 POP PUSH2 0x1946 DUP2 DUP6 PUSH2 0x211A JUMP JUMPDEST SWAP4 POP POP POP DUP1 DUP1 PUSH2 0x1955 SWAP1 PUSH2 0x20BF JUMP JUMPDEST SWAP2 POP POP PUSH2 0x18E8 JUMP JUMPDEST POP PUSH1 0x0 DUP4 MLOAD GT PUSH2 0x18D7 JUMPI PUSH1 0x0 PUSH2 0x12E1 JUMP JUMPDEST PUSH1 0x1 PUSH1 0x1 PUSH1 0xA0 SHL SUB DUP3 AND PUSH1 0x0 SWAP1 DUP2 MSTORE PUSH1 0x5 PUSH1 0x20 MSTORE PUSH1 0x40 DUP2 KECCAK256 DUP1 SLOAD PUSH1 0xFF NOT AND PUSH1 0x1 OR SWAP1 SSTORE PUSH1 0xE DUP1 SLOAD SWAP2 PUSH2 0x199F DUP4 PUSH2 0x20BF JUMP JUMPDEST SWAP1 SWAP2 SSTORE POP POP PUSH1 0x7 SLOAD PUSH1 0x40 DUP1 MLOAD PUSH1 0xA0 DUP1 DUP3 MSTORE PUSH1 0x14 SWAP1 DUP3 ADD MSTORE PUSH20 0x13125455525110551253D397D491545552549151 PUSH1 0x62 SHL PUSH1 0xC0 DUP3 ADD MSTORE PUSH1 0x20 DUP2 ADD DUP5 SWAP1 MSTORE SWAP1 DUP2 ADD SWAP2 SWAP1 SWAP2 MSTORE PUSH1 0xE0 PUSH1 0x60 DUP3 ADD DUP2 SWAP1 MSTORE PUSH1 0x25 SWAP1 DUP3 ADD MSTORE PUSH32 0x496D6D65646961746520706F736974696F6E20726564756374696F6E20726571 PUSH2 0x100 DUP3 ADD MSTORE PUSH5 0x1D5A5C9959 PUSH1 0xDA SHL PUSH2 0x120 DUP3 ADD MSTORE TIMESTAMP PUSH1 0x80 DUP3 ADD MSTORE PUSH1 0x1 PUSH1 0x1 PUSH1 0xA0 SHL SUB DUP4 AND SWAP1 PUSH32 0xDF76491341235F350869B66A4085D8A6DBF518C2A5C6B8D5278157DEE4D5E4B1 SWAP1 PUSH2 0x140 ADD JUMPDEST PUSH1 0x40 MLOAD DUP1 SWAP2 SUB SWAP1 LOG2 POP POP JUMP JUMPDEST PUSH1 0xE DUP1 SLOAD SWAP1 PUSH1 0x0 PUSH2 0x1A7A DUP4 PUSH2 0x20BF JUMP JUMPDEST SWAP1 SWAP2 SSTORE POP POP PUSH1 0x8 SLOAD PUSH1 0x40 DUP1 MLOAD PUSH1 0xA0 DUP1 DUP3 MSTORE PUSH1 0x11 SWAP1 DUP3 ADD MSTORE PUSH17 0x484947485F5249534B5F5741524E494E47 PUSH1 0x78 SHL PUSH1 0xC0 DUP3 ADD MSTORE PUSH1 0x20 DUP1 DUP3 ADD DUP6 SWAP1 MSTORE SWAP2 DUP2 ADD SWAP3 SWAP1 SWAP3 MSTORE PUSH1 0xE0 PUSH1 0x60 DUP4 ADD DUP2 SWAP1 MSTORE DUP3 ADD MSTORE PUSH32 0x436F6E7369646572207265647563696E6720706F736974696F6E2073697A6573 PUSH2 0x100 DUP3 ADD MSTORE TIMESTAMP PUSH1 0x80 DUP3 ADD MSTORE PUSH1 0x1 PUSH1 0x1 PUSH1 0xA0 SHL SUB DUP4 AND SWAP1 PUSH32 0xDF76491341235F350869B66A4085D8A6DBF518C2A5C6B8D5278157DEE4D5E4B1 SWAP1 PUSH2 0x120 ADD PUSH2 0x1A5E JUMP JUMPDEST PUSH4 0x4E487B71 PUSH1 0xE0 SHL PUSH1 0x0 MSTORE PUSH1 0x41 PUSH1 0x4 MSTORE PUSH1 0x24 PUSH1 0x0 REVERT JUMPDEST PUSH1 0x0 DUP3 PUSH1 0x1F DUP4 ADD SLT PUSH2 0x1B50 JUMPI PUSH1 0x0 DUP1 REVERT JUMPDEST DUP2 CALLDATALOAD PUSH8 0xFFFFFFFFFFFFFFFF DUP1 DUP3 GT ISZERO PUSH2 0x1B6B JUMPI PUSH2 0x1B6B PUSH2 0x1B29 JUMP JUMPDEST PUSH1 0x40 MLOAD PUSH1 0x1F DUP4 ADD PUSH1 0x1F NOT SWAP1 DUP2 AND PUSH1 0x3F ADD AND DUP2 ADD SWAP1 DUP3 DUP3 GT DUP2 DUP4 LT OR ISZERO PUSH2 0x1B93 JUMPI PUSH2 0x1B93 PUSH2 0x1B29 JUMP JUMPDEST DUP2 PUSH1 0x40 MSTORE DUP4 DUP2 MSTORE DUP7 PUSH1 0x20 DUP6 DUP9 ADD ADD GT ISZERO PUSH2 0x1BAC JUMPI PUSH1 0x0 DUP1 REVERT JUMPDEST DUP4 PUSH1 0x20 DUP8 ADD PUSH1 0x20 DUP4 ADD CALLDATACOPY PUSH1 0x0 PUSH1 0x20 DUP6 DUP4 ADD ADD MSTORE DUP1 SWAP5 POP POP POP POP POP SWAP3 SWAP2 POP POP JUMP JUMPDEST PUSH1 0x0 DUP1 PUSH1 0x40 DUP4 DUP6 SUB SLT ISZERO PUSH2 0x1BDF JUMPI PUSH1 0x0 DUP1 REVERT JUMPDEST DUP3 CALLDATALOAD PUSH8 0xFFFFFFFFFFFFFFFF DUP2 GT ISZERO PUSH2 0x1BF6 JUMPI PUSH1 0x0 DUP1 REVERT JUMPDEST PUSH2 0x1C02 DUP6 DUP3 DUP7 ADD PUSH2 0x1B3F JUMP JUMPDEST SWAP6 PUSH1 0x20 SWAP5 SWAP1 SWAP5 ADD CALLDATALOAD SWAP5 POP POP POP POP JUMP JUMPDEST DUP1 CALLDATALOAD PUSH1 0x1 PUSH1 0x1 PUSH1 0xA0 SHL SUB DUP2 AND DUP2 EQ PUSH2 0x1C28 JUMPI PUSH1 0x0 DUP1 REVERT JUMPDEST SWAP2 SWAP1 POP JUMP JUMPDEST PUSH1 0x0 PUSH1 0x20 DUP3 DUP5 SUB SLT ISZERO PUSH2 0x1C3F JUMPI PUSH1 0x0 DUP1 REVERT JUMPDEST PUSH2 0x12E1 DUP3 PUSH2 0x1C11 JUMP JUMPDEST PUSH1 0x0 JUMPDEST DUP4 DUP2 LT ISZERO PUSH2 0x1C63 JUMPI DUP2 DUP2 ADD MLOAD DUP4 DUP3 ADD MSTORE PUSH1 0x20 ADD PUSH2 0x1C4B JUMP JUMPDEST POP POP PUSH1 0x0 SWAP2 ADD MSTORE JUMP JUMPDEST PUSH1 0x0 DUP2 MLOAD DUP1 DUP5 MSTORE PUSH2 0x1C84 DUP2 PUSH1 0x20 DUP7 ADD PUSH1 0x20 DUP7 ADD PUSH2 0x1C48 JUMP JUMPDEST PUSH1 0x1F ADD PUSH1 0x1F NOT AND SWAP3 SWAP1 SWAP3 ADD PUSH1 0x20 ADD SWAP3 SWAP2 POP POP JUMP JUMPDEST PUSH1 0x20 DUP2 MSTORE DUP2 MLOAD PUSH1 0x20 DUP3 ADD MSTORE PUSH1 0x0 PUSH1 0x20 DUP4 ADD MLOAD PUSH1 0xE0 PUSH1 0x40 DUP5 ADD MSTORE PUSH2 0x1CBF PUSH2 0x100 DUP5 ADD DUP3 PUSH2 0x1C6C JUMP JUMPDEST SWAP1 POP PUSH1 0x40 DUP5 ADD MLOAD PUSH1 0x60 DUP5 ADD MSTORE PUSH1 0x60 DUP5 ADD MLOAD PUSH1 0x80 DUP5 ADD MSTORE PUSH1 0x80 DUP5 ADD MLOAD PUSH1 0xA0 DUP5 ADD MSTORE PUSH1 0xA0 DUP5 ADD MLOAD PUSH1 0xC0 DUP5 ADD MSTORE PUSH1 0xC0 DUP5 ADD MLOAD PUSH1 0xE0 DUP5 ADD MSTORE DUP1 SWAP2 POP POP SWAP3 SWAP2 POP POP JUMP JUMPDEST PUSH1 0x0 PUSH1 0x20 DUP1 DUP4 ADD DUP2 DUP5 MSTORE DUP1 DUP6 MLOAD DUP1 DUP4 MSTORE PUSH1 0x40 SWAP3 POP DUP3 DUP7 ADD SWAP2 POP DUP3 DUP2 PUSH1 0x5 SHL DUP8 ADD ADD DUP5 DUP9 ADD PUSH1 0x0 JUMPDEST DUP4 DUP2 LT ISZERO PUSH2 0x1D9B JUMPI DUP9 DUP4 SUB PUSH1 0x3F NOT ADD DUP6 MSTORE DUP2 MLOAD DUP1 MLOAD PUSH1 0x1 PUSH1 0x1 PUSH1 0xA0 SHL SUB AND DUP5 MSTORE DUP8 DUP2 ADD MLOAD DUP9 DUP6 ADD MSTORE DUP7 DUP2 ADD MLOAD DUP8 DUP6 ADD MSTORE PUSH1 0x60 DUP1 DUP3 ADD MLOAD PUSH1 0xC0 DUP3 DUP8 ADD DUP2 SWAP1 MSTORE SWAP2 SWAP1 PUSH2 0x1D70 DUP4 DUP9 ADD DUP3 PUSH2 0x1C6C JUMP JUMPDEST PUSH1 0x80 DUP6 DUP2 ADD MLOAD SWAP1 DUP10 ADD MSTORE PUSH1 0xA0 SWAP5 DUP6 ADD MLOAD SWAP5 SWAP1 SWAP8 ADD SWAP4 SWAP1 SWAP4 MSTORE POP POP POP SWAP4 DUP7 ADD SWAP4 SWAP1 DUP7 ADD SWAP1 PUSH1 0x1 ADD PUSH2 0x1D24 JUMP JUMPDEST POP SWAP1 SWAP9 SWAP8 POP POP POP POP POP POP POP POP JUMP JUMPDEST PUSH1 0x0 DUP1 PUSH1 0x40 DUP4 DUP6 SUB SLT ISZERO PUSH2 0x1DBC JUMPI PUSH1 0x0 DUP1 REVERT JUMPDEST PUSH2 0x1DC5 DUP4 PUSH2 0x1C11 JUMP JUMPDEST SWAP5 PUSH1 0x20 SWAP4 SWAP1 SWAP4 ADD CALLDATALOAD SWAP4 POP POP POP JUMP JUMPDEST PUSH1 0x1 DUP1 PUSH1 0xA0 SHL SUB DUP8 AND DUP2 MSTORE DUP6 PUSH1 0x20 DUP3 ADD MSTORE DUP5 PUSH1 0x40 DUP3 ADD MSTORE PUSH1 0xC0 PUSH1 0x60 DUP3 ADD MSTORE PUSH1 0x0 PUSH2 0x1E00 PUSH1 0xC0 DUP4 ADD DUP7 PUSH2 0x1C6C JUMP JUMPDEST PUSH1 0x80 DUP4 ADD SWAP5 SWAP1 SWAP5 MSTORE POP PUSH1 0xA0 ADD MSTORE SWAP5 SWAP4 POP POP POP POP JUMP JUMPDEST DUP8 DUP2 MSTORE PUSH1 0xE0 PUSH1 0x20 DUP3 ADD MSTORE PUSH1 0x0 PUSH2 0x1E2E PUSH1 0xE0 DUP4 ADD DUP10 PUSH2 0x1C6C JUMP JUMPDEST PUSH1 0x40 DUP4 ADD SWAP8 SWAP1 SWAP8 MSTORE POP PUSH1 0x60 DUP2 ADD SWAP5 SWAP1 SWAP5 MSTORE PUSH1 0x80 DUP5 ADD SWAP3 SWAP1 SWAP3 MSTORE PUSH1 0xA0 DUP4 ADD MSTORE PUSH1 0xC0 SWAP1 SWAP2 ADD MSTORE SWAP3 SWAP2 POP POP JUMP JUMPDEST PUSH1 0x0 DUP1 PUSH1 0x0 PUSH1 0x60 DUP5 DUP7 SUB SLT ISZERO PUSH2 0x1E6D JUMPI PUSH1 0x0 DUP1 REVERT JUMPDEST POP POP DUP2 CALLDATALOAD SWAP4 PUSH1 0x20 DUP4 ADD CALLDATALOAD SWAP4 POP PUSH1 0x40 SWAP1 SWAP3 ADD CALLDATALOAD SWAP2 SWAP1 POP JUMP JUMPDEST DUP3 DUP2 MSTORE PUSH1 0x40 PUSH1 0x20 DUP3 ADD MSTORE PUSH1 0x0 PUSH2 0x17B5 PUSH1 0x40 DUP4 ADD DUP5 PUSH2 0x1C6C JUMP JUMPDEST PUSH1 0x0 DUP1 PUSH1 0x0 DUP1 PUSH1 0x0 PUSH1 0xA0 DUP7 DUP9 SUB SLT ISZERO PUSH2 0x1EB5 JUMPI PUSH1 0x0 DUP1 REVERT JUMPDEST PUSH2 0x1EBE DUP7 PUSH2 0x1C11 JUMP JUMPDEST SWAP5 POP PUSH2 0x1ECC PUSH1 0x20 DUP8 ADD PUSH2 0x1C11 JUMP JUMPDEST SWAP4 POP PUSH1 0x40 DUP7 ADD CALLDATALOAD SWAP3 POP PUSH1 0x60 DUP7 ADD CALLDATALOAD SWAP2 POP PUSH1 0x80 DUP7 ADD CALLDATALOAD PUSH8 0xFFFFFFFFFFFFFFFF DUP2 GT ISZERO PUSH2 0x1EF6 JUMPI PUSH1 0x0 DUP1 REVERT JUMPDEST PUSH2 0x1F02 DUP9 DUP3 DUP10 ADD PUSH2 0x1B3F JUMP JUMPDEST SWAP2 POP POP SWAP3 SWAP6 POP SWAP3 SWAP6 SWAP1 SWAP4 POP JUMP JUMPDEST PUSH1 0x0 PUSH1 0x20 DUP3 DUP5 SUB SLT ISZERO PUSH2 0x1F21 JUMPI PUSH1 0x0 DUP1 REVERT JUMPDEST DUP2 CALLDATALOAD PUSH8 0xFFFFFFFFFFFFFFFF DUP2 GT ISZERO PUSH2 0x1F38 JUMPI PUSH1 0x0 DUP1 REVERT JUMPDEST PUSH2 0x17B5 DUP5 DUP3 DUP6 ADD PUSH2 0x1B3F JUMP JUMPDEST PUSH1 0x0 DUP3 MLOAD PUSH2 0x1F56 DUP2 DUP5 PUSH1 0x20 DUP8 ADD PUSH2 0x1C48 JUMP JUMPDEST SWAP2 SWAP1 SWAP2 ADD SWAP3 SWAP2 POP POP JUMP JUMPDEST PUSH1 0x1 DUP2 DUP2 SHR SWAP1 DUP3 AND DUP1 PUSH2 0x1F74 JUMPI PUSH1 0x7F DUP3 AND SWAP2 POP JUMPDEST PUSH1 0x20 DUP3 LT DUP2 SUB PUSH2 0x1F94 JUMPI PUSH4 0x4E487B71 PUSH1 0xE0 SHL PUSH1 0x0 MSTORE PUSH1 0x22 PUSH1 0x4 MSTORE PUSH1 0x24 PUSH1 0x0 REVERT JUMPDEST POP SWAP2 SWAP1 POP JUMP JUMPDEST PUSH1 0x1F DUP3 GT ISZERO PUSH2 0x1FE4 JUMPI PUSH1 0x0 DUP2 DUP2 MSTORE PUSH1 0x20 DUP2 KECCAK256 PUSH1 0x1F DUP6 ADD PUSH1 0x5 SHR DUP2 ADD PUSH1 0x20 DUP7 LT ISZERO PUSH2 0x1FC1 JUMPI POP DUP1 JUMPDEST PUSH1 0x1F DUP6 ADD PUSH1 0x5 SHR DUP3 ADD SWAP2 POP JUMPDEST DUP2 DUP2 LT ISZERO PUSH2 0x1FE0 JUMPI DUP3 DUP2 SSTORE PUSH1 0x1 ADD PUSH2 0x1FCD JUMP JUMPDEST POP POP POP JUMPDEST POP POP POP JUMP JUMPDEST DUP2 MLOAD PUSH8 0xFFFFFFFFFFFFFFFF DUP2 GT ISZERO PUSH2 0x2003 JUMPI PUSH2 0x2003 PUSH2 0x1B29 JUMP JUMPDEST PUSH2 0x2017 DUP2 PUSH2 0x2011 DUP5 SLOAD PUSH2 0x1F60 JUMP JUMPDEST DUP5 PUSH2 0x1F9A JUMP JUMPDEST PUSH1 0x20 DUP1 PUSH1 0x1F DUP4 GT PUSH1 0x1 DUP2 EQ PUSH2 0x204C JUMPI PUSH1 0x0 DUP5 ISZERO PUSH2 0x2034 JUMPI POP DUP6 DUP4 ADD MLOAD JUMPDEST PUSH1 0x0 NOT PUSH1 0x3 DUP7 SWAP1 SHL SHR NOT AND PUSH1 0x1 DUP6 SWAP1 SHL OR DUP6 SSTORE PUSH2 0x1FE0 JUMP JUMPDEST PUSH1 0x0 DUP6 DUP2 MSTORE PUSH1 0x20 DUP2 KECCAK256 PUSH1 0x1F NOT DUP7 AND SWAP2 JUMPDEST DUP3 DUP2 LT ISZERO PUSH2 0x207B JUMPI DUP9 DUP7 ADD MLOAD DUP3 SSTORE SWAP5 DUP5 ADD SWAP5 PUSH1 0x1 SWAP1 SWAP2 ADD SWAP1 DUP5 ADD PUSH2 0x205C JUMP JUMPDEST POP DUP6 DUP3 LT ISZERO PUSH2 0x2099 JUMPI DUP8 DUP6 ADD MLOAD PUSH1 0x0 NOT PUSH1 0x3 DUP9 SWAP1 SHL PUSH1 0xF8 AND SHR NOT AND DUP2 SSTORE JUMPDEST POP POP POP POP POP PUSH1 0x1 SWAP1 DUP2 SHL ADD SWAP1 SSTORE POP JUMP JUMPDEST PUSH4 0x4E487B71 PUSH1 0xE0 SHL PUSH1 0x0 MSTORE PUSH1 0x11 PUSH1 0x4 MSTORE PUSH1 0x24 PUSH1 0x0 REVERT JUMPDEST PUSH1 0x0 PUSH1 0x1 DUP3 ADD PUSH2 0x20D1 JUMPI PUSH2 0x20D1 PUSH2 0x20A9 JUMP JUMPDEST POP PUSH1 0x1 ADD SWAP1 JUMP JUMPDEST DUP5 DUP2 MSTORE PUSH1 0x80 PUSH1 0x20 DUP3 ADD MSTORE PUSH1 0x0 PUSH2 0x20F1 PUSH1 0x80 DUP4 ADD DUP7 PUSH2 0x1C6C JUMP JUMPDEST PUSH1 0x40 DUP4 ADD SWAP5 SWAP1 SWAP5 MSTORE POP PUSH1 0x60 ADD MSTORE SWAP3 SWAP2 POP POP JUMP JUMPDEST PUSH4 0x4E487B71 PUSH1 0xE0 SHL PUSH1 0x0 MSTORE PUSH1 0x32 PUSH1 0x4 MSTORE PUSH1 0x24 PUSH1 0x0 REVERT JUMPDEST DUP1 DUP3 ADD DUP1 DUP3 GT ISZERO PUSH2 0x212D JUMPI PUSH2 0x212D PUSH2 0x20A9 JUMP JUMPDEST SWAP3 SWAP2 POP POP JUMP JUMPDEST DUP1 DUP3 MUL DUP2 ISZERO DUP3 DUP3 DIV DUP5 EQ OR PUSH2 0x212D JUMPI PUSH2 0x212D PUSH2 0x20A9 JUMP JUMPDEST PUSH1 0x0 DUP3 PUSH2 0x2167 JUMPI PUSH4 0x4E487B71 PUSH1 0xE0 SHL PUSH1 0x0 MSTORE PUSH1 0x12 PUSH1 0x4 MSTORE PUSH1 0x24 PUSH1 0x0 REVERT JUMPDEST POP DIV SWAP1 JUMP JUMPDEST DUP2 DUP2 SUB DUP2 DUP2 GT ISZERO PUSH2 0x212D JUMPI PUSH2 0x212D PUSH2 0x20A9 JUMP INVALID LOG2 PUSH5 0x6970667358 0x22 SLT KECCAK256 DUP12 MSTORE8 0x27 0xA9 MSTORE8 0xC5 0xD9 0x25 CODESIZE 0xDE 0xBC 0xC2 PUSH10 0xF97764D1F5A3CF53575D 0x49 0xE1 TIMESTAMP 0x4A 0xA5 0xC2 0xEA PUSH22 0xC664736F6C6343000814003300000000000000000000 "},"methodIdentifiers":{"addPosition(address,address,uint256,uint256,string)":"c6499216","emergencyManager()":"d2c18f59","evaluateRisk(address)":"7ad4074f","getStats()":"c59d4847","getUserPositions(address)":"2a6bc2dd","getUserRiskAssessment(address)":"1445d873","liquidationThreshold()":"4031234c","maxConcentration()":"c93b3750","maxRiskScore()":"13f190d7","minLiquidity()":"252cf2d2","owner()":"8da5cb5b","protocolRiskWeights(string)":"e0420d8e","renounceOwnership()":"715018a6","riskAlerts(address)":"ac79318e","tokenRiskWeights(address)":"3f3bc361","totalAlertsIssued()":"1c95d81c","totalAssessments()":"2b08c955","totalLiquidations()":"954806d7","transferOwnership(address)":"f2fde38b","updateProtocolRiskWeight(string,uint256)":"0492c22c","updateRiskParameters(uint256,uint256,uint256)":"7978bade","updateTokenRiskWeight(address,uint256)":"baa96c1c","userPositions(address,uint256)":"5e1b4d99","userRiskAssessments(address)":"66c76fca","userRiskMetrics(address)":"1f99e274","warningThreshold()":"fd911648"}}}}}