{
  "_format": "hh-sol-artifact-1",
  "contractName": "YieldOptimizer",
  "sourceName": "contracts/YieldOptimizer.sol",
  "abi": [
    {
      "inputs": [
        {
          "internalType": "address",
          "name": "_feeRecipient",
          "type": "address"
        }
      ],
      "stateMutability": "nonpayable",
      "type": "constructor"
    },
    {
      "inputs": [
        {
          "internalType": "address",
          "name": "owner",
          "type": "address"
        }
      ],
      "name": "OwnableInvalidOwner",
      "type": "error"
    },
    {
      "inputs": [
        {
          "internalType": "address",
          "name": "account",
          "type": "address"
        }
      ],
      "name": "OwnableUnauthorizedAccount",
      "type": "error"
    },
    {
      "inputs": [],
      "name": "ReentrancyGuardReentrantCall",
      "type": "error"
    },
    {
      "anonymous": false,
      "inputs": [
        {
          "indexed": true,
          "internalType": "address",
          "name": "previousOwner",
          "type": "address"
        },
        {
          "indexed": true,
          "internalType": "address",
          "name": "newOwner",
          "type": "address"
        }
      ],
      "name": "OwnershipTransferred",
      "type": "event"
    },
    {
      "anonymous": false,
      "inputs": [
        {
          "indexed": false,
          "internalType": "string",
          "name": "protocol",
          "type": "string"
        },
        {
          "indexed": false,
          "internalType": "address",
          "name": "protocolAddress",
          "type": "address"
        },
        {
          "indexed": false,
          "internalType": "bool",
          "name": "active",
          "type": "bool"
        }
      ],
      "name": "ProtocolAdded",
      "type": "event"
    },
    {
      "anonymous": false,
      "inputs": [
        {
          "indexed": false,
          "internalType": "string",
          "name": "protocol",
          "type": "string"
        },
        {
          "indexed": false,
          "internalType": "bool",
          "name": "active",
          "type": "bool"
        }
      ],
      "name": "ProtocolUpdated",
      "type": "event"
    },
    {
      "anonymous": false,
      "inputs": [
        {
          "indexed": true,
          "internalType": "address",
          "name": "user",
          "type": "address"
        },
        {
          "indexed": false,
          "internalType": "string",
          "name": "strategy",
          "type": "string"
        },
        {
          "indexed": false,
          "internalType": "uint256",
          "name": "inputAmount",
          "type": "uint256"
        },
        {
          "indexed": false,
          "internalType": "uint256",
          "name": "outputAmount",
          "type": "uint256"
        },
        {
          "indexed": false,
          "internalType": "uint256",
          "name": "timestamp",
          "type": "uint256"
        }
      ],
      "name": "StrategyExecuted",
      "type": "event"
    },
    {
      "anonymous": false,
      "inputs": [
        {
          "indexed": true,
          "internalType": "address",
          "name": "user",
          "type": "address"
        },
        {
          "indexed": true,
          "internalType": "address",
          "name": "token",
          "type": "address"
        },
        {
          "indexed": false,
          "internalType": "uint256",
          "name": "amount",
          "type": "uint256"
        },
        {
          "indexed": false,
          "internalType": "uint256",
          "name": "apy",
          "type": "uint256"
        },
        {
          "indexed": false,
          "internalType": "string",
          "name": "protocol",
          "type": "string"
        },
        {
          "indexed": false,
          "internalType": "uint256",
          "name": "timestamp",
          "type": "uint256"
        }
      ],
      "name": "YieldOptimized",
      "type": "event"
    },
    {
      "inputs": [
        {
          "internalType": "string",
          "name": "name",
          "type": "string"
        },
        {
          "internalType": "address",
          "name": "protocol",
          "type": "address"
        },
        {
          "internalType": "uint256",
          "name": "apy",
          "type": "uint256"
        },
        {
          "internalType": "uint256",
          "name": "tvl",
          "type": "uint256"
        },
        {
          "internalType": "uint256",
          "name": "riskScore",
          "type": "uint256"
        }
      ],
      "name": "addStrategy",
      "outputs": [],
      "stateMutability": "nonpayable",
      "type": "function"
    },
    {
      "inputs": [
        {
          "internalType": "uint256",
          "name": "",
          "type": "uint256"
        }
      ],
      "name": "availableStrategies",
      "outputs": [
        {
          "internalType": "string",
          "name": "",
          "type": "string"
        }
      ],
      "stateMutability": "view",
      "type": "function"
    },
    {
      "inputs": [
        {
          "internalType": "address",
          "name": "user",
          "type": "address"
        },
        {
          "internalType": "address",
          "name": "token",
          "type": "address"
        },
        {
          "internalType": "uint256",
          "name": "amount",
          "type": "uint256"
        }
      ],
      "name": "executeOptimization",
      "outputs": [
        {
          "internalType": "uint256",
          "name": "apy",
          "type": "uint256"
        },
        {
          "internalType": "string",
          "name": "protocol",
          "type": "string"
        }
      ],
      "stateMutability": "nonpayable",
      "type": "function"
    },
    {
      "inputs": [],
      "name": "feeRecipient",
      "outputs": [
        {
          "internalType": "address",
          "name": "",
          "type": "address"
        }
      ],
      "stateMutability": "view",
      "type": "function"
    },
    {
      "inputs": [],
      "name": "getAvailableStrategies",
      "outputs": [
        {
          "internalType": "string[]",
          "name": "",
          "type": "string[]"
        }
      ],
      "stateMutability": "view",
      "type": "function"
    },
    {
      "inputs": [],
      "name": "getStats",
      "outputs": [
        {
          "internalType": "uint256",
          "name": "_totalValueLocked",
          "type": "uint256"
        },
        {
          "internalType": "uint256",
          "name": "_totalUsersServed",
          "type": "uint256"
        },
        {
          "internalType": "uint256",
          "name": "_activeStrategies",
          "type": "uint256"
        }
      ],
      "stateMutability": "view",
      "type": "function"
    },
    {
      "inputs": [
        {
          "internalType": "string",
          "name": "name",
          "type": "string"
        }
      ],
      "name": "getStrategy",
      "outputs": [
        {
          "components": [
            {
              "internalType": "string",
              "name": "name",
              "type": "string"
            },
            {
              "internalType": "address",
              "name": "protocol",
              "type": "address"
            },
            {
              "internalType": "uint256",
              "name": "apy",
              "type": "uint256"
            },
            {
              "internalType": "uint256",
              "name": "tvl",
              "type": "uint256"
            },
            {
              "internalType": "uint256",
              "name": "riskScore",
              "type": "uint256"
            },
            {
              "internalType": "bool",
              "name": "active",
              "type": "bool"
            }
          ],
          "internalType": "struct YieldOptimizer.YieldStrategy",
          "name": "",
          "type": "tuple"
        }
      ],
      "stateMutability": "view",
      "type": "function"
    },
    {
      "inputs": [
        {
          "internalType": "address",
          "name": "user",
          "type": "address"
        }
      ],
      "name": "getUserPositions",
      "outputs": [
        {
          "components": [
            {
              "internalType": "address",
              "name": "token",
              "type": "address"
            },
            {
              "internalType": "uint256",
              "name": "amount",
              "type": "uint256"
            },
            {
              "internalType": "string",
              "name": "protocol",
              "type": "string"
            },
            {
              "internalType": "uint256",
              "name": "entryTime",
              "type": "uint256"
            },
            {
              "internalType": "uint256",
              "name": "expectedApy",
              "type": "uint256"
            }
          ],
          "internalType": "struct YieldOptimizer.UserPosition[]",
          "name": "",
          "type": "tuple[]"
        }
      ],
      "stateMutability": "view",
      "type": "function"
    },
    {
      "inputs": [],
      "name": "owner",
      "outputs": [
        {
          "internalType": "address",
          "name": "",
          "type": "address"
        }
      ],
      "stateMutability": "view",
      "type": "function"
    },
    {
      "inputs": [],
      "name": "performanceFee",
      "outputs": [
        {
          "internalType": "uint256",
          "name": "",
          "type": "uint256"
        }
      ],
      "stateMutability": "view",
      "type": "function"
    },
    {
      "inputs": [
        {
          "internalType": "string",
          "name": "",
          "type": "string"
        }
      ],
      "name": "protocolAddresses",
      "outputs": [
        {
          "internalType": "address",
          "name": "",
          "type": "address"
        }
      ],
      "stateMutability": "view",
      "type": "function"
    },
    {
      "inputs": [],
      "name": "renounceOwnership",
      "outputs": [],
      "stateMutability": "nonpayable",
      "type": "function"
    },
    {
      "inputs": [
        {
          "internalType": "string",
          "name": "",
          "type": "string"
        }
      ],
      "name": "strategies",
      "outputs": [
        {
          "internalType": "string",
          "name": "name",
          "type": "string"
        },
        {
          "internalType": "address",
          "name": "protocol",
          "type": "address"
        },
        {
          "internalType": "uint256",
          "name": "apy",
          "type": "uint256"
        },
        {
          "internalType": "uint256",
          "name": "tvl",
          "type": "uint256"
        },
        {
          "internalType": "uint256",
          "name": "riskScore",
          "type": "uint256"
        },
        {
          "internalType": "bool",
          "name": "active",
          "type": "bool"
        }
      ],
      "stateMutability": "view",
      "type": "function"
    },
    {
      "inputs": [],
      "name": "totalUsersServed",
      "outputs": [
        {
          "internalType": "uint256",
          "name": "",
          "type": "uint256"
        }
      ],
      "stateMutability": "view",
      "type": "function"
    },
    {
      "inputs": [],
      "name": "totalValueLocked",
      "outputs": [
        {
          "internalType": "uint256",
          "name": "",
          "type": "uint256"
        }
      ],
      "stateMutability": "view",
      "type": "function"
    },
    {
      "inputs": [
        {
          "internalType": "address",
          "name": "newOwner",
          "type": "address"
        }
      ],
      "name": "transferOwnership",
      "outputs": [],
      "stateMutability": "nonpayable",
      "type": "function"
    },
    {
      "inputs": [
        {
          "internalType": "address",
          "name": "_feeRecipient",
          "type": "address"
        }
      ],
      "name": "updateFeeRecipient",
      "outputs": [],
      "stateMutability": "nonpayable",
      "type": "function"
    },
    {
      "inputs": [
        {
          "internalType": "uint256",
          "name": "_fee",
          "type": "uint256"
        }
      ],
      "name": "updatePerformanceFee",
      "outputs": [],
      "stateMutability": "nonpayable",
      "type": "function"
    },
    {
      "inputs": [
        {
          "internalType": "string",
          "name": "name",
          "type": "string"
        },
        {
          "internalType": "bool",
          "name": "active",
          "type": "bool"
        }
      ],
      "name": "updateStrategy",
      "outputs": [],
      "stateMutability": "nonpayable",
      "type": "function"
    },
    {
      "inputs": [
        {
          "internalType": "address",
          "name": "",
          "type": "address"
        },
        {
          "internalType": "uint256",
          "name": "",
          "type": "uint256"
        }
      ],
      "name": "userPositions",
      "outputs": [
        {
          "internalType": "address",
          "name": "token",
          "type": "address"
        },
        {
          "internalType": "uint256",
          "name": "amount",
          "type": "uint256"
        },
        {
          "internalType": "string",
          "name": "protocol",
          "type": "string"
        },
        {
          "internalType": "uint256",
          "name": "entryTime",
          "type": "uint256"
        },
        {
          "internalType": "uint256",
          "name": "expectedApy",
          "type": "uint256"
        }
      ],
      "stateMutability": "view",
      "type": "function"
    }
  ],
  "bytecode": "0x608060405260646008553480156200001657600080fd5b506040516200205538038062002055833981016040819052620000399162000325565b33806200006057604051631e4fbdf760e01b81526000600482015260240160405180910390fd5b6200006b816200014c565b506001808055600980546001600160a01b0319166001600160a01b038416178155604080518082019091529081526841617665205553444360b81b6020820152620000c2916101c264e8d4a510006002836200019c565b60408051808201909152600c81526b086dedae0deeadcc8408aa8960a31b60208201526200010490600261017c6969e10de76676d0800000600360016200019c565b60408051808201909152600b81526a10dd5c9d99480cd41bdbdb60aa1b6020820152620001459060036102086a01a784379d99db420000006001806200019c565b5062000559565b600080546001600160a01b038381166001600160a01b0319831681178455604051919092169283917f8be0079c531659141344cd1fd0a4f28419497f9722a3daafe3b4186f6b6457e09190a35050565b6040518060c00160405280878152602001866001600160a01b03168152602001858152602001848152602001838152602001821515815250600287604051620001e691906200037d565b9081526040519081900360200190208151819062000205908262000440565b506020820151600182810180546001600160a01b0319166001600160a01b039093169290921790915560408301516002830155606083015160038301556080830151600483015560a0909201516005918201805460ff1916911515919091179055805491820181556000527f036b6384b5eca791c62761152d0c79bb0604c104a5fb6f4eb0703f3154bb3db0016200029e878262000440565b5084600487604051620002b291906200037d565b90815260405190819003602001812080546001600160a01b03939093166001600160a01b0319909316929092179091557fa7dd22071273d978e5a2c8d6baa27fe2e73215ad0f45ef97c0a0e8a574d923259062000315908890889085906200050c565b60405180910390a1505050505050565b6000602082840312156200033857600080fd5b81516001600160a01b03811681146200035057600080fd5b9392505050565b60005b83811015620003745781810151838201526020016200035a565b50506000910152565b600082516200039181846020870162000357565b9190910192915050565b634e487b7160e01b600052604160045260246000fd5b600181811c90821680620003c657607f821691505b602082108103620003e757634e487b7160e01b600052602260045260246000fd5b50919050565b601f8211156200043b57600081815260208120601f850160051c81016020861015620004165750805b601f850160051c820191505b81811015620004375782815560010162000422565b5050505b505050565b81516001600160401b038111156200045c576200045c6200039b565b62000474816200046d8454620003b1565b84620003ed565b602080601f831160018114620004ac5760008415620004935750858301515b600019600386901b1c1916600185901b17855562000437565b600085815260208120601f198616915b82811015620004dd57888601518255948401946001909101908401620004bc565b5085821015620004fc5787850151600019600388901b60f8161c191681555b5050505050600190811b01905550565b60608152600084518060608401526200052d81608085016020890162000357565b6001600160a01b039490941660208301525090151560408201526080601f909201601f19160101919050565b611aec80620005696000396000f3fe608060405234801561001057600080fd5b506004361061012c5760003560e01c80637697f9c9116100ad578063e898133011610071578063e8981330146102d7578063ec18154e146102ea578063f160d369146102f3578063f2cabe4c14610306578063f2fde38b1461032757600080fd5b80637697f9c914610260578063780f1acd14610275578063877887821461029a5780638da5cb5b146102a3578063c59d4847146102b457600080fd5b806346904840116100f457806346904840146101b55780634bfe3c09146101e05780635e1b4d99146102145780636134f09814610238578063715018a61461025857600080fd5b80630cfb0b0d14610131578063200193d21461014d57806326f9dd1e146101625780632a6bc2dd146101825780633af092a2146101a2575b600080fd5b61013a60075481565b6040519081526020015b60405180910390f35b61016061015b3660046113a4565b61033a565b005b61017561017036600461140c565b610358565b6040516101449190611499565b6101956101903660046114fd565b61049e565b604051610144919061151f565b6101606101b03660046115bf565b6105d9565b6009546101c8906001600160a01b031681565b6040516001600160a01b039091168152602001610144565b6101c86101ee36600461140c565b80516020818301810180516004825292820191909301209152546001600160a01b031681565b610227610222366004611616565b6106d1565b604051610144959493929190611640565b61024b61024636600461167b565b6107b3565b6040516101449190611694565b61016061085f565b610268610873565b60405161014491906116a7565b61028861028336600461140c565b61094c565b60405161014496959493929190611709565b61013a60085481565b6000546001600160a01b03166101c8565b6102bc610a21565b60408051938452602084019290925290820152606001610144565b6101606102e536600461167b565b610aac565b61013a60065481565b6101606103013660046114fd565b610b03565b610319610314366004611750565b610b7b565b60405161014492919061178c565b6101606103353660046114fd565b610dbc565b610342610dfa565b61035185858585856001610e27565b5050505050565b61039c6040518060c001604052806060815260200160006001600160a01b031681526020016000815260200160008152602001600081526020016000151581525090565b6002826040516103ac91906117a5565b90815260200160405180910390206040518060c00160405290816000820180546103d5906117c1565b80601f0160208091040260200160405190810160405280929190818152602001828054610401906117c1565b801561044e5780601f106104235761010080835404028352916020019161044e565b820191906000526020600020905b81548152906001019060200180831161043157829003601f168201915b505050918352505060018201546001600160a01b0316602082015260028201546040820152600382015460608201526004820154608082015260059091015460ff16151560a09091015292915050565b6001600160a01b0381166000908152600360209081526040808320805482518185028101850190935280835260609492939192909184015b828210156105ce5760008481526020908190206040805160a0810182526005860290920180546001600160a01b0316835260018101549383019390935260028301805492939291840191610529906117c1565b80601f0160208091040260200160405190810160405280929190818152602001828054610555906117c1565b80156105a25780601f10610577576101008083540402835291602001916105a2565b820191906000526020600020905b81548152906001019060200180831161058557829003601f168201915b5050505050815260200160038201548152602001600482015481525050815260200190600101906104d6565b505050509050919050565b6105e1610dfa565b60006002836040516105f391906117a5565b908152604051908190036020019020805461060d906117c1565b9050116106615760405162461bcd60e51b815260206004820152601760248201527f537472617465677920646f6573206e6f7420657869737400000000000000000060448201526064015b60405180910390fd5b8060028360405161067291906117a5565b908152604051908190036020018120600501805492151560ff19909316929092179091557f4368dfdb555999d4bb04388194728ba6653a174763c9f8b00b615aa7c74e0b92906106c590849084906117fb565b60405180910390a15050565b600360205281600052604060002081815481106106ed57600080fd5b60009182526020909120600590910201805460018201546002830180546001600160a01b03909316955090935090610724906117c1565b80601f0160208091040260200160405190810160405280929190818152602001828054610750906117c1565b801561079d5780601f106107725761010080835404028352916020019161079d565b820191906000526020600020905b81548152906001019060200180831161078057829003601f168201915b5050505050908060030154908060040154905085565b600581815481106107c357600080fd5b9060005260206000200160009150905080546107de906117c1565b80601f016020809104026020016040519081016040528092919081815260200182805461080a906117c1565b80156108575780601f1061082c57610100808354040283529160200191610857565b820191906000526020600020905b81548152906001019060200180831161083a57829003601f168201915b505050505081565b610867610dfa565b6108716000610fa6565b565b60606005805480602002602001604051908101604052809291908181526020016000905b828210156109435783829060005260206000200180546108b6906117c1565b80601f01602080910402602001604051908101604052809291908181526020018280546108e2906117c1565b801561092f5780601f106109045761010080835404028352916020019161092f565b820191906000526020600020905b81548152906001019060200180831161091257829003601f168201915b505050505081526020019060010190610897565b50505050905090565b8051602081830181018051600282529282019190930120915280548190610972906117c1565b80601f016020809104026020016040519081016040528092919081815260200182805461099e906117c1565b80156109eb5780601f106109c0576101008083540402835291602001916109eb565b820191906000526020600020905b8154815290600101906020018083116109ce57829003601f168201915b505050600184015460028501546003860154600487015460059097015495966001600160a01b0390931695919450925060ff1686565b6000808080805b600554811015610a9957600260058281548110610a4757610a4761181f565b90600052602060002001604051610a5e9190611835565b9081526040519081900360200190206005015460ff1615610a875781610a83816118c1565b9250505b80610a91816118c1565b915050610a28565b5060065460075490959094509092509050565b610ab4610dfa565b6103e8811115610afe5760405162461bcd60e51b81526020600482015260156024820152744665652063616e6e6f74206578636565642031302560581b6044820152606401610658565b600855565b610b0b610dfa565b6001600160a01b038116610b595760405162461bcd60e51b8152602060048201526015602482015274125b9d985b1a5908199959481c9958da5c1a595b9d605a1b6044820152606401610658565b600980546001600160a01b0319166001600160a01b0392909216919091179055565b60006060610b87610ff6565b6001600160a01b038516610bd45760405162461bcd60e51b8152602060048201526014602482015273496e76616c69642075736572206164647265737360601b6044820152606401610658565b6001600160a01b038416610c225760405162461bcd60e51b8152602060048201526015602482015274496e76616c696420746f6b656e206164647265737360581b6044820152606401610658565b60008311610c725760405162461bcd60e51b815260206004820152601d60248201527f416d6f756e74206d7573742062652067726561746572207468616e20300000006044820152606401610658565b610c7c8484611020565b9092509050610c8d85858584611298565b6001600160a01b038581166000908152600360209081526040808320815160a08101835289861681528084018981529281018781524260608301526080820189905282546001808201855593875294909520815160059095020180546001600160a01b0319169490961693909317855590519084015590519091906002820190610d179082611929565b50606082015181600301556080820151816004015550508260066000828254610d4091906119e9565b909155505060078054906000610d55836118c1565b9190505550836001600160a01b0316856001600160a01b03167f4fe4ebf8cf958897528f304ba499e0cec17b0a4fb517676649919057b62c26c785858542604051610da39493929190611a02565b60405180910390a3610db460018055565b935093915050565b610dc4610dfa565b6001600160a01b038116610dee57604051631e4fbdf760e01b815260006004820152602401610658565b610df781610fa6565b50565b6000546001600160a01b031633146108715760405163118cdaa760e01b8152336004820152602401610658565b6040518060c00160405280878152602001866001600160a01b03168152602001858152602001848152602001838152602001821515815250600287604051610e6f91906117a5565b90815260405190819003602001902081518190610e8c9082611929565b506020820151600182810180546001600160a01b0319166001600160a01b039093169290921790915560408301516002830155606083015160038301556080830151600483015560a0909201516005918201805460ff1916911515919091179055805491820181556000527f036b6384b5eca791c62761152d0c79bb0604c104a5fb6f4eb0703f3154bb3db001610f238782611929565b5084600487604051610f3591906117a5565b90815260405190819003602001812080546001600160a01b03939093166001600160a01b0319909316929092179091557fa7dd22071273d978e5a2c8d6baa27fe2e73215ad0f45ef97c0a0e8a574d9232590610f9690889088908590611a32565b60405180910390a1505050505050565b600080546001600160a01b038381166001600160a01b0319831681178455604051919092169283917f8be0079c531659141344cd1fd0a4f28419497f9722a3daafe3b4186f6b6457e09190a35050565b60026001540361101957604051633ee5aeb560e01b815260040160405180910390fd5b6002600155565b6040805160208101909152600080825290815b600554811015611243576000600582815481106110525761105261181f565b906000526020600020018054611067906117c1565b80601f0160208091040260200160405190810160405280929190818152602001828054611093906117c1565b80156110e05780601f106110b5576101008083540402835291602001916110e0565b820191906000526020600020905b8154815290600101906020018083116110c357829003601f168201915b5050505050905060006002826040516110f991906117a5565b90815260200160405180910390206040518060c0016040529081600082018054611122906117c1565b80601f016020809104026020016040519081016040528092919081815260200182805461114e906117c1565b801561119b5780601f106111705761010080835404028352916020019161119b565b820191906000526020600020905b81548152906001019060200180831161117e57829003601f168201915b505050918352505060018201546001600160a01b0316602082015260028201546040820152600382015460608201526004820154608082015260059091015460ff16151560a09182015281015190915080156111fa5750848160400151115b1561122e57600061120c606442611a65565b826040015161121b91906119e9565b90508581111561122c578095508294505b505b5050808061123b906118c1565b915050611033565b50816000036112915761125760c842611a65565b6112639061012c6119e9565b91506040518060400160405280601081526020016f44656661756c7420537472617465677960801b81525090505b9250929050565b836001600160a01b03167f8be4e175b1cac6c9c0a6e82a78130bbcc68d4395b21809c79273ce75eaf581d2828485426040516112d79493929190611a87565b60405180910390a250505050565b634e487b7160e01b600052604160045260246000fd5b600082601f83011261130c57600080fd5b813567ffffffffffffffff80821115611327576113276112e5565b604051601f8301601f19908116603f0116810190828211818310171561134f5761134f6112e5565b8160405283815286602085880101111561136857600080fd5b836020870160208301376000602085830101528094505050505092915050565b80356001600160a01b038116811461139f57600080fd5b919050565b600080600080600060a086880312156113bc57600080fd5b853567ffffffffffffffff8111156113d357600080fd5b6113df888289016112fb565b9550506113ee60208701611388565b94979496505050506040830135926060810135926080909101359150565b60006020828403121561141e57600080fd5b813567ffffffffffffffff81111561143557600080fd5b611441848285016112fb565b949350505050565b60005b8381101561146457818101518382015260200161144c565b50506000910152565b60008151808452611485816020860160208601611449565b601f01601f19169290920160200192915050565b602081526000825160c060208401526114b560e084018261146d565b905060018060a01b0360208501511660408401526040840151606084015260608401516080840152608084015160a084015260a0840151151560c08401528091505092915050565b60006020828403121561150f57600080fd5b61151882611388565b9392505050565b60006020808301818452808551808352604092508286019150828160051b87010184880160005b838110156115b157888303603f19018552815180516001600160a01b0316845287810151888501528681015160a0888601819052906115878287018261146d565b60608481015190880152608093840151939096019290925250509386019390860190600101611546565b509098975050505050505050565b600080604083850312156115d257600080fd5b823567ffffffffffffffff8111156115e957600080fd5b6115f5858286016112fb565b9250506020830135801515811461160b57600080fd5b809150509250929050565b6000806040838503121561162957600080fd5b61163283611388565b946020939093013593505050565b60018060a01b038616815284602082015260a06040820152600061166760a083018661146d565b606083019490945250608001529392505050565b60006020828403121561168d57600080fd5b5035919050565b602081526000611518602083018461146d565b6000602080830181845280855180835260408601915060408160051b870101925083870160005b828110156116fc57603f198886030184526116ea85835161146d565b945092850192908501906001016116ce565b5092979650505050505050565b60c08152600061171c60c083018961146d565b6001600160a01b0397909716602083015250604081019490945260608401929092526080830152151560a090910152919050565b60008060006060848603121561176557600080fd5b61176e84611388565b925061177c60208501611388565b9150604084013590509250925092565b828152604060208201526000611441604083018461146d565b600082516117b7818460208701611449565b9190910192915050565b600181811c908216806117d557607f821691505b6020821081036117f557634e487b7160e01b600052602260045260246000fd5b50919050565b60408152600061180e604083018561146d565b905082151560208301529392505050565b634e487b7160e01b600052603260045260246000fd5b6000808354611843816117c1565b6001828116801561185b57600181146118705761189f565b60ff198416875282151583028701945061189f565b8760005260208060002060005b858110156118965781548a82015290840190820161187d565b50505082870194505b50929695505050505050565b634e487b7160e01b600052601160045260246000fd5b6000600182016118d3576118d36118ab565b5060010190565b601f82111561192457600081815260208120601f850160051c810160208610156119015750805b601f850160051c820191505b818110156119205782815560010161190d565b5050505b505050565b815167ffffffffffffffff811115611943576119436112e5565b6119578161195184546117c1565b846118da565b602080601f83116001811461198c57600084156119745750858301515b600019600386901b1c1916600185901b178555611920565b600085815260208120601f198616915b828110156119bb5788860151825594840194600190910190840161199c565b50858210156119d95787850151600019600388901b60f8161c191681555b5050505050600190811b01905550565b808201808211156119fc576119fc6118ab565b92915050565b848152836020820152608060408201526000611a21608083018561146d565b905082606083015295945050505050565b606081526000611a45606083018661146d565b6001600160a01b0394909416602083015250901515604090910152919050565b600082611a8257634e487b7160e01b600052601260045260246000fd5b500690565b608081526000611a9a608083018761146d565b602083019590955250604081019290925260609091015291905056fea264697066735822122087170f5252eb9ec3691178f155ccc2022de55d85f1e5dd9f27d71beb2a97c32d64736f6c63430008140033",
  "linkReferences": {},
  "deployedLinkReferences": {}
}