{
  "_format": "hh-sol-artifact-1",
  "contractName": "RiskManager",
  "sourceName": "contracts/RiskManager.sol",
  "abi": [
    {
      "inputs": [
        {
          "internalType": "address",
          "name": "_emergencyManager",
          "type": "address"
        }
      ],
      "stateMutability": "nonpayable",
      "type": "constructor"
    },
    {
      "inputs": [
        {
          "internalType": "address",
          "name": "owner",
          "type": "address"
        }
      ],
      "name": "OwnableInvalidOwner",
      "type": "error"
    },
    {
      "inputs": [
        {
          "internalType": "address",
          "name": "account",
          "type": "address"
        }
      ],
      "name": "OwnableUnauthorizedAccount",
      "type": "error"
    },
    {
      "inputs": [],
      "name": "ReentrancyGuardReentrantCall",
      "type": "error"
    },
    {
      "anonymous": false,
      "inputs": [
        {
          "indexed": true,
          "internalType": "address",
          "name": "previousOwner",
          "type": "address"
        },
        {
          "indexed": true,
          "internalType": "address",
          "name": "newOwner",
          "type": "address"
        }
      ],
      "name": "OwnershipTransferred",
      "type": "event"
    },
    {
      "anonymous": false,
      "inputs": [
        {
          "indexed": true,
          "internalType": "address",
          "name": "user",
          "type": "address"
        },
        {
          "indexed": true,
          "internalType": "address",
          "name": "token",
          "type": "address"
        },
        {
          "indexed": false,
          "internalType": "uint256",
          "name": "amount",
          "type": "uint256"
        },
        {
          "indexed": false,
          "internalType": "string",
          "name": "reason",
          "type": "string"
        },
        {
          "indexed": false,
          "internalType": "uint256",
          "name": "timestamp",
          "type": "uint256"
        }
      ],
      "name": "PositionLiquidated",
      "type": "event"
    },
    {
      "anonymous": false,
      "inputs": [
        {
          "indexed": true,
          "internalType": "address",
          "name": "user",
          "type": "address"
        },
        {
          "indexed": false,
          "internalType": "string",
          "name": "alertType",
          "type": "string"
        },
        {
          "indexed": false,
          "internalType": "uint256",
          "name": "currentRisk",
          "type": "uint256"
        },
        {
          "indexed": false,
          "internalType": "uint256",
          "name": "threshold",
          "type": "uint256"
        },
        {
          "indexed": false,
          "internalType": "string",
          "name": "recommendation",
          "type": "string"
        },
        {
          "indexed": false,
          "internalType": "uint256",
          "name": "timestamp",
          "type": "uint256"
        }
      ],
      "name": "RiskAlert",
      "type": "event"
    },
    {
      "anonymous": false,
      "inputs": [
        {
          "indexed": true,
          "internalType": "address",
          "name": "user",
          "type": "address"
        },
        {
          "indexed": false,
          "internalType": "uint256",
          "name": "riskScore",
          "type": "uint256"
        },
        {
          "indexed": false,
          "internalType": "string",
          "name": "riskLevel",
          "type": "string"
        },
        {
          "indexed": false,
          "internalType": "uint256",
          "name": "portfolioValue",
          "type": "uint256"
        },
        {
          "indexed": false,
          "internalType": "uint256",
          "name": "timestamp",
          "type": "uint256"
        }
      ],
      "name": "RiskAssessed",
      "type": "event"
    },
    {
      "anonymous": false,
      "inputs": [
        {
          "indexed": false,
          "internalType": "uint256",
          "name": "maxRiskScore",
          "type": "uint256"
        },
        {
          "indexed": false,
          "internalType": "uint256",
          "name": "liquidationThreshold",
          "type": "uint256"
        },
        {
          "indexed": false,
          "internalType": "uint256",
          "name": "warningThreshold",
          "type": "uint256"
        }
      ],
      "name": "RiskParametersUpdated",
      "type": "event"
    },
    {
      "inputs": [
        {
          "internalType": "address",
          "name": "user",
          "type": "address"
        },
        {
          "internalType": "address",
          "name": "token",
          "type": "address"
        },
        {
          "internalType": "uint256",
          "name": "amount",
          "type": "uint256"
        },
        {
          "internalType": "uint256",
          "name": "value",
          "type": "uint256"
        },
        {
          "internalType": "string",
          "name": "protocol",
          "type": "string"
        }
      ],
      "name": "addPosition",
      "outputs": [],
      "stateMutability": "nonpayable",
      "type": "function"
    },
    {
      "inputs": [],
      "name": "emergencyManager",
      "outputs": [
        {
          "internalType": "address",
          "name": "",
          "type": "address"
        }
      ],
      "stateMutability": "view",
      "type": "function"
    },
    {
      "inputs": [
        {
          "internalType": "address",
          "name": "user",
          "type": "address"
        }
      ],
      "name": "evaluateRisk",
      "outputs": [
        {
          "internalType": "uint256",
          "name": "riskScore",
          "type": "uint256"
        },
        {
          "internalType": "string",
          "name": "riskLevel",
          "type": "string"
        }
      ],
      "stateMutability": "nonpayable",
      "type": "function"
    },
    {
      "inputs": [],
      "name": "getStats",
      "outputs": [
        {
          "internalType": "uint256",
          "name": "_totalAssessments",
          "type": "uint256"
        },
        {
          "internalType": "uint256",
          "name": "_totalAlerts",
          "type": "uint256"
        },
        {
          "internalType": "uint256",
          "name": "_totalLiquidations",
          "type": "uint256"
        },
        {
          "internalType": "uint256",
          "name": "_activeAlerts",
          "type": "uint256"
        }
      ],
      "stateMutability": "view",
      "type": "function"
    },
    {
      "inputs": [
        {
          "internalType": "address",
          "name": "user",
          "type": "address"
        }
      ],
      "name": "getUserPositions",
      "outputs": [
        {
          "components": [
            {
              "internalType": "address",
              "name": "token",
              "type": "address"
            },
            {
              "internalType": "uint256",
              "name": "amount",
              "type": "uint256"
            },
            {
              "internalType": "uint256",
              "name": "value",
              "type": "uint256"
            },
            {
              "internalType": "string",
              "name": "protocol",
              "type": "string"
            },
            {
              "internalType": "uint256",
              "name": "entryTime",
              "type": "uint256"
            },
            {
              "internalType": "uint256",
              "name": "riskWeight",
              "type": "uint256"
            }
          ],
          "internalType": "struct RiskManager.Position[]",
          "name": "",
          "type": "tuple[]"
        }
      ],
      "stateMutability": "view",
      "type": "function"
    },
    {
      "inputs": [
        {
          "internalType": "address",
          "name": "user",
          "type": "address"
        }
      ],
      "name": "getUserRiskAssessment",
      "outputs": [
        {
          "components": [
            {
              "internalType": "uint256",
              "name": "riskScore",
              "type": "uint256"
            },
            {
              "internalType": "string",
              "name": "riskLevel",
              "type": "string"
            },
            {
              "internalType": "uint256",
              "name": "portfolioValue",
              "type": "uint256"
            },
            {
              "internalType": "uint256",
              "name": "volatilityScore",
              "type": "uint256"
            },
            {
              "internalType": "uint256",
              "name": "concentrationRisk",
              "type": "uint256"
            },
            {
              "internalType": "uint256",
              "name": "liquidityRisk",
              "type": "uint256"
            },
            {
              "internalType": "uint256",
              "name": "timestamp",
              "type": "uint256"
            }
          ],
          "internalType": "struct RiskManager.RiskAssessment",
          "name": "",
          "type": "tuple"
        }
      ],
      "stateMutability": "view",
      "type": "function"
    },
    {
      "inputs": [],
      "name": "liquidationThreshold",
      "outputs": [
        {
          "internalType": "uint256",
          "name": "",
          "type": "uint256"
        }
      ],
      "stateMutability": "view",
      "type": "function"
    },
    {
      "inputs": [],
      "name": "maxConcentration",
      "outputs": [
        {
          "internalType": "uint256",
          "name": "",
          "type": "uint256"
        }
      ],
      "stateMutability": "view",
      "type": "function"
    },
    {
      "inputs": [],
      "name": "maxRiskScore",
      "outputs": [
        {
          "internalType": "uint256",
          "name": "",
          "type": "uint256"
        }
      ],
      "stateMutability": "view",
      "type": "function"
    },
    {
      "inputs": [],
      "name": "minLiquidity",
      "outputs": [
        {
          "internalType": "uint256",
          "name": "",
          "type": "uint256"
        }
      ],
      "stateMutability": "view",
      "type": "function"
    },
    {
      "inputs": [],
      "name": "owner",
      "outputs": [
        {
          "internalType": "address",
          "name": "",
          "type": "address"
        }
      ],
      "stateMutability": "view",
      "type": "function"
    },
    {
      "inputs": [
        {
          "internalType": "string",
          "name": "",
          "type": "string"
        }
      ],
      "name": "protocolRiskWeights",
      "outputs": [
        {
          "internalType": "uint256",
          "name": "",
          "type": "uint256"
        }
      ],
      "stateMutability": "view",
      "type": "function"
    },
    {
      "inputs": [],
      "name": "renounceOwnership",
      "outputs": [],
      "stateMutability": "nonpayable",
      "type": "function"
    },
    {
      "inputs": [
        {
          "internalType": "address",
          "name": "",
          "type": "address"
        }
      ],
      "name": "riskAlerts",
      "outputs": [
        {
          "internalType": "bool",
          "name": "",
          "type": "bool"
        }
      ],
      "stateMutability": "view",
      "type": "function"
    },
    {
      "inputs": [
        {
          "internalType": "address",
          "name": "",
          "type": "address"
        }
      ],
      "name": "tokenRiskWeights",
      "outputs": [
        {
          "internalType": "uint256",
          "name": "",
          "type": "uint256"
        }
      ],
      "stateMutability": "view",
      "type": "function"
    },
    {
      "inputs": [],
      "name": "totalAlertsIssued",
      "outputs": [
        {
          "internalType": "uint256",
          "name": "",
          "type": "uint256"
        }
      ],
      "stateMutability": "view",
      "type": "function"
    },
    {
      "inputs": [],
      "name": "totalAssessments",
      "outputs": [
        {
          "internalType": "uint256",
          "name": "",
          "type": "uint256"
        }
      ],
      "stateMutability": "view",
      "type": "function"
    },
    {
      "inputs": [],
      "name": "totalLiquidations",
      "outputs": [
        {
          "internalType": "uint256",
          "name": "",
          "type": "uint256"
        }
      ],
      "stateMutability": "view",
      "type": "function"
    },
    {
      "inputs": [
        {
          "internalType": "address",
          "name": "newOwner",
          "type": "address"
        }
      ],
      "name": "transferOwnership",
      "outputs": [],
      "stateMutability": "nonpayable",
      "type": "function"
    },
    {
      "inputs": [
        {
          "internalType": "string",
          "name": "protocol",
          "type": "string"
        },
        {
          "internalType": "uint256",
          "name": "weight",
          "type": "uint256"
        }
      ],
      "name": "updateProtocolRiskWeight",
      "outputs": [],
      "stateMutability": "nonpayable",
      "type": "function"
    },
    {
      "inputs": [
        {
          "internalType": "uint256",
          "name": "_maxRiskScore",
          "type": "uint256"
        },
        {
          "internalType": "uint256",
          "name": "_liquidationThreshold",
          "type": "uint256"
        },
        {
          "internalType": "uint256",
          "name": "_warningThreshold",
          "type": "uint256"
        }
      ],
      "name": "updateRiskParameters",
      "outputs": [],
      "stateMutability": "nonpayable",
      "type": "function"
    },
    {
      "inputs": [
        {
          "internalType": "address",
          "name": "token",
          "type": "address"
        },
        {
          "internalType": "uint256",
          "name": "weight",
          "type": "uint256"
        }
      ],
      "name": "updateTokenRiskWeight",
      "outputs": [],
      "stateMutability": "nonpayable",
      "type": "function"
    },
    {
      "inputs": [
        {
          "internalType": "address",
          "name": "",
          "type": "address"
        },
        {
          "internalType": "uint256",
          "name": "",
          "type": "uint256"
        }
      ],
      "name": "userPositions",
      "outputs": [
        {
          "internalType": "address",
          "name": "token",
          "type": "address"
        },
        {
          "internalType": "uint256",
          "name": "amount",
          "type": "uint256"
        },
        {
          "internalType": "uint256",
          "name": "value",
          "type": "uint256"
        },
        {
          "internalType": "string",
          "name": "protocol",
          "type": "string"
        },
        {
          "internalType": "uint256",
          "name": "entryTime",
          "type": "uint256"
        },
        {
          "internalType": "uint256",
          "name": "riskWeight",
          "type": "uint256"
        }
      ],
      "stateMutability": "view",
      "type": "function"
    },
    {
      "inputs": [
        {
          "internalType": "address",
          "name": "",
          "type": "address"
        }
      ],
      "name": "userRiskAssessments",
      "outputs": [
        {
          "internalType": "uint256",
          "name": "riskScore",
          "type": "uint256"
        },
        {
          "internalType": "string",
          "name": "riskLevel",
          "type": "string"
        },
        {
          "internalType": "uint256",
          "name": "portfolioValue",
          "type": "uint256"
        },
        {
          "internalType": "uint256",
          "name": "volatilityScore",
          "type": "uint256"
        },
        {
          "internalType": "uint256",
          "name": "concentrationRisk",
          "type": "uint256"
        },
        {
          "internalType": "uint256",
          "name": "liquidityRisk",
          "type": "uint256"
        },
        {
          "internalType": "uint256",
          "name": "timestamp",
          "type": "uint256"
        }
      ],
      "stateMutability": "view",
      "type": "function"
    },
    {
      "inputs": [
        {
          "internalType": "address",
          "name": "",
          "type": "address"
        }
      ],
      "name": "userRiskMetrics",
      "outputs": [
        {
          "internalType": "uint256",
          "name": "totalValue",
          "type": "uint256"
        },
        {
          "internalType": "uint256",
          "name": "riskScore",
          "type": "uint256"
        },
        {
          "internalType": "uint256",
          "name": "diversificationScore",
          "type": "uint256"
        },
        {
          "internalType": "uint256",
          "name": "liquidityScore",
          "type": "uint256"
        },
        {
          "internalType": "uint256",
          "name": "volatilityScore",
          "type": "uint256"
        },
        {
          "internalType": "uint256",
          "name": "protocolRiskScore",
          "type": "uint256"
        }
      ],
      "stateMutability": "view",
      "type": "function"
    },
    {
      "inputs": [],
      "name": "warningThreshold",
      "outputs": [
        {
          "internalType": "uint256",
          "name": "",
          "type": "uint256"
        }
      ],
      "stateMutability": "view",
      "type": "function"
    }
  ],
  "bytecode": "0x60806040526103206006556103846007556102bc60085561012c6009556064600a553480156200002e57600080fd5b50604051620023e9380380620023e98339810160408190526200005191620001f2565b33806200007857604051631e4fbdf760e01b81526000600482015260240160405180910390fd5b6200008381620001a2565b5060018055601080546001600160a01b0319166001600160a01b038316179055604051634161766560e01b815260c890600b90600401908152604051908190036020018120919091556710dbdb5c1bdd5b9960c21b815260fa90600b9060080190815260405190819003602001812091909155660556e69737761760cc1b815261019090600b906007019081526040519081900360200181209190915564437572766560d81b815261012c90600b90600501908152604051908190036020018120919091556805375736869737761760bc1b81526101c290600b9060090190815260405190819003602001812091909155662ab735b737bbb760c91b815261032090600b90600701908152604051908190036020019020555062000224565b600080546001600160a01b038381166001600160a01b0319831681178455604051919092169283917f8be0079c531659141344cd1fd0a4f28419497f9722a3daafe3b4186f6b6457e09190a35050565b6000602082840312156200020557600080fd5b81516001600160a01b03811681146200021d57600080fd5b9392505050565b6121b580620002346000396000f3fe608060405234801561001057600080fd5b506004361061018e5760003560e01c80637978bade116100de578063c59d484711610097578063d2c18f5911610071578063d2c18f59146103fa578063e0420d8e1461040d578063f2fde38b14610438578063fd9116481461044b57600080fd5b8063c59d4847146103b3578063c6499216146103de578063c93b3750146103f157600080fd5b80637978bade1461030b5780637ad4074f1461031e5780638da5cb5b1461033f578063954806d714610364578063ac79318e1461036d578063baa96c1c146103a057600080fd5b80632a6bc2dd1161014b5780634031234c116101255780634031234c146102af5780635e1b4d99146102b857806366c76fca146102dd578063715018a61461030357600080fd5b80632a6bc2dd146102665780632b08c955146102865780633f3bc3611461028f57600080fd5b80630492c22c1461019357806313f190d7146101a85780631445d873146101c45780631c95d81c146101e45780631f99e274146101ed578063252cf2d21461025d575b600080fd5b6101a66101a1366004611bcc565b610454565b005b6101b160065481565b6040519081526020015b60405180910390f35b6101d76101d2366004611c2d565b6104d4565b6040516101bb9190611c98565b6101b1600e5481565b6102306101fb366004611c2d565b600460208190526000918252604090912080546001820154600283015460038401549484015460059094015492949193909286565b604080519687526020870195909552938501929092526060840152608083015260a082015260c0016101bb565b6101b1600a5481565b610279610274366004611c2d565b61060c565b6040516101bb9190611cfd565b6101b1600d5481565b6101b161029d366004611c2d565b600c6020526000908152604090205481565b6101b160075481565b6102cb6102c6366004611da9565b610752565b6040516101bb96959493929190611dd3565b6102f06102eb366004611c2d565b61083a565b6040516101bb9796959493929190611e15565b6101a66108fd565b6101a6610319366004611e58565b610911565b61033161032c366004611c2d565b610aba565b6040516101bb929190611e84565b6000546001600160a01b03165b6040516001600160a01b0390911681526020016101bb565b6101b1600f5481565b61039061037b366004611c2d565b60056020526000908152604090205460ff1681565b60405190151581526020016101bb565b6101a66103ae366004611da9565b610cb5565b600d54600e54600f5460006040805194855260208501939093529183015260608201526080016101bb565b6101a66103ec366004611e9d565b610d27565b6101b160095481565b60105461034c906001600160a01b031681565b6101b161041b366004611f0f565b8051602081830181018051600b8252928201919093012091525481565b6101a6610446366004611c2d565b610e28565b6101b160085481565b61045c610e66565b6103e88111156104af5760405162461bcd60e51b815260206004820152601960248201527805765696768742063616e6e6f7420657863656564203130303603c1b60448201526064015b60405180910390fd5b80600b836040516104c09190611f44565b908152604051908190036020019020555050565b6105146040518060e00160405280600081526020016060815260200160008152602001600081526020016000815260200160008152602001600081525090565b6001600160a01b038216600090815260026020908152604091829020825160e0810190935280548352600181018054919284019161055190611f60565b80601f016020809104026020016040519081016040528092919081815260200182805461057d90611f60565b80156105ca5780601f1061059f576101008083540402835291602001916105ca565b820191906000526020600020905b8154815290600101906020018083116105ad57829003601f168201915b50505050508152602001600282015481526020016003820154815260200160048201548152602001600582015481526020016006820154815250509050919050565b6001600160a01b0381166000908152600360209081526040808320805482518185028101850190935280835260609492939192909184015b828210156107475760008481526020908190206040805160c0810182526006860290920180546001600160a01b031683526001810154938301939093526002830154908201526003820180549192916060840191906106a290611f60565b80601f01602080910402602001604051908101604052809291908181526020018280546106ce90611f60565b801561071b5780601f106106f05761010080835404028352916020019161071b565b820191906000526020600020905b8154815290600101906020018083116106fe57829003601f168201915b505050505081526020016004820154815260200160058201548152505081526020019060010190610644565b505050509050919050565b6003602052816000526040600020818154811061076e57600080fd5b600091825260209091206006909102018054600182015460028301546003840180546001600160a01b03909416965091945092916107ab90611f60565b80601f01602080910402602001604051908101604052809291908181526020018280546107d790611f60565b80156108245780601f106107f957610100808354040283529160200191610824565b820191906000526020600020905b81548152906001019060200180831161080757829003601f168201915b5050505050908060040154908060050154905086565b6002602052600090815260409020805460018201805491929161085c90611f60565b80601f016020809104026020016040519081016040528092919081815260200182805461088890611f60565b80156108d55780601f106108aa576101008083540402835291602001916108d5565b820191906000526020600020905b8154815290600101906020018083116108b857829003601f168201915b5050505050908060020154908060030154908060040154908060050154908060060154905087565b610905610e66565b61090f6000610e93565b565b610919610e66565b6103e88311156109645760405162461bcd60e51b8152602060048201526016602482015275496e76616c6964206d6178207269736b2073636f726560501b60448201526064016104a6565b6103e88211156109b65760405162461bcd60e51b815260206004820152601d60248201527f496e76616c6964206c69717569646174696f6e207468726573686f6c6400000060448201526064016104a6565b6103e8811115610a085760405162461bcd60e51b815260206004820152601960248201527f496e76616c6964207761726e696e67207468726573686f6c640000000000000060448201526064016104a6565b818110610a655760405162461bcd60e51b815260206004820152602560248201527f5761726e696e67206d757374206265206c657373207468616e206c697175696460448201526430ba34b7b760d91b60648201526084016104a6565b60068390556007829055600881905560408051848152602081018490529081018290527fca49799fec639051ee77a7ef822992984f069ae6a4d7da4106c5a59b6a6e4cae9060600160405180910390a1505050565b600060606001600160a01b038316610b0b5760405162461bcd60e51b8152602060048201526014602482015273496e76616c69642075736572206164647265737360601b60448201526064016104a6565b6000610b1684610ee3565b9050610b218161122c565b9250610b2c836112e8565b91506040518060e001604052808481526020018381526020018260000151815260200182608001518152602001610b62866113b7565b8152602001610b70866115ed565b8152426020918201526001600160a01b0386166000908152600282526040902082518155908201516001820190610ba79082611fe9565b5060408201518160020155606082015181600301556080820151816004015560a0820151816005015560c082015181600601559050508060046000866001600160a01b03166001600160a01b03168152602001908152602001600020600082015181600001556020820151816001015560408201518160020155606082015181600301556080820151816004015560a08201518160050155905050600d6000815480929190610c55906120bf565b9190505550610c6484846117bd565b836001600160a01b03167fcc475f71da638088f35254f0cbf7c2973ee17c563fcf768fcd2b9a433fa6ce728484846000015142604051610ca794939291906120d8565b60405180910390a250915091565b610cbd610e66565b6103e8811115610d0b5760405162461bcd60e51b815260206004820152601960248201527805765696768742063616e6e6f7420657863656564203130303603c1b60448201526064016104a6565b6001600160a01b039091166000908152600c6020526040902055565b6001600160a01b038086166000908152600360209081526040808320815160c081018352948916808652858401899052858301889052606086018790524260808701528452600c9092529091205490919060a0820190610d89576101f4610da3565b6001600160a01b0387166000908152600c60205260409020545b90528154600180820184556000938452602093849020835160069093020180546001600160a01b0319166001600160a01b0390931692909217825592820151928101929092556040810151600283015560608101519091906003820190610e0a9082611fe9565b506080820151816004015560a0820151816005015550505050505050565b610e30610e66565b6001600160a01b038116610e5a57604051631e4fbdf760e01b8152600060048201526024016104a6565b610e6381610e93565b50565b6000546001600160a01b0316331461090f5760405163118cdaa760e01b81523360048201526024016104a6565b600080546001600160a01b038381166001600160a01b0319831681178455604051919092169283917f8be0079c531659141344cd1fd0a4f28419497f9722a3daafe3b4186f6b6457e09190a35050565b610f1c6040518060c001604052806000815260200160008152602001600081526020016000815260200160008152602001600081525090565b6001600160a01b038216600090815260036020908152604080832080548251818502810185019093528083529192909190849084015b828210156110555760008481526020908190206040805160c0810182526006860290920180546001600160a01b03168352600181015493830193909352600283015490820152600382018054919291606084019190610fb090611f60565b80601f0160208091040260200160405190810160405280929190818152602001828054610fdc90611f60565b80156110295780601f10610ffe57610100808354040283529160200191611029565b820191906000526020600020905b81548152906001019060200180831161100c57829003601f168201915b505050505081526020016004820154815260200160058201548152505081526020019060010190610f52565b50505050905080516000036110a1576040518060c0016040528060008152602001600081526020016103e881526020016103e88152602001600081526020016000815250915050919050565b6000806000805b84518110156111a45760008582815181106110c5576110c5612104565b602002602001015190508060400151856110df919061211a565b81516001600160a01b03166000908152600c602052604081205491965081900361110857506101f45b6000600b836060015160405161111e9190611f44565b90815260200160405180910390205490508060000361113c57506103205b6103e882846040015161114f9190612133565b611159919061214a565b611163908761211a565b95506103e88184604001516111789190612133565b611182919061214a565b61118c908661211a565b9450505050808061119c906120bf565b9150506110a8565b5082156111de57826111b8836103e8612133565b6111c2919061214a565b9150826111d1826103e8612133565b6111db919061214a565b90505b6040518060c001604052808481526020018381526020016111fe866117e7565b815260200161120c86611856565b815260200161121a866118e3565b81526020019190915295945050505050565b60008060648360a00151600a6112429190612133565b608085015161125290600f612133565b6060860151611263906103e861216c565b61126e906014612133565b604087015161127f906103e861216c565b61128a906019612133565b602088015161129a90601e612133565b6112a4919061211a565b6112ae919061211a565b6112b8919061211a565b6112c2919061211a565b6112cc919061214a565b90506103e881116112dd57806112e1565b6103e85b9392505050565b606060c8821161131657505060408051808201909152600881526756657279204c6f7760c01b602082015290565b610190821161133e5750506040805180820190915260038152624c6f7760e81b602082015290565b61025882116113695750506040805180820190915260068152654d656469756d60d01b602082015290565b6103208211611392575050604080518082019091526004815263090d2ced60e31b602082015290565b50506040805180820190915260098152680accae4f24090d2ced60bb1b602082015290565b6001600160a01b038116600090815260036020908152604080832080548251818502810185019093528083528493849084015b828210156114ed5760008481526020908190206040805160c0810182526006860290920180546001600160a01b0316835260018101549383019390935260028301549082015260038201805491929160608401919061144890611f60565b80601f016020809104026020016040519081016040528092919081815260200182805461147490611f60565b80156114c15780601f10611496576101008083540402835291602001916114c1565b820191906000526020600020905b8154815290600101906020018083116114a457829003601f168201915b5050505050815260200160048201548152602001600582015481525050815260200190600101906113ea565b50505050905080516000036115055750600092915050565b60008060005b83518110156115975783818151811061152657611526612104565b6020026020010151604001518361153d919061211a565b92508184828151811061155257611552612104565b60200260200101516040015111156115855783818151811061157657611576612104565b60200260200101516040015191505b8061158f816120bf565b91505061150b565b50816000036115ab57506000949350505050565b6000826115ba836103e8612133565b6115c4919061214a565b905060095481116115d65760006115e3565b6009546115e3908261216c565b9695505050505050565b6001600160a01b038116600090815260036020908152604080832080548251818502810185019093528083528493849084015b828210156117235760008481526020908190206040805160c0810182526006860290920180546001600160a01b0316835260018101549383019390935260028301549082015260038201805491929160608401919061167e90611f60565b80601f01602080910402602001604051908101604052809291908181526020018280546116aa90611f60565b80156116f75780601f106116cc576101008083540402835291602001916116f7565b820191906000526020600020905b8154815290600101906020018083116116da57829003601f168201915b505050505081526020016004820154815260200160058201548152505081526020019060010190611620565b505050509050805160000361173b5750600092915050565b6000805b82518110156117a8576000683635c9adc5dea0000084838151811061176657611766612104565b6020026020010151604001511061177e5760c8611782565b6101905b61ffff169050611792818461211a565b92505080806117a0906120bf565b91505061173f565b5081516117b5908261214a565b949350505050565b60075481106117d4576117d0828261196e565b5050565b60085481106117d0576117d08282611a6a565b600060018251116117fa57506000919050565b60008251606461180a9190612133565b905061032081111561181b57506103205b6001600061182a826032612133565b90506000611838828561211a565b90506103e8811161184957806115e3565b6103e89695505050505050565b600080805b83518110156118c5576000683635c9adc5dea0000085838151811061188257611882612104565b6020026020010151604001511161189b5761025861189f565b6103205b61ffff1690506118af818461211a565b92505080806118bd906120bf565b91505061185b565b5060008351116118d7576103e86112e1565b82516112e1908261214a565b600080805b835181101561195d57600084828151811061190557611905612104565b6020026020010151608001514261191c919061216c565b905060006201518082106119325761012c611936565b6102585b61ffff169050611946818561211a565b935050508080611955906120bf565b9150506118e8565b5060008351116118d75760006112e1565b6001600160a01b0382166000908152600560205260408120805460ff19166001179055600e80549161199f836120bf565b90915550506007546040805160a08082526014908201527313125455525110551253d397d49154555254915160621b60c0820152602081018490529081019190915260e0606082018190526025908201527f496d6d65646961746520706f736974696f6e20726564756374696f6e20726571610100820152641d5a5c995960da1b6101208201524260808201526001600160a01b038316907fdf76491341235f350869b66a4085d8a6dbf518c2a5c6b8d5278157dee4d5e4b190610140015b60405180910390a25050565b600e8054906000611a7a836120bf565b90915550506008546040805160a080825260119082015270484947485f5249534b5f5741524e494e4760781b60c082015260208082018590529181019290925260e0606083018190528201527f436f6e7369646572207265647563696e6720706f736974696f6e2073697a65736101008201524260808201526001600160a01b038316907fdf76491341235f350869b66a4085d8a6dbf518c2a5c6b8d5278157dee4d5e4b19061012001611a5e565b634e487b7160e01b600052604160045260246000fd5b600082601f830112611b5057600080fd5b813567ffffffffffffffff80821115611b6b57611b6b611b29565b604051601f8301601f19908116603f01168101908282118183101715611b9357611b93611b29565b81604052838152866020858801011115611bac57600080fd5b836020870160208301376000602085830101528094505050505092915050565b60008060408385031215611bdf57600080fd5b823567ffffffffffffffff811115611bf657600080fd5b611c0285828601611b3f565b95602094909401359450505050565b80356001600160a01b0381168114611c2857600080fd5b919050565b600060208284031215611c3f57600080fd5b6112e182611c11565b60005b83811015611c63578181015183820152602001611c4b565b50506000910152565b60008151808452611c84816020860160208601611c48565b601f01601f19169290920160200192915050565b60208152815160208201526000602083015160e06040840152611cbf610100840182611c6c565b90506040840151606084015260608401516080840152608084015160a084015260a084015160c084015260c084015160e08401528091505092915050565b60006020808301818452808551808352604092508286019150828160051b87010184880160005b83811015611d9b57888303603f19018552815180516001600160a01b031684528781015188850152868101518785015260608082015160c08287018190529190611d7083880182611c6c565b6080858101519089015260a09485015194909701939093525050509386019390860190600101611d24565b509098975050505050505050565b60008060408385031215611dbc57600080fd5b611dc583611c11565b946020939093013593505050565b60018060a01b038716815285602082015284604082015260c060608201526000611e0060c0830186611c6c565b60808301949094525060a00152949350505050565b87815260e060208201526000611e2e60e0830189611c6c565b6040830197909752506060810194909452608084019290925260a083015260c09091015292915050565b600080600060608486031215611e6d57600080fd5b505081359360208301359350604090920135919050565b8281526040602082015260006117b56040830184611c6c565b600080600080600060a08688031215611eb557600080fd5b611ebe86611c11565b9450611ecc60208701611c11565b93506040860135925060608601359150608086013567ffffffffffffffff811115611ef657600080fd5b611f0288828901611b3f565b9150509295509295909350565b600060208284031215611f2157600080fd5b813567ffffffffffffffff811115611f3857600080fd5b6117b584828501611b3f565b60008251611f56818460208701611c48565b9190910192915050565b600181811c90821680611f7457607f821691505b602082108103611f9457634e487b7160e01b600052602260045260246000fd5b50919050565b601f821115611fe457600081815260208120601f850160051c81016020861015611fc15750805b601f850160051c820191505b81811015611fe057828155600101611fcd565b5050505b505050565b815167ffffffffffffffff81111561200357612003611b29565b612017816120118454611f60565b84611f9a565b602080601f83116001811461204c57600084156120345750858301515b600019600386901b1c1916600185901b178555611fe0565b600085815260208120601f198616915b8281101561207b5788860151825594840194600190910190840161205c565b50858210156120995787850151600019600388901b60f8161c191681555b5050505050600190811b01905550565b634e487b7160e01b600052601160045260246000fd5b6000600182016120d1576120d16120a9565b5060010190565b8481526080602082015260006120f16080830186611c6c565b6040830194909452506060015292915050565b634e487b7160e01b600052603260045260246000fd5b8082018082111561212d5761212d6120a9565b92915050565b808202811582820484141761212d5761212d6120a9565b60008261216757634e487b7160e01b600052601260045260246000fd5b500490565b8181038181111561212d5761212d6120a956fea26469706673582212208b5327a953c5d92538debcc269f97764d1f5a3cf53575d49e1424aa5c2ea75c664736f6c63430008140033",
  "linkReferences": {},
  "deployedLinkReferences": {}
}