{
  "_format": "hh-sol-artifact-1",
  "contractName": "ArbitrageBot",
  "sourceName": "contracts/ArbitrageBot.sol",
  "abi": [
    {
      "inputs": [
        {
          "internalType": "address",
          "name": "_feeRecipient",
          "type": "address"
        }
      ],
      "stateMutability": "nonpayable",
      "type": "constructor"
    },
    {
      "inputs": [
        {
          "internalType": "address",
          "name": "owner",
          "type": "address"
        }
      ],
      "name": "OwnableInvalidOwner",
      "type": "error"
    },
    {
      "inputs": [
        {
          "internalType": "address",
          "name": "account",
          "type": "address"
        }
      ],
      "name": "OwnableUnauthorizedAccount",
      "type": "error"
    },
    {
      "inputs": [],
      "name": "ReentrancyGuardReentrantCall",
      "type": "error"
    },
    {
      "anonymous": false,
      "inputs": [
        {
          "indexed": true,
          "internalType": "address",
          "name": "executor",
          "type": "address"
        },
        {
          "indexed": true,
          "internalType": "address",
          "name": "tokenA",
          "type": "address"
        },
        {
          "indexed": true,
          "internalType": "address",
          "name": "tokenB",
          "type": "address"
        },
        {
          "indexed": false,
          "internalType": "uint256",
          "name": "amountIn",
          "type": "uint256"
        },
        {
          "indexed": false,
          "internalType": "uint256",
          "name": "amountOut",
          "type": "uint256"
        },
        {
          "indexed": false,
          "internalType": "uint256",
          "name": "profit",
          "type": "uint256"
        },
        {
          "indexed": false,
          "internalType": "string",
          "name": "dexA",
          "type": "string"
        },
        {
          "indexed": false,
          "internalType": "string",
          "name": "dexB",
          "type": "string"
        },
        {
          "indexed": false,
          "internalType": "uint256",
          "name": "timestamp",
          "type": "uint256"
        }
      ],
      "name": "ArbitrageExecuted",
      "type": "event"
    },
    {
      "anonymous": false,
      "inputs": [
        {
          "indexed": false,
          "internalType": "string",
          "name": "name",
          "type": "string"
        },
        {
          "indexed": false,
          "internalType": "address",
          "name": "router",
          "type": "address"
        },
        {
          "indexed": false,
          "internalType": "bool",
          "name": "active",
          "type": "bool"
        }
      ],
      "name": "DexAdded",
      "type": "event"
    },
    {
      "anonymous": false,
      "inputs": [
        {
          "indexed": false,
          "internalType": "string",
          "name": "name",
          "type": "string"
        },
        {
          "indexed": false,
          "internalType": "bool",
          "name": "active",
          "type": "bool"
        }
      ],
      "name": "DexUpdated",
      "type": "event"
    },
    {
      "anonymous": false,
      "inputs": [
        {
          "indexed": true,
          "internalType": "address",
          "name": "tokenA",
          "type": "address"
        },
        {
          "indexed": true,
          "internalType": "address",
          "name": "tokenB",
          "type": "address"
        },
        {
          "indexed": false,
          "internalType": "uint256",
          "name": "priceA",
          "type": "uint256"
        },
        {
          "indexed": false,
          "internalType": "uint256",
          "name": "priceB",
          "type": "uint256"
        },
        {
          "indexed": false,
          "internalType": "uint256",
          "name": "profitPotential",
          "type": "uint256"
        },
        {
          "indexed": false,
          "internalType": "string",
          "name": "dexA",
          "type": "string"
        },
        {
          "indexed": false,
          "internalType": "string",
          "name": "dexB",
          "type": "string"
        },
        {
          "indexed": false,
          "internalType": "uint256",
          "name": "timestamp",
          "type": "uint256"
        }
      ],
      "name": "OpportunityDetected",
      "type": "event"
    },
    {
      "anonymous": false,
      "inputs": [
        {
          "indexed": true,
          "internalType": "address",
          "name": "previousOwner",
          "type": "address"
        },
        {
          "indexed": true,
          "internalType": "address",
          "name": "newOwner",
          "type": "address"
        }
      ],
      "name": "OwnershipTransferred",
      "type": "event"
    },
    {
      "inputs": [
        {
          "internalType": "string",
          "name": "name",
          "type": "string"
        },
        {
          "internalType": "address",
          "name": "router",
          "type": "address"
        },
        {
          "internalType": "uint256",
          "name": "fee",
          "type": "uint256"
        }
      ],
      "name": "addDex",
      "outputs": [],
      "stateMutability": "nonpayable",
      "type": "function"
    },
    {
      "inputs": [
        {
          "internalType": "uint256",
          "name": "",
          "type": "uint256"
        }
      ],
      "name": "availableDexes",
      "outputs": [
        {
          "internalType": "string",
          "name": "",
          "type": "string"
        }
      ],
      "stateMutability": "view",
      "type": "function"
    },
    {
      "inputs": [
        {
          "internalType": "address",
          "name": "tokenA",
          "type": "address"
        },
        {
          "internalType": "address",
          "name": "tokenB",
          "type": "address"
        }
      ],
      "name": "detectOpportunity",
      "outputs": [
        {
          "internalType": "bool",
          "name": "hasOpportunity",
          "type": "bool"
        },
        {
          "internalType": "uint256",
          "name": "profitPotential",
          "type": "uint256"
        }
      ],
      "stateMutability": "nonpayable",
      "type": "function"
    },
    {
      "inputs": [
        {
          "internalType": "string",
          "name": "",
          "type": "string"
        }
      ],
      "name": "dexes",
      "outputs": [
        {
          "internalType": "string",
          "name": "name",
          "type": "string"
        },
        {
          "internalType": "address",
          "name": "router",
          "type": "address"
        },
        {
          "internalType": "uint256",
          "name": "fee",
          "type": "uint256"
        },
        {
          "internalType": "bool",
          "name": "active",
          "type": "bool"
        }
      ],
      "stateMutability": "view",
      "type": "function"
    },
    {
      "inputs": [
        {
          "internalType": "address",
          "name": "tokenA",
          "type": "address"
        },
        {
          "internalType": "address",
          "name": "tokenB",
          "type": "address"
        },
        {
          "internalType": "uint256",
          "name": "amount",
          "type": "uint256"
        },
        {
          "internalType": "string",
          "name": "dexA",
          "type": "string"
        },
        {
          "internalType": "string",
          "name": "dexB",
          "type": "string"
        }
      ],
      "name": "executeArbitrage",
      "outputs": [
        {
          "internalType": "uint256",
          "name": "profit",
          "type": "uint256"
        }
      ],
      "stateMutability": "nonpayable",
      "type": "function"
    },
    {
      "inputs": [],
      "name": "feeRecipient",
      "outputs": [
        {
          "internalType": "address",
          "name": "",
          "type": "address"
        }
      ],
      "stateMutability": "view",
      "type": "function"
    },
    {
      "inputs": [],
      "name": "getAvailableDexes",
      "outputs": [
        {
          "internalType": "string[]",
          "name": "",
          "type": "string[]"
        }
      ],
      "stateMutability": "view",
      "type": "function"
    },
    {
      "inputs": [
        {
          "internalType": "string",
          "name": "name",
          "type": "string"
        }
      ],
      "name": "getDexInfo",
      "outputs": [
        {
          "components": [
            {
              "internalType": "string",
              "name": "name",
              "type": "string"
            },
            {
              "internalType": "address",
              "name": "router",
              "type": "address"
            },
            {
              "internalType": "uint256",
              "name": "fee",
              "type": "uint256"
            },
            {
              "internalType": "bool",
              "name": "active",
              "type": "bool"
            }
          ],
          "internalType": "struct ArbitrageBot.DexInfo",
          "name": "",
          "type": "tuple"
        }
      ],
      "stateMutability": "view",
      "type": "function"
    },
    {
      "inputs": [
        {
          "internalType": "uint256",
          "name": "count",
          "type": "uint256"
        }
      ],
      "name": "getRecentOpportunities",
      "outputs": [
        {
          "components": [
            {
              "internalType": "address",
              "name": "tokenA",
              "type": "address"
            },
            {
              "internalType": "address",
              "name": "tokenB",
              "type": "address"
            },
            {
              "internalType": "uint256",
              "name": "priceA",
              "type": "uint256"
            },
            {
              "internalType": "uint256",
              "name": "priceB",
              "type": "uint256"
            },
            {
              "internalType": "uint256",
              "name": "profitPotential",
              "type": "uint256"
            },
            {
              "internalType": "string",
              "name": "dexA",
              "type": "string"
            },
            {
              "internalType": "string",
              "name": "dexB",
              "type": "string"
            },
            {
              "internalType": "uint256",
              "name": "timestamp",
              "type": "uint256"
            },
            {
              "internalType": "bool",
              "name": "executed",
              "type": "bool"
            }
          ],
          "internalType": "struct ArbitrageBot.ArbitrageOpportunity[]",
          "name": "",
          "type": "tuple[]"
        }
      ],
      "stateMutability": "view",
      "type": "function"
    },
    {
      "inputs": [],
      "name": "getStats",
      "outputs": [
        {
          "internalType": "uint256",
          "name": "_totalVolume",
          "type": "uint256"
        },
        {
          "internalType": "uint256",
          "name": "_totalProfit",
          "type": "uint256"
        },
        {
          "internalType": "uint256",
          "name": "_totalTrades",
          "type": "uint256"
        },
        {
          "internalType": "uint256",
          "name": "_activeDexes",
          "type": "uint256"
        }
      ],
      "stateMutability": "view",
      "type": "function"
    },
    {
      "inputs": [],
      "name": "minProfitThreshold",
      "outputs": [
        {
          "internalType": "uint256",
          "name": "",
          "type": "uint256"
        }
      ],
      "stateMutability": "view",
      "type": "function"
    },
    {
      "inputs": [
        {
          "internalType": "bytes32",
          "name": "",
          "type": "bytes32"
        }
      ],
      "name": "opportunities",
      "outputs": [
        {
          "internalType": "address",
          "name": "tokenA",
          "type": "address"
        },
        {
          "internalType": "address",
          "name": "tokenB",
          "type": "address"
        },
        {
          "internalType": "uint256",
          "name": "priceA",
          "type": "uint256"
        },
        {
          "internalType": "uint256",
          "name": "priceB",
          "type": "uint256"
        },
        {
          "internalType": "uint256",
          "name": "profitPotential",
          "type": "uint256"
        },
        {
          "internalType": "string",
          "name": "dexA",
          "type": "string"
        },
        {
          "internalType": "string",
          "name": "dexB",
          "type": "string"
        },
        {
          "internalType": "uint256",
          "name": "timestamp",
          "type": "uint256"
        },
        {
          "internalType": "bool",
          "name": "executed",
          "type": "bool"
        }
      ],
      "stateMutability": "view",
      "type": "function"
    },
    {
      "inputs": [
        {
          "internalType": "uint256",
          "name": "",
          "type": "uint256"
        }
      ],
      "name": "opportunityIds",
      "outputs": [
        {
          "internalType": "bytes32",
          "name": "",
          "type": "bytes32"
        }
      ],
      "stateMutability": "view",
      "type": "function"
    },
    {
      "inputs": [],
      "name": "owner",
      "outputs": [
        {
          "internalType": "address",
          "name": "",
          "type": "address"
        }
      ],
      "stateMutability": "view",
      "type": "function"
    },
    {
      "inputs": [],
      "name": "performanceFee",
      "outputs": [
        {
          "internalType": "uint256",
          "name": "",
          "type": "uint256"
        }
      ],
      "stateMutability": "view",
      "type": "function"
    },
    {
      "inputs": [],
      "name": "renounceOwnership",
      "outputs": [],
      "stateMutability": "nonpayable",
      "type": "function"
    },
    {
      "inputs": [],
      "name": "totalArbitrageVolume",
      "outputs": [
        {
          "internalType": "uint256",
          "name": "",
          "type": "uint256"
        }
      ],
      "stateMutability": "view",
      "type": "function"
    },
    {
      "inputs": [],
      "name": "totalProfitGenerated",
      "outputs": [
        {
          "internalType": "uint256",
          "name": "",
          "type": "uint256"
        }
      ],
      "stateMutability": "view",
      "type": "function"
    },
    {
      "inputs": [],
      "name": "totalTradesExecuted",
      "outputs": [
        {
          "internalType": "uint256",
          "name": "",
          "type": "uint256"
        }
      ],
      "stateMutability": "view",
      "type": "function"
    },
    {
      "inputs": [
        {
          "internalType": "address",
          "name": "newOwner",
          "type": "address"
        }
      ],
      "name": "transferOwnership",
      "outputs": [],
      "stateMutability": "nonpayable",
      "type": "function"
    },
    {
      "inputs": [
        {
          "internalType": "string",
          "name": "name",
          "type": "string"
        },
        {
          "internalType": "bool",
          "name": "active",
          "type": "bool"
        }
      ],
      "name": "updateDex",
      "outputs": [],
      "stateMutability": "nonpayable",
      "type": "function"
    },
    {
      "inputs": [
        {
          "internalType": "uint256",
          "name": "_threshold",
          "type": "uint256"
        }
      ],
      "name": "updateMinProfitThreshold",
      "outputs": [],
      "stateMutability": "nonpayable",
      "type": "function"
    },
    {
      "inputs": [
        {
          "internalType": "uint256",
          "name": "_fee",
          "type": "uint256"
        }
      ],
      "name": "updatePerformanceFee",
      "outputs": [],
      "stateMutability": "nonpayable",
      "type": "function"
    },
    {
      "inputs": [
        {
          "internalType": "address",
          "name": "",
          "type": "address"
        }
      ],
      "name": "userProfits",
      "outputs": [
        {
          "internalType": "uint256",
          "name": "",
          "type": "uint256"
        }
      ],
      "stateMutability": "view",
      "type": "function"
    }
  ],
  "bytecode": "0x60806040526032600a55662386f26fc10000600b553480156200002157600080fd5b50604051620027fd380380620027fd833981016040819052620000449162000379565b33806200006c57604051631e4fbdf760e01b8152600060048201526024015b60405180910390fd5b620000778162000166565b506001808055600c80546001600160a01b0319166001600160a01b03841617905560408051808201909152600a8152692ab734b9bbb0b8102b1960b11b6020820152620000ca91601090601e90620001b6565b620001026040518060400160405280600981526020016805375736869737761760bc1b8152506020601e6001620001b660201b60201c565b60408051808201909152600b81526a050616e63616b65537761760ac1b60208201526200013590603060196001620001b6565b6040805180820182526005815264437572766560d81b60208201526200015f9160046001620001b6565b50620005ad565b600080546001600160a01b038381166001600160a01b0319831681178455604051919092169283917f8be0079c531659141344cd1fd0a4f28419497f9722a3daafe3b4186f6b6457e09190a35050565b6001600160a01b0383166200020e5760405162461bcd60e51b815260206004820152601660248201527f496e76616c696420726f75746572206164647265737300000000000000000000604482015260640162000063565b6103e8821115620002515760405162461bcd60e51b815260206004820152600c60248201526b08ccaca40e8dede40d0d2ced60a31b604482015260640162000063565b6040518060800160405280858152602001846001600160a01b031681526020018381526020018215158152506002856040516200028f9190620003d1565b90815260405190819003602001902081518190620002ae908262000494565b506020820151600182810180546001600160a01b0319166001600160a01b0390931692909217909155604083015160028301556060909201516003909101805460ff19169115159190911790556005805491820181556000527f036b6384b5eca791c62761152d0c79bb0604c104a5fb6f4eb0703f3154bb3db00162000335858262000494565b507f4d69cdf05b42278239e5f7ff30e56020275b581cc634b2f4b24f48a2645c6d5e8484836040516200036b9392919062000560565b60405180910390a150505050565b6000602082840312156200038c57600080fd5b81516001600160a01b0381168114620003a457600080fd5b9392505050565b60005b83811015620003c8578181015183820152602001620003ae565b50506000910152565b60008251620003e5818460208701620003ab565b9190910192915050565b634e487b7160e01b600052604160045260246000fd5b600181811c908216806200041a57607f821691505b6020821081036200043b57634e487b7160e01b600052602260045260246000fd5b50919050565b601f8211156200048f57600081815260208120601f850160051c810160208610156200046a5750805b601f850160051c820191505b818110156200048b5782815560010162000476565b5050505b505050565b81516001600160401b03811115620004b057620004b0620003ef565b620004c881620004c1845462000405565b8462000441565b602080601f831160018114620005005760008415620004e75750858301515b600019600386901b1c1916600185901b1785556200048b565b600085815260208120601f198616915b82811015620005315788860151825594840194600190910190840162000510565b5085821015620005505787850151600019600388901b60f8161c191681555b5050505050600190811b01905550565b606081526000845180606084015262000581816080850160208901620003ab565b6001600160a01b039490941660208301525090151560408201526080601f909201601f19160101919050565b61224080620005bd6000396000f3fe608060405234801561001057600080fd5b50600436106101585760003560e01c806392adbbd5116100c3578063c59d48471161007c578063c59d484714610310578063d2a037ab14610338578063e898133014610341578063ee95684214610354578063f1bae27d14610374578063f2fde38b1461038757600080fd5b806392adbbd5146102825780639a92278f146102955780639bbb1c2a146102aa578063bae1d9a6146102b3578063be354836146102dd578063c4a55b56146102fd57600080fd5b80634ee14d10116101155780634ee14d101461022257806358d0ee5814610242578063715018a6146102575780637341ab8c1461025f57806387788782146102685780638da5cb5b1461027157600080fd5b80631360003f1461015d5780631dcdffc81461017957806326b8cca6146101995780633d834506146101ac57806345040445146101d457806346904840146101f7575b600080fd5b61016660085481565b6040519081526020015b60405180910390f35b61018c610187366004611a0d565b61039a565b6040516101709190611a9a565b6101666101a7366004611b06565b6104aa565b6101bf6101ba366004611b95565b610817565b60405161017099989796959493929190611bae565b6101e76101e2366004611a0d565b610983565b6040516101709493929190611c23565b600c5461020a906001600160a01b031681565b6040516001600160a01b039091168152602001610170565b610235610230366004611b95565b610a4d565b6040516101709190611c5d565b610255610250366004611b95565b610d30565b005b610255610d3d565b610166600b5481565b610166600a5481565b6000546001600160a01b031661020a565b610255610290366004611d50565b610d51565b61029d610e39565b6040516101709190611da7565b61016660075481565b6102c66102c1366004611e09565b610f12565b604080519215158352602083019190915201610170565b6101666102eb366004611e3c565b60046020526000908152604090205481565b61025561030b366004611e5e565b6112b7565b6103186112d1565b604080519485526020850193909352918301526060820152608001610170565b61016660095481565b61025561034f366004611b95565b611365565b610367610362366004611b95565b6113bc565b6040516101709190611eb5565b610166610382366004611b95565b611468565b610255610395366004611e3c565b611489565b6040805160808101825260608082526000602083018190528284018190529082015290516002906103cc908490611ec8565b90815260200160405180910390206040518060800160405290816000820180546103f590611ee4565b80601f016020809104026020016040519081016040528092919081815260200182805461042190611ee4565b801561046e5780601f106104435761010080835404028352916020019161046e565b820191906000526020600020905b81548152906001019060200180831161045157829003601f168201915b505050918352505060018201546001600160a01b031660208201526002820154604082015260039091015460ff16151560609091015292915050565b60006104b46114c7565b6001600160a01b038616158015906104d457506001600160a01b03851615155b61051f5760405162461bcd60e51b8152602060048201526017602482015276496e76616c696420746f6b656e2061646472657373657360481b60448201526064015b60405180910390fd5b6000841161056f5760405162461bcd60e51b815260206004820152601d60248201527f416d6f756e74206d7573742062652067726561746572207468616e20300000006044820152606401610516565b60028360405161057f9190611ec8565b9081526040519081900360200190206003015460ff1680156105c357506002826040516105ac9190611ec8565b9081526040519081900360200190206003015460ff165b6106005760405162461bcd60e51b815260206004820152600e60248201526d444558206e6f742061637469766560901b6044820152606401610516565b600061060d8787866114f1565b9050600061061c8888866114f1565b905080820361066d5760405162461bcd60e51b815260206004820152601860248201527f4e6f20617262697472616765206f70706f7274756e69747900000000000000006044820152606401610516565b600061067c89898989896115d1565b905080608001516106cf5760405162461bcd60e51b815260206004820152601a60248201527f41726269747261676520657865637574696f6e206661696c65640000000000006044820152606401610516565b600b548160400151101561071e5760405162461bcd60e51b8152602060048201526016602482015275141c9bd99a5d0818995b1bddc81d1a1c995cda1bdb1960521b6044820152606401610516565b86600760008282546107309190611f34565b909155505060408101516008805460009061074c908490611f34565b90915550506009805490600061076183611f4d565b9091555050604080820151336000908152600460205291822080549192909161078b908490611f34565b92505081905550876001600160a01b0316896001600160a01b0316336001600160a01b03167f53f84a9e721745a38cbefffad57712b164ab08ac072bf6ad84fe1aad3d1b32778460000151856020015186604001518c8c426040516107f596959493929190611f66565b60405180910390a4604001519250505061080e60018055565b95945050505050565b60036020819052600091825260409091208054600182015460028301549383015460048401546005850180546001600160a01b03958616979590941695929391929161086290611ee4565b80601f016020809104026020016040519081016040528092919081815260200182805461088e90611ee4565b80156108db5780601f106108b0576101008083540402835291602001916108db565b820191906000526020600020905b8154815290600101906020018083116108be57829003601f168201915b5050505050908060060180546108f090611ee4565b80601f016020809104026020016040519081016040528092919081815260200182805461091c90611ee4565b80156109695780601f1061093e57610100808354040283529160200191610969565b820191906000526020600020905b81548152906001019060200180831161094c57829003601f168201915b50505050600783015460089093015491929160ff16905089565b80516020818301810180516002825292820191909301209152805481906109a990611ee4565b80601f01602080910402602001604051908101604052809291908181526020018280546109d590611ee4565b8015610a225780601f106109f757610100808354040283529160200191610a22565b820191906000526020600020905b815481529060010190602001808311610a0557829003601f168201915b505050506001830154600284015460039094015492936001600160a01b039091169290915060ff1684565b6006546060906000818411610a625783610a64565b815b905060008167ffffffffffffffff811115610a8157610a8161196a565b604051908082528060200260200182016040528015610b1557816020015b610b0260405180610120016040528060006001600160a01b0316815260200160006001600160a01b031681526020016000815260200160008152602001600081526020016060815260200160608152602001600081526020016000151581525090565b815260200190600190039081610a9f5790505b50905060005b82811015610d27576000600682610b33600188611fb1565b610b3d9190611fb1565b81548110610b4d57610b4d611fc4565b6000918252602080832090910154808352600380835260409384902084516101208101865281546001600160a01b0390811682526001830154169481019490945260028101549484019490945283015460608301526004830154608083015260058301805491945091929160a0840191610bc690611ee4565b80601f0160208091040260200160405190810160405280929190818152602001828054610bf290611ee4565b8015610c3f5780601f10610c1457610100808354040283529160200191610c3f565b820191906000526020600020905b815481529060010190602001808311610c2257829003601f168201915b50505050508152602001600682018054610c5890611ee4565b80601f0160208091040260200160405190810160405280929190818152602001828054610c8490611ee4565b8015610cd15780601f10610ca657610100808354040283529160200191610cd1565b820191906000526020600020905b815481529060010190602001808311610cb457829003601f168201915b50505091835250506007820154602082015260089091015460ff1615156040909101528351849084908110610d0857610d08611fc4565b6020026020010181905250508080610d1f90611f4d565b915050610b1b565b50949350505050565b610d3861173d565b600b55565b610d4561173d565b610d4f600061176a565b565b610d5961173d565b6000600283604051610d6b9190611ec8565b9081526040519081900360200190208054610d8590611ee4565b905011610dc95760405162461bcd60e51b815260206004820152601260248201527111115608191bd95cc81b9bdd08195e1a5cdd60721b6044820152606401610516565b80600283604051610dda9190611ec8565b908152604051908190036020018120600301805492151560ff19909316929092179091557f904f9eb7c0f5d0b10684040005318a68f39c83aa8a0f5b61834a994c9c598ea390610e2d9084908490611fda565b60405180910390a15050565b60606005805480602002602001604051908101604052809291908181526020016000905b82821015610f09578382906000526020600020018054610e7c90611ee4565b80601f0160208091040260200160405190810160405280929190818152602001828054610ea890611ee4565b8015610ef55780601f10610eca57610100808354040283529160200191610ef5565b820191906000526020600020905b815481529060010190602001808311610ed857829003601f168201915b505050505081526020019060010190610e5d565b50505050905090565b6000806001600160a01b03841615801590610f3557506001600160a01b03831615155b610f7b5760405162461bcd60e51b8152602060048201526017602482015276496e76616c696420746f6b656e2061646472657373657360481b6044820152606401610516565b604080516020808201835260008083528351918201909352828152600019929190825b6005548110156110c457600060058281548110610fbd57610fbd611fc4565b906000526020600020018054610fd290611ee4565b80601f0160208091040260200160405190810160405280929190818152602001828054610ffe90611ee4565b801561104b5780601f106110205761010080835404028352916020019161104b565b820191906000526020600020905b81548152906001019060200180831161102e57829003601f168201915b505050505090506002816040516110629190611ec8565b9081526040519081900360200190206003015460ff1661108257506110b2565b600061108f8b8b846114f1565b9050868110156110a0578096508194505b858111156110af578095508193505b50505b806110bc81611f4d565b915050610f9e565b50838311156112ac576110d78484611fb1565b9450600b54851015955085156112ac576040516bffffffffffffffffffffffff1960608a811b8216602084015289901b16603482015242604882015243606882015260009060880160408051601f198184030181528282528051602091820120610120840183526001600160a01b03808e1685528c81168584019081528585018b8152606087018b8152608088018e815260a089018c815260c08a018c90524260e08b015260006101008b0181905287815260039889905298909820895181549087166001600160a01b031991821617825594516001820180549190971695169490941790945590516002830155519381019390935551600483015591519193509060058201906111e8908261204c565b5060c082015160068201906111fd908261204c565b5060e08201516007820155610100909101516008909101805460ff1916911515919091179055600680546001810182556000919091527ff652222313e28459528d920b65115c16c04f3efc82aaedc97be59f3f377c0d3f018190556040516001600160a01b0389811691908b16907ff7e77a88f64bf1b36da4201046881e87588a0659f4d5da55bd926d59033ee845906112a290899089908c908a908a904290611f66565b60405180910390a3505b505050509250929050565b6112bf61173d565b6112cc83838360016117ba565b505050565b6000806000806000805b60055481101561134c576002600582815481106112fa576112fa611fc4565b90600052602060002001604051611311919061210c565b9081526040519081900360200190206003015460ff161561133a578161133681611f4d565b9250505b8061134481611f4d565b9150506112db565b5060075460085460095491965094509250905090919293565b61136d61173d565b6103e88111156113b75760405162461bcd60e51b81526020600482015260156024820152744665652063616e6e6f74206578636565642031302560581b6044820152606401610516565b600a55565b600581815481106113cc57600080fd5b9060005260206000200160009150905080546113e790611ee4565b80601f016020809104026020016040519081016040528092919081815260200182805461141390611ee4565b80156114605780601f1061143557610100808354040283529160200191611460565b820191906000526020600020905b81548152906001019060200180831161144357829003601f168201915b505050505081565b6006818154811061147857600080fd5b600091825260209091200154905081565b61149161173d565b6001600160a01b0381166114bb57604051631e4fbdf760e01b815260006004820152602401610516565b6114c48161176a565b50565b6002600154036114ea57604051633ee5aeb560e01b815260040160405180910390fd5b6002600155565b600080670de0b6b3a764000090506000836040516020016115129190611ec8565b60408051601f1981840301815291905280516020909101209050600061153a6103e883612198565b6040516bffffffffffffffffffffffff1960608a811b8216602084015289901b16603482015290915060009060480160408051601f198184030181529190528051602090910120905060006115916107d083612198565b905060006115a16101f442612198565b905080826115af8689611f34565b6115b99190611f34565b6115c39190611f34565b9a9950505050505050505050565b6116056040518060a00160405280600081526020016000815260200160008152602001600081526020016000151581525090565b60006116128787866114f1565b905060006116218888866114f1565b905060008261163083896121ac565b61163a91906121c3565b9050600087821161164c576000611656565b6116568883611fb1565b9050600061271060028960405161166d9190611ec8565b9081526020016040518091039020600201548a61168a91906121ac565b61169491906121c3565b905060006127106002896040516116ab9190611ec8565b908152602001604051809103902060020154856116c891906121ac565b6116d291906121c3565b90506116de8183611f34565b83116116eb576000611700565b806116f68385611fb1565b6117009190611fb1565b6040805160a0810182529b8c5260208c0195909552938a018490525050620249f0606089015250600b541115608087015250939695505050505050565b6000546001600160a01b03163314610d4f5760405163118cdaa760e01b8152336004820152602401610516565b600080546001600160a01b038381166001600160a01b0319831681178455604051919092169283917f8be0079c531659141344cd1fd0a4f28419497f9722a3daafe3b4186f6b6457e09190a35050565b6001600160a01b0383166118095760405162461bcd60e51b8152602060048201526016602482015275496e76616c696420726f75746572206164647265737360501b6044820152606401610516565b6103e882111561184a5760405162461bcd60e51b815260206004820152600c60248201526b08ccaca40e8dede40d0d2ced60a31b6044820152606401610516565b6040518060800160405280858152602001846001600160a01b031681526020018381526020018215158152506002856040516118869190611ec8565b908152604051908190036020019020815181906118a3908261204c565b506020820151600182810180546001600160a01b0319166001600160a01b0390931692909217909155604083015160028301556060909201516003909101805460ff19169115159190911790556005805491820181556000527f036b6384b5eca791c62761152d0c79bb0604c104a5fb6f4eb0703f3154bb3db001611928858261204c565b507f4d69cdf05b42278239e5f7ff30e56020275b581cc634b2f4b24f48a2645c6d5e84848360405161195c939291906121d7565b60405180910390a150505050565b634e487b7160e01b600052604160045260246000fd5b600082601f83011261199157600080fd5b813567ffffffffffffffff808211156119ac576119ac61196a565b604051601f8301601f19908116603f011681019082821181831017156119d4576119d461196a565b816040528381528660208588010111156119ed57600080fd5b836020870160208301376000602085830101528094505050505092915050565b600060208284031215611a1f57600080fd5b813567ffffffffffffffff811115611a3657600080fd5b611a4284828501611980565b949350505050565b60005b83811015611a65578181015183820152602001611a4d565b50506000910152565b60008151808452611a86816020860160208601611a4a565b601f01601f19169290920160200192915050565b602081526000825160806020840152611ab660a0840182611a6e565b905060018060a01b036020850151166040840152604084015160608401526060840151151560808401528091505092915050565b80356001600160a01b0381168114611b0157600080fd5b919050565b600080600080600060a08688031215611b1e57600080fd5b611b2786611aea565b9450611b3560208701611aea565b935060408601359250606086013567ffffffffffffffff80821115611b5957600080fd5b611b6589838a01611980565b93506080880135915080821115611b7b57600080fd5b50611b8888828901611980565b9150509295509295909350565b600060208284031215611ba757600080fd5b5035919050565b6001600160a01b038a811682528916602082015260408101889052606081018790526080810186905261012060a08201819052600090611bf083820188611a6e565b905082810360c0840152611c048187611a6e565b60e0840195909552505090151561010090910152979650505050505050565b608081526000611c366080830187611a6e565b6001600160a01b039590951660208301525060408101929092521515606090910152919050565b60006020808301818452808551808352604092508286019150828160051b87010184880160005b83811015611d4257888303603f19018552815180516001600160a01b03168452610120818901516001600160a01b038116868b0152508188015185890152606080830151908601526080808301519086015260a080830151818701839052611cee83880182611a6e565b9250505060c08083015186830382880152611d098382611a6e565b9250505060e0808301518187015250610100808301519250611d2e8187018415159052565b509588019593505090860190600101611c84565b509098975050505050505050565b60008060408385031215611d6357600080fd5b823567ffffffffffffffff811115611d7a57600080fd5b611d8685828601611980565b92505060208301358015158114611d9c57600080fd5b809150509250929050565b6000602080830181845280855180835260408601915060408160051b870101925083870160005b82811015611dfc57603f19888603018452611dea858351611a6e565b94509285019290850190600101611dce565b5092979650505050505050565b60008060408385031215611e1c57600080fd5b611e2583611aea565b9150611e3360208401611aea565b90509250929050565b600060208284031215611e4e57600080fd5b611e5782611aea565b9392505050565b600080600060608486031215611e7357600080fd5b833567ffffffffffffffff811115611e8a57600080fd5b611e9686828701611980565b935050611ea560208501611aea565b9150604084013590509250925092565b602081526000611e576020830184611a6e565b60008251611eda818460208701611a4a565b9190910192915050565b600181811c90821680611ef857607f821691505b602082108103611f1857634e487b7160e01b600052602260045260246000fd5b50919050565b634e487b7160e01b600052601160045260246000fd5b80820180821115611f4757611f47611f1e565b92915050565b600060018201611f5f57611f5f611f1e565b5060010190565b86815285602082015284604082015260c060608201526000611f8b60c0830186611a6e565b8281036080840152611f9d8186611a6e565b9150508260a0830152979650505050505050565b81810381811115611f4757611f47611f1e565b634e487b7160e01b600052603260045260246000fd5b604081526000611fed6040830185611a6e565b905082151560208301529392505050565b601f8211156112cc57600081815260208120601f850160051c810160208610156120255750805b601f850160051c820191505b8181101561204457828155600101612031565b505050505050565b815167ffffffffffffffff8111156120665761206661196a565b61207a816120748454611ee4565b84611ffe565b602080601f8311600181146120af57600084156120975750858301515b600019600386901b1c1916600185901b178555612044565b600085815260208120601f198616915b828110156120de578886015182559484019460019091019084016120bf565b50858210156120fc5787850151600019600388901b60f8161c191681555b5050505050600190811b01905550565b600080835461211a81611ee4565b60018281168015612132576001811461214757612176565b60ff1984168752821515830287019450612176565b8760005260208060002060005b8581101561216d5781548a820152908401908201612154565b50505082870194505b50929695505050505050565b634e487b7160e01b600052601260045260246000fd5b6000826121a7576121a7612182565b500690565b8082028115828204841417611f4757611f47611f1e565b6000826121d2576121d2612182565b500490565b6060815260006121ea6060830186611a6e565b6001600160a01b039490941660208301525090151560409091015291905056fea2646970667358221220f7e73ada1a6a96027475b77e6aca9a6bf963c832cfb6928551572129b96769b364736f6c63430008140033",
  "linkReferences": {},
  "deployedLinkReferences": {}
}