{
  "_format": "hh-sol-artifact-1",
  "contractName": "PortfolioRebalancer",
  "sourceName": "contracts/PortfolioRebalancer.sol",
  "abi": [
    {
      "inputs": [
        {
          "internalType": "address",
          "name": "_feeRecipient",
          "type": "address"
        }
      ],
      "stateMutability": "nonpayable",
      "type": "constructor"
    },
    {
      "inputs": [
        {
          "internalType": "address",
          "name": "owner",
          "type": "address"
        }
      ],
      "name": "OwnableInvalidOwner",
      "type": "error"
    },
    {
      "inputs": [
        {
          "internalType": "address",
          "name": "account",
          "type": "address"
        }
      ],
      "name": "OwnableUnauthorizedAccount",
      "type": "error"
    },
    {
      "inputs": [],
      "name": "ReentrancyGuardReentrantCall",
      "type": "error"
    },
    {
      "anonymous": false,
      "inputs": [
        {
          "indexed": true,
          "internalType": "address",
          "name": "user",
          "type": "address"
        },
        {
          "indexed": true,
          "internalType": "address",
          "name": "token",
          "type": "address"
        },
        {
          "indexed": false,
          "internalType": "uint256",
          "name": "oldAllocation",
          "type": "uint256"
        },
        {
          "indexed": false,
          "internalType": "uint256",
          "name": "newAllocation",
          "type": "uint256"
        },
        {
          "indexed": false,
          "internalType": "uint256",
          "name": "timestamp",
          "type": "uint256"
        }
      ],
      "name": "AllocationUpdated",
      "type": "event"
    },
    {
      "anonymous": false,
      "inputs": [
        {
          "indexed": true,
          "internalType": "address",
          "name": "previousOwner",
          "type": "address"
        },
        {
          "indexed": true,
          "internalType": "address",
          "name": "newOwner",
          "type": "address"
        }
      ],
      "name": "OwnershipTransferred",
      "type": "event"
    },
    {
      "anonymous": false,
      "inputs": [
        {
          "indexed": true,
          "internalType": "address",
          "name": "user",
          "type": "address"
        },
        {
          "indexed": false,
          "internalType": "uint256",
          "name": "totalValue",
          "type": "uint256"
        },
        {
          "indexed": false,
          "internalType": "uint256",
          "name": "rebalanceAmount",
          "type": "uint256"
        },
        {
          "indexed": false,
          "internalType": "uint256",
          "name": "gasCost",
          "type": "uint256"
        },
        {
          "indexed": false,
          "internalType": "uint256",
          "name": "timestamp",
          "type": "uint256"
        }
      ],
      "name": "PortfolioRebalanced",
      "type": "event"
    },
    {
      "anonymous": false,
      "inputs": [
        {
          "indexed": true,
          "internalType": "address",
          "name": "user",
          "type": "address"
        },
        {
          "indexed": false,
          "internalType": "string",
          "name": "reason",
          "type": "string"
        },
        {
          "indexed": false,
          "internalType": "uint256",
          "name": "deviation",
          "type": "uint256"
        },
        {
          "indexed": false,
          "internalType": "uint256",
          "name": "threshold",
          "type": "uint256"
        },
        {
          "indexed": false,
          "internalType": "uint256",
          "name": "timestamp",
          "type": "uint256"
        }
      ],
      "name": "RebalanceTriggered",
      "type": "event"
    },
    {
      "anonymous": false,
      "inputs": [
        {
          "indexed": true,
          "internalType": "address",
          "name": "user",
          "type": "address"
        },
        {
          "indexed": false,
          "internalType": "string",
          "name": "strategyName",
          "type": "string"
        },
        {
          "indexed": false,
          "internalType": "uint256",
          "name": "strategyId",
          "type": "uint256"
        },
        {
          "indexed": false,
          "internalType": "uint256",
          "name": "timestamp",
          "type": "uint256"
        }
      ],
      "name": "StrategyCreated",
      "type": "event"
    },
    {
      "inputs": [
        {
          "internalType": "uint256",
          "name": "",
          "type": "uint256"
        }
      ],
      "name": "availableStrategies",
      "outputs": [
        {
          "internalType": "string",
          "name": "",
          "type": "string"
        }
      ],
      "stateMutability": "view",
      "type": "function"
    },
    {
      "inputs": [
        {
          "internalType": "address",
          "name": "user",
          "type": "address"
        },
        {
          "internalType": "string",
          "name": "strategyName",
          "type": "string"
        },
        {
          "components": [
            {
              "internalType": "address",
              "name": "token",
              "type": "address"
            },
            {
              "internalType": "uint256",
              "name": "targetPercentage",
              "type": "uint256"
            },
            {
              "internalType": "uint256",
              "name": "currentPercentage",
              "type": "uint256"
            },
            {
              "internalType": "uint256",
              "name": "currentValue",
              "type": "uint256"
            },
            {
              "internalType": "uint256",
              "name": "deviation",
              "type": "uint256"
            }
          ],
          "internalType": "struct PortfolioRebalancer.Allocation[]",
          "name": "allocations",
          "type": "tuple[]"
        },
        {
          "internalType": "uint256",
          "name": "rebalanceThreshold",
          "type": "uint256"
        },
        {
          "internalType": "bool",
          "name": "autoRebalance",
          "type": "bool"
        }
      ],
      "name": "createStrategy",
      "outputs": [
        {
          "internalType": "uint256",
          "name": "strategyId",
          "type": "uint256"
        }
      ],
      "stateMutability": "nonpayable",
      "type": "function"
    },
    {
      "inputs": [],
      "name": "defaultRebalanceThreshold",
      "outputs": [
        {
          "internalType": "uint256",
          "name": "",
          "type": "uint256"
        }
      ],
      "stateMutability": "view",
      "type": "function"
    },
    {
      "inputs": [],
      "name": "feeRecipient",
      "outputs": [
        {
          "internalType": "address",
          "name": "",
          "type": "address"
        }
      ],
      "stateMutability": "view",
      "type": "function"
    },
    {
      "inputs": [],
      "name": "getAvailableStrategies",
      "outputs": [
        {
          "internalType": "string[]",
          "name": "",
          "type": "string[]"
        }
      ],
      "stateMutability": "view",
      "type": "function"
    },
    {
      "inputs": [],
      "name": "getStats",
      "outputs": [
        {
          "internalType": "uint256",
          "name": "_totalRebalances",
          "type": "uint256"
        },
        {
          "internalType": "uint256",
          "name": "_totalValueRebalanced",
          "type": "uint256"
        },
        {
          "internalType": "uint256",
          "name": "_activeStrategies",
          "type": "uint256"
        },
        {
          "internalType": "uint256",
          "name": "_totalUsers",
          "type": "uint256"
        }
      ],
      "stateMutability": "view",
      "type": "function"
    },
    {
      "inputs": [
        {
          "internalType": "uint256",
          "name": "strategyId",
          "type": "uint256"
        }
      ],
      "name": "getStrategy",
      "outputs": [
        {
          "components": [
            {
              "internalType": "string",
              "name": "name",
              "type": "string"
            },
            {
              "internalType": "uint256",
              "name": "rebalanceThreshold",
              "type": "uint256"
            },
            {
              "internalType": "uint256",
              "name": "minRebalanceAmount",
              "type": "uint256"
            },
            {
              "internalType": "bool",
              "name": "autoRebalance",
              "type": "bool"
            },
            {
              "internalType": "uint256",
              "name": "lastRebalance",
              "type": "uint256"
            },
            {
              "internalType": "bool",
              "name": "active",
              "type": "bool"
            }
          ],
          "internalType": "struct PortfolioRebalancer.RebalanceStrategy",
          "name": "",
          "type": "tuple"
        }
      ],
      "stateMutability": "view",
      "type": "function"
    },
    {
      "inputs": [
        {
          "internalType": "address",
          "name": "user",
          "type": "address"
        }
      ],
      "name": "getUserPortfolio",
      "outputs": [
        {
          "components": [
            {
              "internalType": "address",
              "name": "token",
              "type": "address"
            },
            {
              "internalType": "uint256",
              "name": "targetPercentage",
              "type": "uint256"
            },
            {
              "internalType": "uint256",
              "name": "currentPercentage",
              "type": "uint256"
            },
            {
              "internalType": "uint256",
              "name": "currentValue",
              "type": "uint256"
            },
            {
              "internalType": "uint256",
              "name": "deviation",
              "type": "uint256"
            }
          ],
          "internalType": "struct PortfolioRebalancer.Allocation[]",
          "name": "allocations",
          "type": "tuple[]"
        },
        {
          "internalType": "uint256",
          "name": "totalValue",
          "type": "uint256"
        },
        {
          "internalType": "uint256",
          "name": "strategyId",
          "type": "uint256"
        },
        {
          "internalType": "uint256",
          "name": "lastRebalance",
          "type": "uint256"
        },
        {
          "internalType": "uint256",
          "name": "rebalanceCount",
          "type": "uint256"
        }
      ],
      "stateMutability": "view",
      "type": "function"
    },
    {
      "inputs": [],
      "name": "minRebalanceAmount",
      "outputs": [
        {
          "internalType": "uint256",
          "name": "",
          "type": "uint256"
        }
      ],
      "stateMutability": "view",
      "type": "function"
    },
    {
      "inputs": [],
      "name": "nextStrategyId",
      "outputs": [
        {
          "internalType": "uint256",
          "name": "",
          "type": "uint256"
        }
      ],
      "stateMutability": "view",
      "type": "function"
    },
    {
      "inputs": [],
      "name": "owner",
      "outputs": [
        {
          "internalType": "address",
          "name": "",
          "type": "address"
        }
      ],
      "stateMutability": "view",
      "type": "function"
    },
    {
      "inputs": [
        {
          "internalType": "address",
          "name": "",
          "type": "address"
        },
        {
          "internalType": "uint256",
          "name": "",
          "type": "uint256"
        }
      ],
      "name": "pendingRebalances",
      "outputs": [
        {
          "internalType": "address",
          "name": "tokenFrom",
          "type": "address"
        },
        {
          "internalType": "address",
          "name": "tokenTo",
          "type": "address"
        },
        {
          "internalType": "uint256",
          "name": "amount",
          "type": "uint256"
        },
        {
          "internalType": "string",
          "name": "action",
          "type": "string"
        }
      ],
      "stateMutability": "view",
      "type": "function"
    },
    {
      "inputs": [],
      "name": "performanceFee",
      "outputs": [
        {
          "internalType": "uint256",
          "name": "",
          "type": "uint256"
        }
      ],
      "stateMutability": "view",
      "type": "function"
    },
    {
      "inputs": [
        {
          "internalType": "address",
          "name": "user",
          "type": "address"
        }
      ],
      "name": "rebalancePortfolio",
      "outputs": [
        {
          "internalType": "bool",
          "name": "rebalanced",
          "type": "bool"
        },
        {
          "internalType": "uint256",
          "name": "totalValue",
          "type": "uint256"
        }
      ],
      "stateMutability": "nonpayable",
      "type": "function"
    },
    {
      "inputs": [],
      "name": "renounceOwnership",
      "outputs": [],
      "stateMutability": "nonpayable",
      "type": "function"
    },
    {
      "inputs": [
        {
          "internalType": "uint256",
          "name": "",
          "type": "uint256"
        }
      ],
      "name": "strategies",
      "outputs": [
        {
          "internalType": "string",
          "name": "name",
          "type": "string"
        },
        {
          "internalType": "uint256",
          "name": "rebalanceThreshold",
          "type": "uint256"
        },
        {
          "internalType": "uint256",
          "name": "minRebalanceAmount",
          "type": "uint256"
        },
        {
          "internalType": "bool",
          "name": "autoRebalance",
          "type": "bool"
        },
        {
          "internalType": "uint256",
          "name": "lastRebalance",
          "type": "uint256"
        },
        {
          "internalType": "bool",
          "name": "active",
          "type": "bool"
        }
      ],
      "stateMutability": "view",
      "type": "function"
    },
    {
      "inputs": [],
      "name": "totalRebalances",
      "outputs": [
        {
          "internalType": "uint256",
          "name": "",
          "type": "uint256"
        }
      ],
      "stateMutability": "view",
      "type": "function"
    },
    {
      "inputs": [],
      "name": "totalValueRebalanced",
      "outputs": [
        {
          "internalType": "uint256",
          "name": "",
          "type": "uint256"
        }
      ],
      "stateMutability": "view",
      "type": "function"
    },
    {
      "inputs": [
        {
          "internalType": "address",
          "name": "newOwner",
          "type": "address"
        }
      ],
      "name": "transferOwnership",
      "outputs": [],
      "stateMutability": "nonpayable",
      "type": "function"
    },
    {
      "inputs": [
        {
          "internalType": "address",
          "name": "user",
          "type": "address"
        },
        {
          "internalType": "address",
          "name": "token",
          "type": "address"
        },
        {
          "internalType": "uint256",
          "name": "newTargetPercentage",
          "type": "uint256"
        }
      ],
      "name": "updateAllocation",
      "outputs": [],
      "stateMutability": "nonpayable",
      "type": "function"
    },
    {
      "inputs": [
        {
          "internalType": "uint256",
          "name": "_threshold",
          "type": "uint256"
        }
      ],
      "name": "updateDefaultThreshold",
      "outputs": [],
      "stateMutability": "nonpayable",
      "type": "function"
    },
    {
      "inputs": [
        {
          "internalType": "uint256",
          "name": "_fee",
          "type": "uint256"
        }
      ],
      "name": "updatePerformanceFee",
      "outputs": [],
      "stateMutability": "nonpayable",
      "type": "function"
    },
    {
      "inputs": [
        {
          "internalType": "address",
          "name": "",
          "type": "address"
        }
      ],
      "name": "userPortfolios",
      "outputs": [
        {
          "internalType": "uint256",
          "name": "totalValue",
          "type": "uint256"
        },
        {
          "internalType": "uint256",
          "name": "strategyId",
          "type": "uint256"
        },
        {
          "internalType": "uint256",
          "name": "lastRebalance",
          "type": "uint256"
        },
        {
          "internalType": "uint256",
          "name": "rebalanceCount",
          "type": "uint256"
        }
      ],
      "stateMutability": "view",
      "type": "function"
    },
    {
      "inputs": [
        {
          "internalType": "address",
          "name": "",
          "type": "address"
        }
      ],
      "name": "userStrategies",
      "outputs": [
        {
          "internalType": "string",
          "name": "name",
          "type": "string"
        },
        {
          "internalType": "uint256",
          "name": "rebalanceThreshold",
          "type": "uint256"
        },
        {
          "internalType": "uint256",
          "name": "minRebalanceAmount",
          "type": "uint256"
        },
        {
          "internalType": "bool",
          "name": "autoRebalance",
          "type": "bool"
        },
        {
          "internalType": "uint256",
          "name": "lastRebalance",
          "type": "uint256"
        },
        {
          "internalType": "bool",
          "name": "active",
          "type": "bool"
        }
      ],
      "stateMutability": "view",
      "type": "function"
    }
  ],
  "bytecode": "0x60016006556101f4600955662386f26fc10000600a908155604b600b55600c6101209081526b436f6e73657276617469766560a01b61014052608090815260086101609081526710985b185b98d95960c21b6101805260a0526101a0828152694167677265737369766560b01b6101c05260c0526101e0918252694465466920466f63757360b01b6102005260e09190915261026060405260106102209081526f537461626c65636f696e20486561767960801b6102405261010052620000cb90600d9060056200046a565b50348015620000d957600080fd5b50604051620028d6380380620028d6833981016040819052620000fc9162000541565b33806200012357604051631e4fbdf760e01b81526000600482015260240160405180910390fd5b6200012e816200015f565b5060018055600c80546001600160a01b0319166001600160a01b03831617905562000158620001af565b50620006e4565b600080546001600160a01b038381166001600160a01b0319831681178455604051919092169283917f8be0079c531659141344cd1fd0a4f28419497f9722a3daafe3b4186f6b6457e09190a35050565b6040805161010081018252600c60c082019081526b436f6e73657276617469766560a01b60e083015281526103e860208083019190915267016345785d8a00009282019290925260016060820181905260006080830181905260a0830182905252600490915280517fabd6e7cb50984ff9c2f3e18a2660c3353dadf4e3291deeb275dae2cd1e44fe0590819062000247908262000618565b5060208281015160018084019190915560408085015160028086019190915560608087015160038701805491151560ff199283161790556080808901516004808a019190915560a0998a0151600590990180549915159990931698909817909155835161010081018552600860c082019081526710985b185b98d95960c21b60e083015281526101f48188015266b1a2bc2ec500009481019490945290830184905260009083018190529582019290925293525280517f91da3fd0782e51c6b3986e9e672fd566868e71f3dbc2d6c2cd6fbb3e361af2a79081906200032d908262000618565b5060208281015160018084019190915560408085015160028501556060808601516003808701805492151560ff199384161790556080808901516004808a019190915560a0998a0151600590990180549915159990941698909817909255835161010081018552600a60c08201908152694167677265737369766560b01b60e0830152815260fa81880152662386f26fc100009481019490945291830184905260009083018190529582019290925293525280517f2e174c10e159ea99b867ce3205125c24a42d128804e4070ed6fcc8cc98166aa090819062000411908262000618565b506020820151600182015560408201516002820155606082015160038201805491151560ff19928316179055608083015160048084019190915560a0909301516005909201805492151592909116919091179055600655565b828054828255906000526020600020908101928215620004b5579160200282015b82811115620004b55782518290620004a4908262000618565b50916020019190600101906200048b565b50620004c3929150620004c7565b5090565b80821115620004c3576000620004de8282620004e8565b50600101620004c7565b508054620004f69062000589565b6000825580601f1062000507575050565b601f0160209004906000526020600020908101906200052791906200052a565b50565b5b80821115620004c357600081556001016200052b565b6000602082840312156200055457600080fd5b81516001600160a01b03811681146200056c57600080fd5b9392505050565b634e487b7160e01b600052604160045260246000fd5b600181811c908216806200059e57607f821691505b602082108103620005bf57634e487b7160e01b600052602260045260246000fd5b50919050565b601f8211156200061357600081815260208120601f850160051c81016020861015620005ee5750805b601f850160051c820191505b818110156200060f57828155600101620005fa565b5050505b505050565b81516001600160401b0381111562000634576200063462000573565b6200064c8162000645845462000589565b84620005c5565b602080601f8311600181146200068457600084156200066b5750858301515b600019600386901b1c1916600185901b1785556200060f565b600085815260208120601f198616915b82811015620006b55788860151825594840194600190910190840162000694565b5085821015620006d45787850151600019600388901b60f8161c191681555b5050505050600190811b01905550565b6121e280620006f46000396000f3fe608060405234801561001057600080fd5b50600436106101585760003560e01c806387788782116100c3578063cfc0cc341161007c578063cfc0cc3414610346578063d574ea3d14610366578063e84354c514610379578063e898133014610382578063ed9fe48a14610395578063f2fde38b1461039e57600080fd5b806387788782146102985780638da5cb5b146102a157806399d8e033146102b2578063b61920c1146102bb578063b63f19bb14610314578063c59d48471461033757600080fd5b80634d20061c116101155780634d20061c1461022c5780634db25ff51461023f57806356a21da5146102525780636134f0981461025b578063715018a61461027b5780637697f9c91461028357600080fd5b8063185f84471461015d5780631a3075cc146101795780631edb27e9146101a35780632d4056e6146101c757806346904840146101dc578063487bb96514610207575b600080fd5b61016660065481565b6040519081526020015b60405180910390f35b61018c610187366004611a5e565b6103b1565b604080519215158352602083019190915201610170565b6101b66101b1366004611a5e565b6105c3565b604051610170959493929190611a80565b6101da6101d5366004611b12565b6106ae565b005b600c546101ef906001600160a01b031681565b6040516001600160a01b039091168152602001610170565b61021a610215366004611a5e565b610702565b60405161017096959493929190611b71565b61016661023a366004611cf8565b6107c5565b6101da61024d366004611dda565b610b33565b61016660075481565b61026e610269366004611b12565b610c69565b6040516101709190611e16565b6101da610d15565b61028b610d29565b6040516101709190611e29565b610166600b5481565b6000546001600160a01b03166101ef565b61016660085481565b6102f46102c9366004611a5e565b6002602081905260009182526040909120600181015491810154600382015460049092015490919084565b604080519485526020850193909352918301526060820152608001610170565b610327610322366004611e8b565b610e02565b6040516101709493929190611eb5565b600754600854600360006102f4565b610359610354366004611b12565b610ee1565b6040516101709190611ef2565b61021a610374366004611b12565b61100d565b610166600a5481565b6101da610390366004611b12565b611028565b61016660095481565b6101da6103ac366004611a5e565b61107f565b6000806103bc6110bd565b6001600160a01b03831661040e5760405162461bcd60e51b8152602060048201526014602482015273496e76616c69642075736572206164647265737360601b60448201526064015b60405180910390fd5b6001600160a01b038316600090815260026020526040902080546104695760405162461bcd60e51b8152602060048201526012602482015271139bc81c1bdc9d199bdb1a5bc8199bdd5b9960721b6044820152606401610405565b610472846110e7565b6000806000610480876112af565b9250925092508261049d57505050600101546000925090506105b5565b60006104a8886114cd565b905060006104b689836117f7565b42600388015560048701805491925060006104d083611f66565b9091555050600780549060006104e583611f66565b919050555080600860008282546104fc9190611f7f565b92505081905550886001600160a01b03167f3110b03ef03bd708aeb360c1f0ecb53e226f0b3a3cc368472818e0930bd63caa8486600954426040516105449493929190611f92565b60405180910390a2600186015460408051918252602082018390526000908201524260608201526001600160a01b038a16907fe5ffca7635c15018a8f1c00b9bcff53757466bee397b8f646266d6e001d8faec9060800160405180910390a260018660010154975097505050505050505b6105be60018055565b915091565b6060600080600080600060026000886001600160a01b03166001600160a01b03168152602001908152602001600020905080600001816001015482600201548360030154846004015484805480602002602001604051908101604052809291908181526020016000905b828210156106945760008481526020908190206040805160a0810182526005860290920180546001600160a01b031683526001808201548486015260028201549284019290925260038101546060840152600401546080830152908352909201910161062d565b505050509450955095509550955095505091939590929450565b6106b66118f3565b6113888111156106fd5760405162461bcd60e51b81526020600482015260126024820152710a8d0e4cae6d0ded8c840e8dede40d0d2ced60731b6044820152606401610405565b600955565b60036020526000908152604090208054819061071d90611fc1565b80601f016020809104026020016040519081016040528092919081815260200182805461074990611fc1565b80156107965780601f1061076b57610100808354040283529160200191610796565b820191906000526020600020905b81548152906001019060200180831161077957829003601f168201915b50505060018401546002850154600386015460048701546005909701549596929591945060ff90811693501686565b60006001600160a01b0386166108145760405162461bcd60e51b8152602060048201526014602482015273496e76616c69642075736572206164647265737360601b6044820152606401610405565b60008451116108655760405162461bcd60e51b815260206004820152601760248201527f4e6f20616c6c6f636174696f6e732070726f76696465640000000000000000006044820152606401610405565b6113888311156108ac5760405162461bcd60e51b81526020600482015260126024820152710a8d0e4cae6d0ded8c840e8dede40d0d2ced60731b6044820152606401610405565b6000805b85518110156108f6578581815181106108cb576108cb611ffb565b602002602001015160200151826108e29190611f7f565b9150806108ee81611f66565b9150506108b0565b5080612710146109485760405162461bcd60e51b815260206004820152601c60248201527f416c6c6f636174696f6e73206d7573742073756d20746f2031303025000000006044820152606401610405565b6006805490600061095883611f66565b909155506040805160c0810182528881526020808201889052600a54828401528615156060830152600060808301819052600160a08401528481526004909152919091208151929450909181906109af908261205f565b50602082810151600183015560408084015160028085019190915560608501516003808601805492151560ff19938416179055608087015160048088019190915560a09097015160059096018054961515969092169590951790556001600160a01b038c16600090815292819052908220908101869055429281019290925591810182905590610a409082906119e7565b60005b8651811015610ae25781600001878281518110610a6257610a62611ffb565b602090810291909101810151825460018082018555600094855293839020825160059092020180546001600160a01b0319166001600160a01b039092169190911781559181015192820192909255604082015160028201556060820151600382015560809091015160049091015580610ada81611f66565b915050610a43565b50876001600160a01b03167f5c8602a0e23955009355e7ec887c1e553c8bedcce7af464b25db093b376ca880888542604051610b209392919061211f565b60405180910390a2505095945050505050565b6001600160a01b0383166000908152600260205260408120905b8154811015610c6257836001600160a01b0316826000018281548110610b7557610b75611ffb565b60009182526020909120600590910201546001600160a01b031603610c50576000826000018281548110610bab57610bab611ffb565b906000526020600020906005020160010154905083836000018381548110610bd557610bd5611ffb565b906000526020600020906005020160010181905550846001600160a01b0316866001600160a01b03167f0b8f9caf334715abc50b6d762f8c52640b8dfeaa8698fdf15bd65f7026cc50f2838742604051610c42939291909283526020830191909152604082015260600190565b60405180910390a350610c62565b80610c5a81611f66565b915050610b4d565b5050505050565b600d8181548110610c7957600080fd5b906000526020600020016000915090508054610c9490611fc1565b80601f0160208091040260200160405190810160405280929190818152602001828054610cc090611fc1565b8015610d0d5780601f10610ce257610100808354040283529160200191610d0d565b820191906000526020600020905b815481529060010190602001808311610cf057829003601f168201915b505050505081565b610d1d6118f3565b610d276000611920565b565b6060600d805480602002602001604051908101604052809291908181526020016000905b82821015610df9578382906000526020600020018054610d6c90611fc1565b80601f0160208091040260200160405190810160405280929190818152602001828054610d9890611fc1565b8015610de55780601f10610dba57610100808354040283529160200191610de5565b820191906000526020600020905b815481529060010190602001808311610dc857829003601f168201915b505050505081526020019060010190610d4d565b50505050905090565b60056020528160005260406000208181548110610e1e57600080fd5b600091825260209091206004909102018054600182015460028301546003840180546001600160a01b0394851697509390921694509291610e5e90611fc1565b80601f0160208091040260200160405190810160405280929190818152602001828054610e8a90611fc1565b8015610ed75780601f10610eac57610100808354040283529160200191610ed7565b820191906000526020600020905b815481529060010190602001808311610eba57829003601f168201915b5050505050905084565b610f1e6040518060c00160405280606081526020016000815260200160008152602001600015158152602001600081526020016000151581525090565b60008281526004602052604090819020815160c08101909252805482908290610f4690611fc1565b80601f0160208091040260200160405190810160405280929190818152602001828054610f7290611fc1565b8015610fbf5780601f10610f9457610100808354040283529160200191610fbf565b820191906000526020600020905b815481529060010190602001808311610fa257829003601f168201915b50505091835250506001820154602082015260028201546040820152600382015460ff9081161515606083015260048301546080830152600590920154909116151560a09091015292915050565b60046020526000908152604090208054819061071d90611fc1565b6110306118f3565b6103e881111561107a5760405162461bcd60e51b81526020600482015260156024820152744665652063616e6e6f74206578636565642031302560581b6044820152606401610405565b600b55565b6110876118f3565b6001600160a01b0381166110b157604051631e4fbdf760e01b815260006004820152602401610405565b6110ba81611920565b50565b6002600154036110e057604051633ee5aeb560e01b815260040160405180910390fd5b6002600155565b6001600160a01b038116600090815260026020526040812090805b825481101561119057600061114484600001838154811061112557611125611ffb565b60009182526020909120600590910201546001600160a01b0316611970565b90508084600001838154811061115c5761115c611ffb565b600091825260209091206003600590920201015561117a8184611f7f565b925050808061118890611f66565b915050611102565b506001820181905580156112aa5760005b82548110156112a8576000828460000183815481106111c2576111c2611ffb565b9060005260206000209060050201600301546127106111e19190612144565b6111eb9190612171565b90508084600001838154811061120357611203611ffb565b906000526020600020906005020160020181905550600084600001838154811061122f5761122f611ffb565b9060005260206000209060050201600101549050600081831161125b576112568383612185565b611265565b6112658284612185565b90508086600001858154811061127d5761127d611ffb565b90600052602060002090600502016004018190555050505080806112a090611f66565b9150506111a1565b505b505050565b6001600160a01b03811660009081526002602081815260408084209283015484526004909152822060058101548392606092909160ff166113245760008060405180604001604052806011815260200170537472617465677920696e61637469766560781b81525094509450945050506114c6565b62278d008260030154426113389190612185565b11156113795760016000604051806040016040528060118152602001704d6f6e74686c7920726562616c616e636560781b81525094509450945050506114c6565b6000935060005b82548110156113f3578483600001828154811061139f5761139f611ffb565b90600052602060002090600502016004015411156113e1578260000181815481106113cc576113cc611ffb565b90600052602060002090600502016004015494505b806113eb81611f66565b915050611380565b508060010154841061144057505060408051808201909152601c81527f446576696174696f6e207468726573686f6c642065786365656465640000000060208201526001935090506114c6565b80600201548260010154101561149157505060408051808201909152601e81527f42656c6f77206d696e696d756d20726562616c616e636520616d6f756e74000060208201526000935090506114c6565b5050604080518082019091526015815274139bc81c9958985b185b98da5b99c81b9959591959605a1b60208201526000935090505b9193909250565b6001600160a01b03811660009081526002602081905260408220805460609391926114f89190612144565b67ffffffffffffffff81111561151057611510611baf565b60405190808252806020026020018201604052801561156157816020015b604080516080810182526000808252602080830182905292820152606080820152825260001990920191018161152e5790505b5090506000805b835481101561172857600084600001828154811061158857611588611ffb565b906000526020600020906005020190508060010154816002015411156116595760006127108660010154836001015484600201546115c69190612185565b6115d09190612144565b6115da9190612171565b6040805160808101825284546001600160a01b0316815260006020808301919091528183018490528251808401909352600483526314d1531360e21b90830152606081019190915286519192509086908690811061163a5761163a611ffb565b6020026020010181905250838061165090611f66565b94505050611715565b8060010154816002015410156117155760006127108660010154836002015484600101546116879190612185565b6116919190612144565b61169b9190612171565b604080516080810182526000815284546001600160a01b03166020808301919091528183018490528251808401909352600383526242555960e81b9083015260608101919091528651919250908690869081106116fa576116fa611ffb565b6020026020010181905250838061171090611f66565b945050505b508061172081611f66565b915050611568565b5060008167ffffffffffffffff81111561174457611744611baf565b60405190808252806020026020018201604052801561179557816020015b60408051608081018252600080825260208083018290529282015260608082015282526000199092019101816117625790505b50905060005b828110156117ed578381815181106117b5576117b5611ffb565b60200260200101518282815181106117cf576117cf611ffb565b602002602001018190525080806117e590611f66565b91505061179b565b5095945050505050565b6000805b82518110156118eb5782818151811061181657611816611ffb565b6020026020010151604001518261182d9190611f7f565b6001600160a01b038516600090815260056020526040902084519193509084908390811061185d5761185d611ffb565b602090810291909101810151825460018181018555600094855293839020825160049092020180546001600160a01b039283166001600160a01b031991821617825593830151948101805495909216949093169390931790925560408201516002820155606082015160038201906118d5908261205f565b50505080806118e390611f66565b9150506117fb565b505b92915050565b6000546001600160a01b03163314610d275760405163118cdaa760e01b8152336004820152602401610405565b600080546001600160a01b038381166001600160a01b0319831681178455604051919092169283917f8be0079c531659141344cd1fd0a4f28419497f9722a3daafe3b4186f6b6457e09190a35050565b6040516bffffffffffffffffffffffff19606083901b166020820152426034820152600090683635c9adc5dea00000908290680ad78ebc5ac6200000906054016040516020818303038152906040528051906020012060001c6119d39190612198565b90506119df8183611f7f565b949350505050565b50805460008255600502906000526020600020908101906110ba91905b80821115611a3e5780546001600160a01b031916815560006001820181905560028201819055600382018190556004820155600501611a04565b5090565b80356001600160a01b0381168114611a5957600080fd5b919050565b600060208284031215611a7057600080fd5b611a7982611a42565b9392505050565b60a080825286518282018190526000919060209060c0850190828b01855b82811015611aeb57815180516001600160a01b0316855285810151868601526040808201519086015260608082015190860152608090810151908501529285019290840190600101611a9e565b50505090840197909752505060408101939093526060830191909152608090910152919050565b600060208284031215611b2457600080fd5b5035919050565b6000815180845260005b81811015611b5157602081850181015186830182015201611b35565b506000602082860101526020601f19601f83011685010191505092915050565b60c081526000611b8460c0830189611b2b565b602083019790975250604081019490945291151560608401526080830152151560a090910152919050565b634e487b7160e01b600052604160045260246000fd5b60405160a0810167ffffffffffffffff81118282101715611be857611be8611baf565b60405290565b604051601f8201601f1916810167ffffffffffffffff81118282101715611c1757611c17611baf565b604052919050565b600082601f830112611c3057600080fd5b8135602067ffffffffffffffff821115611c4c57611c4c611baf565b611c5a818360051b01611bee565b82815260a09283028501820192828201919087851115611c7957600080fd5b8387015b85811015611cdb5781818a031215611c955760008081fd5b611c9d611bc5565b611ca682611a42565b815281860135868201526040808301359082015260608083013590820152608080830135908201528452928401928101611c7d565b5090979650505050505050565b80358015158114611a5957600080fd5b600080600080600060a08688031215611d1057600080fd5b611d1986611a42565b945060208087013567ffffffffffffffff80821115611d3757600080fd5b818901915089601f830112611d4b57600080fd5b813581811115611d5d57611d5d611baf565b611d6f601f8201601f19168501611bee565b8181528b85838601011115611d8357600080fd5b818585018683013760009181019094015291955060408801359180831115611daa57600080fd5b5050611db888828901611c1f565b93505060608601359150611dce60808701611ce8565b90509295509295909350565b600080600060608486031215611def57600080fd5b611df884611a42565b9250611e0660208501611a42565b9150604084013590509250925092565b602081526000611a796020830184611b2b565b6000602080830181845280855180835260408601915060408160051b870101925083870160005b82811015611e7e57603f19888603018452611e6c858351611b2b565b94509285019290850190600101611e50565b5092979650505050505050565b60008060408385031215611e9e57600080fd5b611ea783611a42565b946020939093013593505050565b6001600160a01b0385811682528416602082015260408101839052608060608201819052600090611ee890830184611b2b565b9695505050505050565b602081526000825160c06020840152611f0e60e0840182611b2b565b90506020840151604084015260408401516060840152606084015115156080840152608084015160a084015260a0840151151560c08401528091505092915050565b634e487b7160e01b600052601160045260246000fd5b600060018201611f7857611f78611f50565b5060010190565b808201808211156118ed576118ed611f50565b608081526000611fa56080830187611b2b565b6020830195909552506040810192909252606090910152919050565b600181811c90821680611fd557607f821691505b602082108103611ff557634e487b7160e01b600052602260045260246000fd5b50919050565b634e487b7160e01b600052603260045260246000fd5b601f8211156112aa57600081815260208120601f850160051c810160208610156120385750805b601f850160051c820191505b8181101561205757828155600101612044565b505050505050565b815167ffffffffffffffff81111561207957612079611baf565b61208d816120878454611fc1565b84612011565b602080601f8311600181146120c257600084156120aa5750858301515b600019600386901b1c1916600185901b178555612057565b600085815260208120601f198616915b828110156120f1578886015182559484019460019091019084016120d2565b508582101561210f5787850151600019600388901b60f8161c191681555b5050505050600190811b01905550565b6060815260006121326060830186611b2b565b60208301949094525060400152919050565b80820281158282048414176118ed576118ed611f50565b634e487b7160e01b600052601260045260246000fd5b6000826121805761218061215b565b500490565b818103818111156118ed576118ed611f50565b6000826121a7576121a761215b565b50069056fea2646970667358221220d4f9c20a0dde37f4ab179e3c20750d61932590ba7492b3ea10147a3c5dad65ba64736f6c63430008140033",
  "linkReferences": {},
  "deployedLinkReferences": {}
}